:020000040800F2
:10000000082500202902000875170008711700084C
:1000100073170008EF060008311D000800000000FB
:100020000000000000000000000000009101000836
:10003000F106000800000000D5010008EB170008D9
:10004000430200084302000843020008430200087C
:10005000430200084302000843020008430200086C
:10006000430200084302000843020008430200085C
:10007000430200084302000843020008430200084C
:10008000430200084302000843020008430200083C
:10009000430200084302000843020008430200082C
:1000A000430200084302000843020008430200081C
:1000B0000518000811180008430200084302000850
:1000C00043020008430200084302000843020008FC
:1000D00043020008430200084302000843020008EC
:1000E00043020008430200084302000800F002F83F
:1000F00000F03FF80AA090E8000C82448344AAF183
:100100000107DA4501D100F034F8AFF2090EBAE880
:100110000F0013F0010F18BFFB1A43F0010318473B
:100120009C3C0000BC3C0000103A24BF78C878C159
:10013000FAD8520724BF30C830C144BF04680C60ED
:10014000704700000023002400250026103A28BF35
:1001500078C1FBD8520728BF30C148BF0B60704739
:10016000752900F0C980002070471FB51FBD10B56C
:1001700010BD00F082FA1146FFF7F7FF01F098FE7C
:1001800000F0A0FA03B4FFF7F2FF03BC00F0A8FAF6
:10019000224B19680868B0E8F00F80F30988BFF3B4
:1001A0006F8F4FF0000080F311884EF00D0E7047F6
:1001B0000000000006480068006880F3088862B606
:1001C00061B6BFF34F8FBFF36F8F00DF00BF00BF7B
:1001D00008ED00E0EFF30980BFF36F8F0F4B1A6853
:1001E00020E9F00F106008B54FF0500080F311883F
:1001F000BFF34F8FBFF36F8F03F018F84FF000007D
:1002000080F31188BDE8084019680868B0E8F00F6D
:1002100080F30988BFF36F8F704700BF280000206C
:10022000EFF3058070470000094880470948004700
:10023000FEE7FEE7FEE7FEE7FEE7FEE7FEE7FEE796
:10024000FEE7FEE704480549054A064B70470000F3
:1002500003180008ED000008081F002008250020F2
:1002600008210020082100200FB41CB5074B06AA66
:100270007B4469460090059800F093F90020694698
:1002800000F0A2F91CBC5DF814FB0000550300004F
:100290002DE9F0410E460446002020622046E16828
:1002A000884730B3252805D0D4E901219047206A3A
:1002B000401CF2E7E168204600278847050018D077
:1002C000A5F14100192802D820354FF400673246C5
:1002D000294620462760FFF743FF40B1012804D09C
:1002E000F61D26F007060836D8E7361DD6E728465D
:1002F000DAE7206ABDE8F0812DE9F04106460024E6
:1003000010687529314616A510D0AFF3008000287B
:1003100002DA404213A507E031688A0701D512A529
:1003200002E0490704D511A5012401E0AFF30080E4
:1003300000210A2206F1240709E0B0FBF2FCB0FB21
:10034000F2F302FB1C00303078541846491C002898
:10035000F3D123462A463046BDE8F04100F0C2B84A
:10036000000000002D0000002B0000002000000015
:1003700040EA0103024630B59B0710D14FF001342B
:1003800000E008C208C91D1B9D4315EAC41FF8D030
:1003900013F0FF0102F8011B0DD01B0AF8E711F85A
:1003A000013B002B02F8013B05D011F8013B002B6B
:1003B00002F8013BF3D130BD10B5431C02E010F848
:1003C000011B71B18107FAD14FF0013202C88C1ABA
:1003D0008C4314EAC211F9D0C01A0A0603D0C01E19
:1003E00010BDC01A10BD0A0401D0801E10BD090244
:1003F000FCD0401E10BD032A40F2308010F0030CE8
:1004000000F0158011F8013BBCF1020F624498BF67
:1004100011F801CB00F8013B38BF11F8013BA2F104
:10042000040298BF00F801CB38BF00F8013B11F07F
:10043000030300F0CE80083AC0F0088051F8043B76
:10044000083A51F804CBA0E80810F5E7121D5CBF8C
:1004500051F8043B40F8043BAFF30080D20724BFBF
:1004600011F8013B11F801CB48BF11F8012B24BF53
:1004700000F8013B00F801CB48BF00F8012B7047A2
:1004800002F0FF0343EA032242EA024200F0D5B839
:100490004FF0000200B5134694469646203922BF1D
:1004A000A0E80C50A0E80C50B1F12001BFF4F7AF68
:1004B000090728BFA0E80C5048BF0CC05DF804EB4A
:1004C000890028BF40F8042B08BF704748BF20F8B8
:1004D000022B11F0804F18BF00F8012B70477047B6
:1004E000704770472DE9F0470D46994692460446FD
:1004F00000F124080168880604D5E06921F01001A4
:10050000216000E00120A84201DD471B00E0002738
:10051000A1697A1902EB0900081AA0612078C006C7
:1005200002D42046AFF30080002608E0D4E9012180
:100530001AF806009047206A401C761C20624E453F
:10054000F4DB2078C0060AD52046AFF3008006E031
:10055000D4E9012130209047206A401C2062381ED7
:10056000A7F10107F4DC07E0D4E9012118F8050040
:100570009047206A401C2062281EA5F10105F3DC8B
:100580002046AFF300802078000602D50220BDE8A7
:10059000F0870120FBE7000001694A1C026108782E
:1005A000704700B58FB0CDE90131002105910549B3
:1005B0007944CDE9031011466846FFF769FE0FB094
:1005C00000BD0000E5FFFFFF0A6802F8010B0A60AA
:1005D000704710B5203AC0F00B80B1E81850203AAF
:1005E000A0E81850B1E81850A0E81850BFF4F5AFD3
:1005F0005FEA027C24BFB1E81850A0E8185044BF5D
:1006000018C918C0BDE810405FEA827C24BF51F8C9
:10061000043B40F8043B08BF7047D20728BF31F8BD
:10062000023B48BF11F8012B28BF20F8023B48BF0E
:1006300000F8012B70474FF000020429C0F012802F
:1006400010F0030C3FF426AFCCF1040CBCF1020F08
:1006500018BF00F8012BA8BF20F8022BA1EB0C015A
:10066000FFF718BF5FEAC17C24BF00F8012B00F838
:10067000012B48BF00F8012B7047754600F02CF89D
:10068000AE4605006946534620F00700854618B07F
:1006900020B5FFF7D7FDBDE820404FF000064FF032
:1006A00000074FF000084FF0000B21F00701AC46A7
:1006B000ACE8C009ACE8C009ACE8C009ACE8C009C6
:1006C0008D46704710B50446AFF300802046BDE864
:1006D0001040FFF757BD000000487047A81E0020DB
:1006E00001491820ABBEFEE7260002007047FEE776
:1006F0007047000000230A689C46002A08BF704724
:100700002DE9F84F704EDFF8BC914FF001080F272C
:1007100006F1040E0A6808FA03F42240A2427DD1D1
:100720004D68A5F1805AAAF5881A4D4577D077DC37
:10073000032D08BF4FF0000C1BD00DDC002D6ED038
:10074000012D08BFD1F80CC013D0022D04BFD1F881
:100750000CC00CF1080C0CE0112D04BFD1F80CC03A
:100760000CF1040C05D0122D04BFD1F80CC00CF113
:100770000C0CB2F5807F34BF0546051D4FEA83049B
:1007800028BF203CD5F800A007FA04FB2AEA0B0A90
:100790000CFA04F44AEA04042C604C6814F0805FFC
:1007A00064D04A4CA56945F00105A561A46904F02F
:1007B0000104009423F0030404F1804505F580351D
:1007C000D5F808A04FEA83744FEA147407FA04FBC3
:1007D0002AEA0B0AA0F1804BBBF5843B18D0A0F1AC
:1007E000804BBBF5863B08BF4FF0010B10D0A0F14A
:1007F000804BBBF5883B08BF4FF0020B08D0A0F13F
:10080000804BBBF58A3B0CBF4FF0030B4FF0040B42
:100810000BFA04F444EA0A04AC6002E026E03FE08C
:100820002BE04C6814F4801F346814BF14439443C5
:1008300034604C6814F4001FDEF8004014BF144309
:100840009443CEF800404C6814F4003F204C2568D7
:1008500014BF1543954325604C6814F4803F1D4C2C
:10086000256814BF2A4325EA020222600A685B1C3D
:10087000DA407FF44FAFBDE8F88FBAF5881F0FD08C
:1008800007DCBAF5803F18BFBAF5801F7FF471AF5F
:1008900006E0BAF5001F18BFBAF5041F7FF469AF70
:1008A000D1F808C0BCF1000F08BF4FF0040C3FF4B2
:1008B00060AFBCF1010F4FF0080C0CBF0461446144
:1008C00057E700000000111008040140001002402A
:1008D0000404014000040140002A08BF090401612A
:1008E0007047000001488068704700001800002031
:1008F0000248816802781144816070471800002026
:10090000074810B5016841F010010160032000F0B4
:100910008FF80F2000F006F800F024F8002010BD3A
:100920000020024070B50D4D04464FF47A712878CE
:10093000B1FBF0F00A490968B1FBF0F000F064FB8C
:1009400048B9102C07D200222146501E00F03EF874
:1009500000206C6070BD012070BD000018000020F8
:10096000240000200F4808B5816941F00101816130
:10097000816901F001010091C16941F08051C161BB
:10098000C069002200F0805000900F21901E00F0FE
:100990001DF80548416821F0E06141F000714160B7
:1009A00008BD000000100240000001400028B8BF50
:1009B000704700F01F01012202FA01F14009800096
:1009C00000F1E020C0F8001170470000174B10B490
:1009D0001B68C3F30223C3F1070CBCF1040F88BFEB
:1009E0004FF0040C1C1D072C34BF0023DB1E012418
:1009F00004FA0CFCACF1010C0CEA0101994004FA78
:100A000003F35B1E1A40114300284FEA0111A1BFF6
:100A100000F1E02080F8001410BC704700F00F00D7
:100A200000F1E02080F8141D10BC70470CED00E0D0
:100A3000074900F007000A684FF6FF031A4042EA30
:100A4000002040F0FD7040F08060086070470000BA
:100A50000CED00E0002804BF012070472DE9F047AD
:100A6000DFF8788105460E46D8F8000000F0070050
:100A7000B0420CD2D8F8000020F007003043C8F88C
:100A80000000D8F8000000F00700B04263D12868E9
:100A9000534C10F0020F14D010F0040F03D0606814
:100AA00040F4E0606060287810F0080F03D06068C0
:100AB00040F4605060606068A96820F0F00008436E
:100AC0006060287810F0010F32D0686801281FD0CC
:100AD0002168022821D011F0020F3CD0616821F07A
:100AE000030108436060FFF7FDFE07466068696820
:100AF00000F00C00B0EB810F18BF41F2883917D01D
:100B0000FFF7F0FEC01B48450BD90320BDE8F08776
:100B1000216811F4003FE1D11DE011F0007FDDD12B
:100B200019E06068696800F00C00B0EB810FE7D154
:100B3000D8F8000000F00700B0420FD9D8F8000044
:100B400020F007003043C8F80000D8F8000000F09B
:100B50000700B04202D00120BDE8F087287810F0ED
:100B6000040F05D06068E96820F4E0600843606025
:100B7000287810F0080F06D06068296920F46050CA
:100B800040EAC10060606168164801F00C02042A66
:100B900014D0082A12D11448C1F3834211F4803FC3
:100BA000805C04BF1149484308D06168104AC1F312
:100BB0004041515C0B4A5043B0FBF1F061680D4A73
:100BC000C1F30311515CC8400B4908600B48006831
:100BD000FFF7A8FE0020BDE8F087000000200240DB
:100BE0000010024000127A005A3D000800093D0042
:100BF000583D00086A3D0008240000201C00002029
:100C00000448054900684968044AC1F30221515C5F
:100C1000C840704724000020001002407A3D0008C0
:100C20000448054900684968044AC1F3C221515C7F
:100C3000C840704724000020001002407A3D0008A0
:100C4000002804BF012070472DE9F84F04460078C2
:100C5000E84D10F0010F59D0686800F00C0004282E
:100C600008D0686800F00C0008280CD1686810F4FF
:100C7000803F08D0286810F4003F47D06068002803
:100C800000F0B28142E06068B0F5803F04BF2868A0
:100C900040F480300AD010B1B0F5A02F11D02868F0
:100CA00020F480302860286820F480202860606864
:100CB000D0B1FFF717FE0646286810F4003F08D0B1
:100CC00024E0286840F480202860286840F48030C0
:100CD000ECE7FFF707FE801B642800F236812868E6
:100CE00010F4003FF5D011E0FFF7FCFD0646286840
:100CF00010F4003F0AD000BFFFF7F4FD801B64280A
:100D000000F22381286810F4003FF5D12078BA4E14
:100D100010F0020F4FF0010B4FF0000845D068684B
:100D200010F00C0F14D0686800F00C00082804BF05
:100D3000686810F4803F0BD0206918B3C6F800B083
:100D4000FFF7D0FD0746286810F0020F09D011E028
:100D5000286810F0020F1CBF206901280AD000F09B
:100D600043B9FFF7BFFDC01B02287DD8286810F0EB
:100D7000020FF6D02868616920F0F80040EAC1004F
:100D8000286012E0C6F80080FFF7ACFD074628682F
:100D900010F0020F09D000BFFFF7A4FDC01B02280E
:100DA00062D8286810F0020FF6D1207810F0080FF2
:100DB00035D09248A169F9B1C0F800B0FFF792FDB3
:100DC0000746686A10F0020F09D100BFFFF78AFDDD
:100DD000C01B022848D8686A10F0020FF6D0884875
:100DE00001684FF4FA50B1FBF0F0009000BF00989A
:100DF000411E0091FAD212E0C0F80080FFF772FDA8
:100E00000746686A10F0020F09D000BFFFF76AFDBD
:100E1000C01B022828D8686A10F0020FF6D120788B
:100E200010F0040F79D0E8694FF0000A10F0805FED
:100E300009D1E86940F08050E861E8694FF0010AA3
:100E400000F080500090DFF8BC91D9F8000010F459
:100E5000807F19D1D9F8000040F48070C9F80000F3
:100E6000FFF740FD074600E06FE0D9F8000010F4FE
:100E7000807F09D1FFF736FDC01B642865D8D9F8FB
:100E8000000010F4807FF5D0E068012804BF286AD4
:100E900040F0010009D008B1052813D0286A20F0DD
:100EA00001002862286A20F004002862E06841F20C
:100EB0008837D0B1FFF716FD8146286A10F0020F7F
:100EC00008D023E0286A40F004002862286A40F035
:100ED0000100EAE7FFF706FDA0EB0900B84234D8AD
:100EE000286A10F0020FF5D010E0FFF7FBFC8146F6
:100EF000286A10F0020F09D0FFF7F4FCA0EB0900FC
:100F0000B84222D8286A10F0020FF5D1BAF1000FCA
:100F100003D0E86920F08050E861E069F0B36968C7
:100F200001F00C01082950D00228C6F860800FD0CB
:100F3000FFF7D8FC0446286810F0007F57D000BFA8
:100F4000FFF7D0FC001B02283AD90320BDE8F88F38
:100F5000FFF7C8FC0746286810F0007F09D000BFE3
:100F6000FFF7C0FCC01B0228EFD8286810F0007FF4
:100F7000F6D1206AB0F5803F05D16868A16820F4F9
:100F8000003008436860D4E908010843696821F427
:100F9000741108436860C6F860B000E027E0FFF70E
:100FA000A1FC0446286810F0007F20D1FFF79AFCCE
:100FB000001B0228C9D8286810F0007FF6D016E080
:100FC000286810F0007FBBD111E0012808BFBDE800
:100FD000F88F6868226A00F48031914204D1616A16
:100FE00000F47010884202D00120BDE8F88F002084
:100FF000BDE8F88F001002400000424280044242E7
:101000002400002000700040411EB1F1807F24BF09
:10101000012070474FF0E0204161054AF02182F83D
:10102000141D00218161072101610020704700002B
:101030000FE000E07047704790F83C20012A04BFA1
:101040000220704730B4012380F83C30022280F83F
:101050003D2002685468D2F808C00D6824F070047E
:101060002C4354600268A2F18044B4F5963418BF52
:10107000B2F1804F09D0A2F18044B4F580641CBF66
:10108000A2F18044B4F5006405D149682CF0800CCD
:1010900041EA0C01916080F83D30002180F83C105D
:1010A00030BC08467047002804BF0120704710B5C7
:1010B000044690F83D0028B9002084F83C00204602
:1010C00000F01EF8022084F83D00211D206800F089
:1010D000A5FB012084F8460084F83E0084F83F0018
:1010E00084F8400084F8410084F8420084F843000A
:1010F00084F8440084F8450084F83D00002010BDC9
:1011000008B501681D48A1F18042B2F596321AD0A7
:10111000B1F1804F20D0A1F18042B2F5806218BFBA
:1011200008BDC16941F00201C161C069002200F03F
:101130000200009005211D20FFF748FCBDE8084093
:101140001D20FFF733BC816941F400618161806932
:1011500000F40060009008BDC16941F00101C16167
:10116000C069002200F00100009005211C20FFF75B
:101170002DFCBDE808401C20FFF718BC0010024001
:1011800090F83D1001291CBF01207047022180F812
:101190003D100168CA6842F00102CA600068A0F10F
:1011A0008041B1F5963118BFB0F1804F09D0A0F160
:1011B0008041B1F580611CBFA0F18041B1F50061B3
:1011C00004D1816801F00701062903D0016841F0CC
:1011D000010101600020704790F83C200023012AA3
:1011E0000DBF02204FF0010C80F83CC0704770B476
:1011F000022280F83D200268946824F0770424F4E9
:101200007F4494600A68502A43D00CDC202A75D0B1
:1012100004DC002A18BF102A0FD18BE0302A6DD0D1
:10122000402A6DD009E0602A4DD0702A0ED0B2F568
:10123000805F03D0B2F5005F19D0012380F83DC074
:10124000002180F83C1070BC18467047D1E9014578
:101250000268C968966844EA012126F47F4629435A
:101260003143916001688A6842F077020FE0D1E96A
:1012700001450268C968966844EA012126F47F4660
:1012800029433143916001688A6842F480428A6050
:10129000D4E702684C68C968156A166A26F0010628
:1012A0001662966925F00A0526F0F00646EA011155
:1012B0002C439161146201688A6822F0700242F046
:1012C00057028A60BAE702684C68C968156A166AEC
:1012D00026F010061662966925F0A00526F47046E1
:1012E00046EA013145EA04149161146201688A6892
:1012F00022F0700242F067028A609FE71AE0FFE77F
:1013000002684C68C968156A166A26F001061662FA
:10131000966925F00A0526F0F00646EA01112C43ED
:101320009161146201688A6822F0700242F04702FB
:101330008A6083E701688C6824F07004224342F0DD
:1013400007028A607AE7704770B504460068016951
:101350004FF0000511F0020F1CBFC16811F0020F21
:1013600013D06FF0020101610120207720688069AD
:1013700010F0030F204602D0FFF7E5FF04E000F075
:1013800099F8204600F097F825772068016911F058
:10139000040F1CBFC16811F0040F13D06FF00401DB
:1013A0000161022020772068806910F4407F204688
:1013B00002D0FFF7C8FF04E000F07CF8204600F000
:1013C0007AF825772068016911F0080F1CBFC16801
:1013D00011F0080F13D06FF008010161042020778D
:1013E0002068C06910F0030F204602D0FFF7ABFF62
:1013F00004E000F05FF8204600F05DF825772068F3
:10140000016911F0100F1CBFC16811F0100F13D04B
:101410006FF010010161082020772068C06910F486
:10142000407F204602D0FFF78EFF04E000F042F834
:10143000204600F040F825772068016911F0010F7F
:101440001CBFC16811F0010F05D06FF001010161EF
:10145000204600F031F82068016911F0800F1CBFB0
:10146000C16811F0800F05D06FF080010161204646
:10147000FFF7E0FD2068016911F0400F1CBFC16853
:1014800011F0400F05D06FF040010161204600F0DF
:101490005AF82068016911F0200F1ABFC16811F0D5
:1014A000200F70BD6FF0200101612046BDE8704043
:1014B000FFF7C1BD704770470168A1F18040B0F5EA
:1014C000963008BF70470948A1F18042B2F58062AA
:1014D00007D0B1F1804F18BF70474168491C416087
:1014E00070470168491C016070470000040000203B
:1014F00070B5044690F83C00012804BF022070BD7E
:10150000012584F83C50022084F83D00204600F07C
:10151000C1F901004FF0000005D084F83D5084F877
:101520003C00012070BD2168CA6822F04002CA60F8
:101530002168CA6822F48042CA6084F83D5084F869
:101540003C00002070BD7047002804BF0120704798
:1015500070B5044690F84100002520B984F8405049
:10156000204600F023F8242084F841002068C16858
:1015700021F40051C160204600F000FA20680169A2
:1015800021F4904101612068416921F02A01416103
:101590002068C16841F40051C1606564202084F86E
:1015A000410084F842006563002070BD30B585B00D
:1015B000002400940194029403940068A0F18041F7
:1015C000B1F59C311CBF05B030BD1348816941F4B1
:1015D00080418161816901F480410491816941F018
:1015E0000401816180690D4D00F0040004904FF406
:1015F0000070009002200190032003906946284665
:10160000FFF778F82815CDE90004694628460294CA
:10161000FFF770F805B030BD00100240000801402F
:101620002DE9F05F044690F841001D4616468846B5
:1016300020281CBF0220BDE8F09FB8F1000F12BFA8
:10164000002E0120BDE8F09F4FF0000BC4F844B01D
:101650004FF0210084F84100FFF744F9A684814649
:10166000E684A068B0F5805F07BF20690028464681
:101670004FF0000808BF0026E08C4FF0200AB0B3FE
:1016800020684FF08007006837EA000024D000BFD0
:10169000B5F1FF3F1BD02DB1FFF724F9A0EB0901F5
:1016A000A94214D920680C3050E8001F21F4D071F1
:1016B00040E80012002AF5D12068143050E8001FDD
:1016C00021F0010140E80012002AF5D135E0206840
:1016D000006837EA0000DBD1C6B3206816F8011BAA
:1016E0004160E08C401EE084E08C0028C8D1206876
:1016F0004026006836EA000035D000BFB5F1FF3F54
:101700002CD02DB1FFF7EEF8A0EB0900A84225D9A7
:1017100020680C3050E8001F21F4D07140E800121E
:10172000002AF5D1206800F1140151E8000F20F0E3
:10173000010041E80002002AF4D184F841A084F8B5
:1017400042A084F840B00320BDE8F09FFFE738F8DE
:10175000020B2168C0F308004860C2E720680068F7
:1017600036EA0000CAD184F841A00020BDE8F09F0D
:10177000FEE7FEE7FEE700000E4C40F6FF75002195
:1017800026688C46012000227F2302440144801CED
:10179000521C5B1EF9D10CF1010C1144AC45F1D384
:1017A0002068821B04A000F083F9642000F0A8FCEC
:1017B000E5E7000004000020636163756C61746FED
:1017C0007220203D20253038782074696D652063B3
:1017D0006F73742025640D0A0000000000F03CFBCC
:1017E0004FF4FA7000F08CFCF8E710B5FFF780F8C2
:1017F00002F0B0F8012808BF10BDBDE8104001F0AC
:10180000B3BD70470148FFF79FBD0000F4040020FE
:101810000148FFF799BD00003C05002030B4026884
:10182000194BDFF868C01A4C984218BFB0F1804FCE
:1018300003D0604518BFA04204D14D6822F0700269
:1018400045EA0202984218BFB0F1804F03D06045CC
:1018500018BFA04205D1D1F80CC022F440724CEA66
:101860000202D1F814C022F0800242EA0C020260A7
:101870008A68C2620A688262984204BF0969016389
:101880000121416130BC7047002C01400004004040
:101890000008004010B403680022D3F808C04C6868
:1018A0002CF0700C44EA0C0C0C682CF0070C44EA89
:1018B0000C0CC3F808C04B6813F00F0F59D11B1163
:1018C000082B56D2DFE803F056565656122B40042A
:1018D0000068D1F808C0CB68096984684CEA012126
:1018E00024F47F4419432143816043E00B68052BB6
:1018F00002BF012010BC70470368D3F820C01C6AE7
:1019000024F001041C6203689C69096924F0F00456
:1019100044EA011199610068C0F820C02AE000681B
:101920008B680969D0F820C0046A24F001040462BD
:1019300084692CF00A0C24F0F00444EA01114CEA0A
:1019400003038161036215E000688B680969D0F8C0
:1019500020C0046A24F01004046284692CF0A00CF6
:1019600024F4704444EA01314CEA031381610362B8
:1019700000E0012210BC10467047000070B504461C
:1019800000680169E26821F4405111430161216955
:10199000A0680843616901432068C26822F40372A9
:1019A00022F4A0521143C16020684169A26921F468
:1019B0004071114341612068A0F18041B1F59C3133
:1019C0003CD0FFF71DF900BF00EBC00101EB001296
:1019D00060681C498000B2FBF0F3A1FB0353B2FB2B
:1019E000F0FC5B096FF018056B430CEB830C3223A2
:1019F00003EB0C1CA1FB0C5C4FEA5C1C0CF0F0052B
:101A0000B2FBF0FCA1FB0C6C4FEA5C1C05EB0C1C60
:101A1000B2FBF0F5B2FBF0F0A1FB002040096FF043
:101A20001802504305EB800003EB0010A1FB0010EF
:101A30002168C0F343106044886070BDFFF7F0F880
:101A4000C2E700001F85EB51844630B40020002916
:101A500087BF0024154A30BC704700BF1CF8003017
:101A60000A2B0ED1B2F800540D235355B2F80034AE
:101A70005B1C9BB2A2F80034B3F5806F28BFA2F8BC
:101A800000441CF80030B2F800545355B2F800344A
:101A90005B1C9BB2A2F80034B3F5806F28BFA2F89C
:101AA0000044401C8842D9D330BC7047A8000020B5
:101AB0000FB42DE9F04F91B01BAE1A9D2878002885
:101AC00019BF4FF02D08964F11B0BDE8F00F08BFB9
:101AD0005DF814FB0024285D25281CBF0028641C29
:101AE000F9D121462846FFF7AFFF2544287825285D
:101AF00037D115F8010F002420233038092814D8D5
:101B000015F8010C302804BF002C302304EB8400AE
:101B10004FEA400015F8011BA0F1300001EB000472
:101B20002878A0F130000928EAD92878702873D0E5
:101B30000CDC252804BF0121681E00F0EE80582827
:101B40006AD0632815D0642819D005E0732864D0C2
:101B500075287DD078285FD0052172A0FFF774FF2B
:101B60006D1C28780028B5D111B0BDE8F00F5DF8E4
:101B700014FB56F8040B0390012103A8CDE056F89E
:101B8000040B002103900028BDBF404203904FF09A
:101B9000010A4FF0000A4FF00A0C81460AA8012200
:101BA00002FB0CFBCB459CBFBBFBFCFE964504BF78
:101BB0005A46641EF4D0BAF1000F0AD04FFA83FBE4
:101BC000641EBBF1300F04D100F801804FF0000A11
:101BD000491CA4F1020BBBF10E0F05D2641E03D009
:101BE0004354491C641EFBD1BAF1000F1CBF00F81E
:101BF0000180491C002A18BF3B685CD0B9FBF2F495
:101C0000B4FBFCFA0CFB1A44B2FBFCF21C5D44541E
:101C1000491C002AF2D180E04EE056F8040B4FF048
:101C2000000900BF10F80910002918BF09F10109C7
:101C3000F8D14946FFF708FFA14591D2A4EB09006E
:101C4000441E8DD3012139A0FFF7FEFE641E00E083
:101C500001E0F7D284E756F8049B00214FF00A0C0C
:101C60000AA80122CDF80C9002FB0CFACA459CBFD1
:101C7000BAFBFCFB934504BF5246641EF4D0A4F1AA
:101C8000020ABAF10E0F05D2641E03D04354491C58
:101C9000641EFBD1002A18BF3B683ED0B9FBF2F4AA
:101CA000B4FBFCFA0CFB1A44B2FBFCF21C5D44547E
:101CB000491C002AF2D130E056F8049B00214FF075
:101CC000100C0AA80122CDF80C9000BF02FB0CFA00
:101CD000CA459CBFBAFBFCFB934504BF5246641E39
:101CE000F4D0A4F1020ABAF10E0F05D2641E03D09B
:101CF0004354491C641EFBD1002A18BF3B680CD01A
:101D0000B9FBF2F4B4FBFCFA0CFB1A44B2FBFCF294
:101D10001C5D4454491C002AF2D1FFF795FE1FE7D1
:101D2000E83C00084552524F5200000020000000DD
:101D3000FEE770470026184D184FC0B001246968AF
:101D400017A0FFF7B5FE2868811B18A0FFF7B0FEAB
:101D50002E6822464FF400513846FEF7BDFD002C98
:101D60000CBF012400244FF480716846FEF790FBFD
:101D700013A0FFF79DFE4FF480716846FEF788FBC5
:101D8000684601F053F9694614A0FFF791FE4FF43D
:101D90007A7000F0B5F9D2E704000020001001408D
:101DA00074696D6572322025640D0A0068656C6C7B
:101DB0006F20776F726C642025640D0A00000000AC
:101DC000232323232323236370756C6F61642323F0
:101DD0002323232323230D0A000000002573000082
:101DE00070B50546002D05D0154E3068854209D1E5
:101DF000002070BD502080F31188BFF34F8FBFF3D8
:101E00006F8FFEE700F0D4FF6C6900F0F1FF70689F
:101E1000844202D0B068844201D1022070BD0948DA
:101E2000844205D1A86A08B1022070BD032070BDAC
:101E30000548844202D00CB1012070BD042070BD61
:101E400028000020BC0A0020A80A002001484068A1
:101E50007047000004000020F8B5134C00268DF8F0
:101E60000060B4F80204B4F80014884214BF0F4DA7
:101E7000F8BD80B2FF23215C8DF80010401CA4F84F
:101E80000204012269462868FFF7CAFBB4F802047D
:101E9000B0F5806F28BFA4F80264B4F80204B4F867
:101EA00000148842E5D1F8BDA80000200000002001
:101EB00090B0FEF725FD00240126059406940A94AF
:101EC0000B943004CDE90060029403940E940C94BA
:101ED0000D9402250496CDE907504FF4E0100990C7
:101EE0006846FEF7ADFE08B172B6FEE70F20CDE9F9
:101EF0000A054FF48060CDE90C4002210AA80E9437
:101F0000FEF7A8FD08B172B6FEE76D480094019493
:101F100002940394816941F010018161816901F0AB
:101F200010010491816941F020018161816901F012
:101F300020010491816941F0040181618069614F50
:101F400000F00400049000224FF400513846FEF7E0
:101F5000C3FC7814CDE9000669463846CDE9024550
:101F6000FEF7C8FB5948019402940094039404942A
:101F7000069455490794C0E900144FF6FF71C0E973
:101F80000241046144618461FFF78DF808B172B6C3
:101F9000FEE70620CDE9000469464C48FFF7A8FAA1
:101FA00008B172B6FEE7069406A948480794FFF701
:101FB00043F808B172B6FEE74648454901604FF460
:101FC000E131C0E901140C21C460C0E9044184611D
:101FD000C461FFF7B9FA08B172B6FEE73F48009452
:101FE00001940294039404943B4947250594C0E965
:101FF000001540F2E731C0E90241802686610461A4
:10200000FFF751F808B172B6FEE74FF48057694602
:1020100032480097FFF7E0F808B172B6FEE7049483
:1020200004A92E480594FFF707F808B172B6FEE739
:102030002B48009401940294039404944FF080413F
:102040000594C0E900153121C0E9024186610461AF
:10205000FFF729F808B172B6FEE7694620480097F5
:10206000FFF7BAF808B172B6FEE7049404A91C4859
:102070000594FEF7E1FF08B172B6FEE700F05CF8E8
:10208000184A0021184800F093F8184C184A00210B
:10209000A060184800F08CF8E060174A002117484B
:1020A00000F086F820610D48FFF76AF80C48FFF74A
:1020B00067F8084800F0BCFD00F05AF8FEE70000A1
:1020C0000010024000100140002C0140AC04002030
:1020D0000038014084050020000400403C05002039
:1020E000F4040020EC3C00087917000804000020EC
:1020F000103D0008DD170008343D0008351D0008BC
:1021000010B50146EFF3058048B9EFF3108030B900
:1021100008480068022805D1EFF3118010B16FF074
:10212000050404E0002411B1084600F01BFF20461E
:1021300010BD000080000020EFF30580002809D1C9
:10214000EFF3108030B9094A1068022805D1EFF387
:10215000118111B16FF00500704710B14FF0FF30E1
:1021600070470120106000207047000080000020B0
:1021700010B5EFF30580002809D1EFF3108030B9D6
:102180000A4A1068022805D1EFF3118111B16FF0EE
:10219000050010BD012802D04FF0FF3010BD022015
:1021A000106000F0F1FF002010BD00008000002052
:1021B0002DE9F04385B00B464FF000070397EFF38E
:1021C000058100295DD1EFF31081002959D12F49F4
:1021D0000968022903D1EFF31181002951D10028A8
:1021E0004FD080244FF0180C04970DF110094FF0D8
:1021F000FF3152B3166806B1B146956905B1AC46D8
:10220000ACF10105382D03D2157915F0010F03D07B
:1022100005B00020BDE8F083556905B1AC08D2F8DF
:102220000880B8F1000F07D0D668602E04D3166975
:1022300016B10DB1012109E0B8F1000F06D1D56842
:1022400025B9156915B9002100E00021012901D047
:1022500061B116E09168126901920291CDF800C057
:102260002246494601F046FB03900AE003A901918A
:10227000A2B2CDF800C0494601F006FB012800D00B
:102280000397039805B0BDE8F083000080000020AC
:102290002DE9F04104460F46134E75693068001D64
:1022A00000F0CEFCB4F1FF3F07D137B13068BDE894
:1022B000F041011D0D4800F06FBD2C4430684460B2
:1022C000AC4206D23068011DB068BDE8F04100F0B4
:1022D00048BD3068011D706800F043FD306B8442DA
:1022E00000D23463BDE8F08128000020BC0A002041
:1022F00070B5044600F05CFD1C4D2869401C286147
:10230000286810B1E86938B10CE02C602869012810
:1023100008D100F093F905E02868E16AC06A8842B4
:1023200000D82C60E86A401CE8626064E06AA96931
:10233000884200D9A8610E4900EB800001EB8000C3
:10234000211D00F029FD00F053FDE86900280CD0A4
:102350002868E16AC06A884207D206494FF0805077
:102360000860BFF34F8FBFF36F8F70BD2800002050
:102370000C06002004ED00E038B500F019FD0F4C0C
:10238000A068B8B90E4800F0DEFC0E4800F0DBFC97
:102390000B4820601430606000200B4B009003F16C
:1023A000500210210A2000F0F5FFA06010B107A133
:1023B00000F09EFDBDE8384000F01ABD6C00002022
:1023C000D00A0020E40A0020F80A0020546D72515F
:1023D0000000000070B50D4CE068002815D00C4ED0
:1023E00000F0E6FCF068C568281D00F029FC2069B3
:1023F000401E2061E068401EE06000F0F9FC2846C5
:1024000000F051F8E0680028EAD170BD28000020F3
:10241000A80A00200B46026C002A0CD0C1681144A7
:10242000C160D0F804C0614501D30168C160C168D2
:102430001846FDF7E0BF70472DE9F0410446164607
:102440000027A56B226C002A10D0C6B1E068FDF70A
:10245000D2FFE168206C091AE1602268914202D241
:102460006168081AE060022E16D017E02068A8B94B
:10247000606801F0E9FA0746002060600EE0A0689D
:10248000FDF7B9FF216CA0680844A060616888422C
:1024900004D32068A06001E005B16D1E681CA06334
:1024A0003846BDE8F08110B5044694F85D10002967
:1024B0000BD0012911D0022914D0502080F31188AB
:1024C000BFF34F8FBFF36F8FFEE7206B00F0A6FCCA
:1024D0002046BDE8104000F0A1BC2046BDE81040F9
:1024E00000F09CBC10BD000007490A681168002973
:1024F00004D00021016019B1002070470121F9E7E3
:10250000D0680068704700006C0000204FF4406104
:10251000104810F0070F06D0C01D20F007000D492D
:10252000411AC1F540610C4A106000235360014418
:10253000083921F00701103A11604B600B600B1A4B
:10254000436001604068906050604FF00040D06090
:1025500070470000A812002094000020084E4FF0A1
:102560008054084DFFF736FF3068012804D92C60ED
:10257000BFF34F8FBFF36F8F00F0E4FBF2E7000073
:102580000C06002004ED00E070B51D46049C0029F7
:1025900009D02260E06321640121204600F032FF6F
:1025A00084F84C5070BD2460F4E72DE9F05F82465A
:1025B0000B9F0A9D0C9C0E4690469B464FEA880155
:1025C000A522206BFDF75CFF206BA8F1010100EB59
:1025D000810020F007094FF0000800202218315C2C
:1025E00082F83410315C11B1401C1028F6D384F805
:1025F0004380382D00D33725E562E564C4F8508068
:10260000201D00F0ABFB04F1180000F0A7FB2461D3
:10261000C5F13800A0616462C4F85480C4F85880E1
:1026200084F85C805A465146484600F0EFFA206034
:10263000002F00D03C60BDE8F09F000070B5002482
:102640000F4D04EB840005EB800000F07CFB641C64
:10265000382CF6D30B4800F076FB0B4800F073FBE8
:102660000A4800F070FB0A4800F06DFB094800F0D2
:102670006AFB0948034941601431816070BD000064
:102680000C0600206C0A0020800A0020940A00201A
:10269000A80A0020BC0A00202800002010B4144919
:1026A00000E011460A688242FBD34B6803EB010C41
:1026B000844503D140681844486008460C68D0F847
:1026C00004C00CEB0003A3420CD10A4B1B689A42D6
:1026D00006D05268624442600A681268026002E0F2
:1026E000036000E00260814200D0086010BC7047C7
:1026F000940000208400002010B500244160006197
:10270000DFF838C091420BD8D11A8269914201D3C7
:10271000012410E0011DDCF8040000F022FB0AE0B7
:102720009A4203D2994201D3012404E0011DDCF84E
:10273000000000F016FB204610BD00006C000020D9
:1027400010B5044600F034FBA06B20B1002400F06B
:102750004FFB204610BD0124F9E710B5044600F0F8
:1027600027FBA06BE16B884201D1012400E000242B
:1027700000F03EFB204610BD2DE9F04780460C4698
:10278000914600252068002823D06068406860607A
:1027900004F10806B04201D1416861606068C76811
:1027A0006068D0F804C0C4F804C0B44502D1DCF8B5
:1027B000041061606068D0F80CA005EBC50008EB60
:1027C00080014B460122504600F0F4FB6D1CBA45D7
:1027D000E6D12846BDE8F087F8B505460E46144810
:1027E0000068C068C468201D00F02AFAE06901286A
:1027F00010D1A0692B46411932462046FFF77CFFD5
:1028000040B100200346014600902A46204601F0D0
:1028100031FA28B1616A01B02046BDE8F0400847AE
:10282000502080F31188BFF34F8FBFF36F8FFEE707
:102830006C00002030B587B0334D002202A9A86893
:1028400000F03EFF00285CD00298002803DA039ACB
:10285000059904989047029800284BDB049C606916
:1028600010B1201D00F0ECF901A800F097F8024625
:1028700002980A283ED2DFE800F00505053D26371C
:1028800005053D260398A169034601442046FFF74C
:1028900033FF00B3616A20468847E069012829D1E7
:1028A000002000900398A169002342181946204691
:1028B00001F0E0F978B9502080F31188BFF34F8F11
:1028C000BFF36F8FFEE70398A06128B1811813460C
:1028D0002046FFF711FF0DE0502080F31188BFF371
:1028E0004F8FBFF36F8FFEE794F82C0010B920468E
:1028F00000F094FA002202A9A86800F0E1FE002886
:10290000A2D107B030BD00006C000020F8B505462C
:102910000C4600F083FC684600F040F8064600983C
:1029200010B101F00DF9F8BD44B9B54206D801F077
:1029300007F931462846FFF74FFFF8BD0C481CB198
:102940004168096891B10024A91B2246806800F003
:10295000E3FA01F0F5F80028EFD106494FF0805076
:102960000860BFF34F8FBFF36F8FF8BD0124EBE713
:102970006C00002004ED00E007494868006800286A
:1029800005D04868C068C0684068086370474FF069
:10299000FF300863704700002800002070B504462F
:1029A00000F0E6FF0546074E3069854204D200F08C
:1029B0000BF80120206001E00020206035612846EE
:1029C00070BD00006C000020F8B51B4E3068006838
:1029D000002824D000273068C0680568C468201D1E
:1029E00000F02EF9616A20468847E069012812D17B
:1029F000A0692844A84206D960602461211D30687E
:102A000000F0AFF907E000232A4619462046009758
:102A100001F030F940B1306800680028DBD130683F
:102A2000716831607060F8BD502080F31188BFF389
:102A30004F8FBFF36F8FFEE76C00002000210278FC
:102A4000A52A04D1401C491C0278A52AFAD088087E
:102A500080B270470A484068B0F1FF3F07D050206D
:102A600080F31188BFF34F8FBFF36F8FFEE75020C5
:102A700080F31188BFF34F8FBFF36F8FFEE7000025
:102A80009C00002082B001A8FFF72EFD0199FFF7FE
:102A90003DFFFFF7CFFEF6E770B5044600F088F97A
:102AA00094F94550002D0CDD606A50B104F124000A
:102AB00001F00AF808B100F029FB681E45B2002DAC
:102AC000F2DC4FF0FF3684F8456000F091F900F039
:102AD0006FF994F94450002D0CDD206950B104F1D8
:102AE000100000F0F1FF08B100F010FB681E45B2C5
:102AF000002DF2DC84F84460BDE8704000F078B945
:102B000010B504462046FDF733FC2046FDF754FC83
:102B10000F2804D220212154401C0F28FBD3002170
:102B20002154204410BD00002DE9F0410546002647
:102B300000F074FB334F386808B9FFF7E7FCF8681A
:102B400005424ED19DB1083515F0070F0FD005F0A5
:102B50000700C0F10800054415F0070F07D050200A
:102B600080F31188BFF34F8FBFF36F8FFEE7002D07
:102B700037D07868854234D823490846046801E094
:102B8000214604466068A84202D220680028F7D196
:102B90003868844225D0086800F10806206808607B
:102BA0006068411B10290FD9601910F0070F07D07A
:102BB000502080F31188BFF34F8FBFF36F8FFEE774
:102BC00041606560FFF76AFD61687868401A786067
:102BD000BA68904200D2B860F8680843606000208C
:102BE000206000F0ADFF16F0070F07D0502080F3F3
:102BF0001188BFF34F8FBFF36F8FFEE73046BDE8FC
:102C0000F08100008400002094000020001F4FF09D
:102C100080730360001F21F001010160001F034960
:102C2000016014380260203870470000552A0008FF
:102C300000281CBF01490860704700000000002008
:102C40000169436882689A60836842685A604A688A
:102C5000824201D182684A60002202610868401EF7
:102C600008600868704700002DE9F04706460B46EB
:102C700017460024382500F0D1FADFF88C80D8F808
:102C8000100083423AD3DFF884906D1E05EB850077
:102C900009EB800104EBC40006EB80000122FFF782
:102CA0006BFD0444002DF0D104EBC40006EB800062
:102CB0000222D8F80410FFF75FFD044404EBC400BF
:102CC00006EB80000222D8F80810FFF755FD0444F7
:102CD00004EBC40006EB800004220D49FFF74CFD15
:102CE000044404EBC40006EB800003220949FFF70B
:102CF00043FD044417B1FFF7A9F8386000F020FF46
:102D00002046BDE8F0870000280000200C060020C7
:102D1000A80A0020BC0A0020034B036003F16000F6
:102D20000860802010607047E80B0020044B0360AF
:102D300003F1600008604FF480701060704700007D
:102D4000480E0020704700F1080141604FF0FF324B
:102D50008260C16001610021016070470021016152
:102D6000704710B4D1F800C0BCF1FF3F02D000F1B1
:102D7000080202E0026904E01A4653681C686445D0
:102D8000FAD953684B6099608A60516008610168A4
:102D9000491C016010BC704742684A6093688B60B0
:102DA00093685960916008610168491C016070472F
:102DB000502080F31188BFF34F8FBFF36F8F0A4904
:102DC0004868401C486001280CD10848006810F091
:102DD000FF0F07D0502080F31188BFF34F8FBFF350
:102DE0006F8FFEE7704700009C00002004ED00E0BC
:102DF00009494868002806D0401E4860002801D1D3
:102E000080F311887047502080F31188BFF34F8FF3
:102E1000BFF36F8FFEE700009C00002070B5002814
:102E200027D0A0F10804134D6068E968084207D173
:102E3000502080F31188BFF34F8FBFF36F8FFEE7F1
:102E400022683AB1502080F31188BFF34F8FBFF34F
:102E50006F8FFEE78843606000F0E0F960686968A2
:102E6000084468602046FFF719FCBDE8704000F098
:102E700067BE70BD840000204FF0E020002101619A
:102E8000816105494FF47A720968B1FBF2F1491E7C
:102E900041610721016170472400002010B5FDF752
:102EA000BFF9114910280ED300F1E02090F8F0038B
:102EB0000A78904207D2502080F31188BFF34F8FD9
:102EC000BFF36F8FFEE709480068896800F4E0608F
:102ED000884207D9502080F31188BFF34F8FBFF38A
:102EE0006F8FFEE710BD00009C0000200CED00E09D
:102EF0000022084B53F832C0BCF1000F03D0521C23
:102F0000082AF7D3704743F8321003EBC201486038
:102F100070470000CC05002070B504460D461646EB
:102F2000FFF746FF94F94400B0F1FF3F4FF0000077
:102F300001D184F8440094F94510B1F1FF3F01D16B
:102F400084F84500FFF754FFA06B28B932462946A4
:102F500004F1240000F0FAF82046BDE87040FFF7C5
:102F60009BBD000010B502460020002A12D00F4879
:102F7000806B38B1502080F31188BFF34F8FBFF3BF
:102F80006F8FFEE700F04AF900211046FFF780F945
:102F900000F0D6FD002807D105494FF080500860A9
:102FA000BFF34F8FBFF36F8F10BD000028000020CC
:102FB00004ED00E02DE9F0410C4616461A490028C0
:102FC00016D00546256005F134006060E86A20618E
:102FD000286BE061686CA060E86C6061686DA0615E
:102FE0000027052B12D00868854203D1277311E012
:102FF0000D68E7E72373032B0CD100F00FF9A86AE3
:1030000008B10220207300F09BFD03E02846FEF784
:10301000E7FE20732EB1286BFFF710FD2084BDE87A
:10302000F0812784BDE8F0812800002070B584B0CD
:10303000064600253570294801690391006900EBB7
:10304000C0008000FFF770FD0446200043D001AAB5
:103050000399FFF709FE039021490198A1FB001095
:1030600040090190002833D00295039800282FD9F9
:103070000298019A00EBC00004EB80008169B1FB6B
:10308000F2F541683046FFF73BFD06465DB1029818
:103090002B4600EBC00004EB800012A18269304691
:1030A000FDF7E2F809E0029811A100EBC00004EB83
:1030B000800082693046FDF7D7F83046FDF77CF98D
:1030C00006440298401C0290039902988842CFD38C
:1030D0002046FFF7A3FE04B070BD000028000020CA
:1030E0001F85EB510925750909257525250D0A0050
:1030F00009257509093C3125250D0A0002498A6A0E
:1031000002604969416070472800002001490120A0
:10311000486270472800002010B50C4600280BD0EC
:10312000094A126802F11801FFF71BFE2046BDE8AC
:1031300010400121FFF7ACB8502080F31188BFF395
:103140004F8FBFF36F8FFEE72800002070B50D464C
:10315000144600280DD00B4909681831FFF71CFEF2
:103160000CB14FF0FF3521462846BDE87040FFF70F
:103170008FB8502080F31188BFF34F8FBFF36F8F4C
:10318000FEE700002800002030B587B00025069536
:10319000059504AA05A906A8FFF7BEFD069805999E
:1031A000019102900023009518A11A48049A00F09A
:1031B000A1FB194C606308B1012000E00020012848
:1031C00001D100F023FD01280AD0B0F1FF3F1BD14F
:1031D000502080F31188BFF34F8FBFF36F8FFEE74E
:1031E000502080F31188BFF34F8FBFF36F8F4FF0E4
:1031F000FF3020630120E0616561FEF79AFD07B0B2
:10320000BDE8304000F056B807B030BD49444C45E9
:10321000000000005D250008280000200248816BA6
:10322000491C8163704700002800002010B51F4C26
:10323000A06B002802D00120606210BD00206062F7
:10324000FEF704FE2064E26B904204D92168821AE2
:103250004B6D1A444A65E063A069154900EB800292
:1032600051F822203AB9C0B1401E00EB800251F85B
:103270002220002AF7D000EB800201EB82014A688D
:1032800052684A6001F108039A4201D152684A60CB
:103290004968C9682160A06110BD502080F3118881
:1032A000BFF34F8FBFF36F8FFEE7000028000020B1
:1032B0000C06002000B583B0284908780290FF2052
:1032C0000870087801909DF804009DF8042000F033
:1032D000F000904207D0502080F31188BFF34F8F49
:1032E000BFF36F8FFEE79DF804001D4B00F0500008
:1032F0001870072098609DF8040010F0800F0BD024
:103300009868401E98609DF80400400001909DF868
:10331000040010F0800FF3D19868032807D05020E4
:1033200080F31188BFF34F8FBFF36F8FFEE74FF429
:1033300040709860029808700A48016841F4700172
:103340000160016841F070410160FFF795FD0020C8
:103350005860FCF72FFF03B0002000BD00E400E040
:103360009C00002020ED00E010B5502080F3118873
:10337000BFF34F8FBFF36F8F00F000FB18B104490C
:103380004FF080500860002080F3118810BD0000CD
:1033900004ED00E038B5049D002804D05BB102B113
:1033A00089B1C2B120E0502080F31188BFF34F8F64
:1033B000BFF36F8FFEE7502080F31188BFF34F8F6C
:1033C000BFF36F8FFEE7502080F31188BFF34F8F5C
:1033D000BFF36F8FFEE739B1502080F31188BFF340
:1033E0004F8FBFF36F8FFEE74FF0500CCDF800C04A
:1033F0001C46012384F846302B460094FFF7C4F89E
:10340000204638BD70B504460D46002C25D0FFF788
:10341000CFFC226CE16B206801FB020060600020A1
:10342000A0632068A060E16B226C2068491E01FB4C
:103430000200E0604FF0FF3084F8440084F845005B
:103440009DB104F11000FFF77EFC04F12400FFF7AA
:103450007AFCFFF7CDFC012070BD502080F311886D
:10346000BFF34F8FBFF36F8FFEE720690028F0D0C6
:1034700004F1100000F028FB0028EAD004494FF0C6
:1034800080500860BFF34F8FBFF36F8FE1E70000FC
:1034900004ED00E02DE9FF4782B004468A461F464E
:1034A0000025002C03D0BAF1000F08D011E0502005
:1034B00080F31188BFF34F8FBFF36F8FFEE7206C4F
:1034C00038B1502080F31188BFF34F8FBFF36F8F57
:1034D000FEE7022F0AD1E06B012807D0502080F3CD
:1034E0001188BFF34F8FBFF36F8FFEE700F032FA02
:1034F00048B9049838B1502080F31188BFF34F8F3A
:10350000BFF36F8FFEE700264FF08058DFF8F09092
:10351000FFF74EFCA06BE16B884205D3022F03D06E
:10352000049808B335B329E03A4651462046FEF7E1
:1035300083FF616A59B104F1240000F0C5FA68B153
:10354000C9F80080BFF34F8FBFF36F8F06E028B13B
:10355000C9F80080BFF34F8FBFF36F8FFFF748FCB0
:1035600006B00120BDE8F087FFF742FC06B000205E
:10357000BDE8F0876846FFF7C1FD0125FFF738FC7D
:10358000FFF74CFEFFF714FC94F94400B0F1FF3F45
:1035900001D184F8446094F94500B0F1FF3F01D1B6
:1035A00084F84560FFF724FC04A9684600F02CF974
:1035B00040B12046FFF770FA00F0C2FA06B00020D2
:1035C000BDE8F0872046FFF7C8F890B104F110007D
:1035D0000499FFF7A1FD2046FFF75EFA00F0B0FA6C
:1035E000002895D1C9F80080BFF34F8FBFF36F8FCC
:1035F0008EE72046FFF750FA00F0A2FA88E70000B5
:1036000004ED00E02DE9F0470446894617461E46C2
:10361000002C03D0B9F1000F08D011E0502080F346
:103620001188BFF34F8FBFF36F8FFEE7206C38B167
:10363000502080F31188BFF34F8FBFF36F8FFEE7E9
:10364000022E0AD1E06B012807D0502080F31188A8
:10365000BFF34F8FBFF36F8FFEE7FFF71FFC5020C4
:10366000EFF3118880F31188BFF34F8FBFF36F8F93
:10367000A06BE16B884206D3022E04D0002088F3B1
:103680001188BDE8F08794F94550324649462046F6
:10369000FEF7D2FEB5F1FF3F04D0681C84F8450068
:1036A0000120ECE7606A0028FAD004F1240000F061
:1036B0000BFA0028F4D0002FF2D001203860EFE799
:1036C0002DE9F74783B004468A460025002C03D035
:1036D000BAF1000F08D011E0502080F31188BFF339
:1036E0004F8FBFF36F8FFEE7206C38B1502080F30F
:1036F0001188BFF34F8FBFF36F8FFEE700F02AF9F9
:1037000048B9059838B1502080F31188BFF34F8F26
:10371000BFF36F8FFEE700274FF08058DFF8E4908B
:10372000FFF746FBA66BC6B151462046FEF772FE78
:10373000701EA063206950B104F1100000F0C4F9BC
:1037400028B1C9F80080BFF34F8FBFF36F8FFFF729
:103750004FFB06B00120BDE8F087059808B135B1F0
:1037600009E0FFF745FB06B00020BDE8F08768469A
:10377000FFF7C4FC0125FFF73BFBFFF74FFDFFF709
:1037800017FB94F94400B0F1FF3F01D184F8447075
:1037900094F94500B0F1FF3F01D184F84570FFF77F
:1037A00027FB05A9684600F02FF868B12046FFF70F
:1037B00073F900F0C5F92046FEF7C2FF0028AFD02C
:1037C00006B00020BDE8F0872046FEF7B9FF90B1B3
:1037D00004F124000599FFF79FFC2046FFF75CF9F0
:1037E00000F0AEF900289BD1C9F80080BFF34F8FDD
:1037F000BFF36F8F94E72046FFF74EF900F0A0F972
:103800008EE7000004ED00E070B505460C46002D83
:1038100015D0E4B1FFF7CCFADFF868C0DCF814008B
:103820006B68C11A2268B2F1FF3F18D02E68DCF82D
:1038300028C0664515D0834213D801241DE05020CE
:1038400080F31188BFF34F8FBFF36F8FFEE75020D7
:1038500080F31188BFF34F8FBFF36F8FFEE7002413
:103860000BE08A4206D9501A20602846FFF746FC32
:10387000002402E0002020600124FFF7B9FA20466E
:1038800070BD0000280000202DE9F04F85B0814672
:103890000F9F0E9E8A4690469B464FEA8800FFF790
:1038A00043F9054628000AD06020FFF73DF9044699
:1038B0000CB1256304E02846FFF7B0FA00E00024CD
:1038C0009CB1002084F85D0003905B46424651465F
:1038D0000197009602944846FEF767FE2046FEF7E1
:1038E00007FD05B00120BDE8F08F05B04FF0FF30B7
:1038F000BDE8F08F70B586B00646DDF828C00C9C98
:103900000B98002816D0ECB16025049520630220A6
:1039100084F85D00002005AD0390CDF800C001954E
:1039200002943046FEF741FE2046FEF7E1FC059882
:1039300006B070BD502080F31188BFF34F8FBFF3E6
:103940006F8FFEE7502080F31188BFF34F8FBFF3D6
:103950006F8FFEE70548C169002903D0806B18B15D
:103960000020704701207047022070472800002087
:103970000148406970470000280000202DE9F0410F
:1039800000262F4FB86B002808D0386A401C3862D8
:10399000786A00B101263046BDE8F0817869451C9F
:1039A0007D619DB97868006838B1502080F3118836
:1039B000BFF34F8FBFF36F8FFEE77868B968796008
:1039C000B860B86A401CB862FEF7D6FF386BDFF803
:1039D000748085420DD37868006838B17868C06813
:1039E000C468606885420ED2386302E04FF0FF3051
:1039F00038633868C06A00EB800058F8200001285E
:103A0000C6D90126C4E7201DFFF71AF9A06A18B12C
:103A100004F11800FFF714F9E16AB869814200D98E
:103A2000B96101EB810008EB8000211DFFF7B4F9BB
:103A3000E06A3968C96A8842CDD30126CBE7000025
:103A4000280000200C06002070B504460021002844
:103A500033D01B4D2868844207D0502080F3118852
:103A6000BFF34F8FBFF36F8FFEE7206D38B1401E5D
:103A70002065E36CE26A9A421FD040B11DE05020FD
:103A800080F31188BFF34F8FBFF36F8FFEE7201DC8
:103A9000FFF7D6F8E06CE062C0F13800A061E06AA0
:103AA000A969884200D9A861064900EB800001EBB2
:103AB0008000211DFFF770F90121084670BD00004C
:103AC000280000200C06002070B5C068C468002CD7
:103AD00014D004F11800FFF7B3F8164DA86BA8B185
:103AE00004F118011448FFF757F9E06A2968C96A18
:103AF00088421CD901200121696270BD502080F3E9
:103B00001188BFF34F8FBFF36F8FFEE7201DFFF7C4
:103B100097F8E06AA969884200D9A861074900EBD3
:103B2000800001EB8000211DFFF736F9DDE7002062
:103B300070BD000028000020940A00200C06002020
:103B40002DE9F047002400272D4DA86B002807D051
:103B5000FFF72EF9A86B401EA863A86B40B149E09F
:103B6000502080F31188BFF34F8FBFF36F8FFEE7B4
:103B7000286900283ED0234E30684FF0010800B37A
:103B8000A6F59169F068C46804F11800FFF758F8C9
:103B9000201DFFF755F8E06AA969884200D9A8619D
:103BA00000EB800009EB8000211DFFF7F5F8E06ACB
:103BB0002968C96A884201D3C5F824803068002882
:103BC000E0D10CB1FEF7D8FE2C6A4CB1FFF7D6FE5F
:103BD00008B1C5F82480641E002CF7D100202862AB
:103BE000686A38B10127084938070860BFF34F8F6A
:103BF000BFF36F8FFFF7FCF83846BDE8F087000091
:103C000028000020940A002004ED00E030B587B0C1
:103C10000024FEF7B1FB134DA868B0B10020069058
:103C2000059004AA05A906A8FFF780F8059906984B
:103C3000022200920191029000230BA10C48049AE9
:103C4000FFF758FEE86000B1012414B107B0204628
:103C500030BD502080F31188BFF34F8FBFF36F8FBB
:103C6000FEE700006C000020546D72205376630064
:103C7000852A0008F0B585B084460A9D16461F4681
:103C80000022BCF1000F14D0164CA06800B30091C4
:103C90000196CDF808C006291BDAFFF75BFE022863
:103CA0000FD000231A466946A068FFF7F3FB0246CF
:103CB00015E0502080F31188BFF34F8FBFF36F8F53
:103CC000FEE700232A466946A068FFF7E3FB0246A9
:103CD00005E000233A466946FFF794FC024605B02A
:103CE0001046F0BD6C000020843D0008B03D000887
:103CF00000000000000000000000000000000000C4
:103D00000002000028000000000000000000000089
:103D1000A43D0008000000000000000000000000BA
:103D20000000000000020000080000000000000089
:103D300000000000983D00080000000000000000A6
:103D40000000000000000000000200000900000068
:103D50000000000000000000010202030405060745
:103D600008090A0B0C0D0E0F1010000000000000D7
:103D70000000010203040607080900000000010218
:103D8000030400003031323334353637383961625C
:103D900063646566000000006D795461736B3033B5
:103DA000000000006D796C6F675461736B00000058
:103DB00064656661756C745461736B00DC3D00086A
:103DC00000000020A800000028010008843E000830
:103DD000A80000206024000044010008000000004A
:103DE00000000000000000000000000000000000D3
:103DF00000000000010000001000000000000000B2
:103E00000024F4000000000000000000000000009A
:103E100000000000000000000000000000000000A2
:103E20000000000000000000000000000000000092
:103E30000000000000000000000000000000000082
:103E40000000000000000000000000000000000072
:103E50000000000000000000000000000000000062
:103E60000000000000000000000000000000000052
:103E7000000000000000000000000000AAAAAAAA9A
:043E8000000000003E
:04000005080000ED02
:00000001FF
