:020000040800F2
:100000000825002029020008AB1600080315000887
:10001000A9160008EF060008F51B00080000000004
:100020000000000000000000000000009101000836
:10003000F106000800000000D5010008D9160008EC
:10004000430200084302000843020008430200087C
:10005000430200084302000843020008430200086C
:10006000430200084302000843020008430200085C
:10007000430200084302000843020008430200084C
:10008000430200084302000843020008430200083C
:10009000430200084302000843020008430200082C
:1000A000430200084302000843020008430200081C
:1000B000511700085D1700084302000843020008BA
:1000C00043020008430200084302000843020008FC
:1000D00043020008430200084302000843020008EC
:1000E00043020008430200084302000800F002F83F
:1000F00000F03FF80AA090E8000C82448344AAF183
:100100000107DA4501D100F034F8AFF2090EBAE880
:100110000F0013F0010F18BFFB1A43F0010318473B
:10012000CC390000EC390000103A24BF78C878C1FF
:10013000FAD8520724BF30C830C144BF04680C60ED
:10014000704700000023002400250026103A28BF35
:1001500078C1FBD8520728BF30C148BF0B60704739
:10016000752900F0C980002070471FB51FBD10B56C
:1001700010BD00F082FA1146FFF7F7FF01F006FE0E
:1001800000F0A0FA03B4FFF7F2FF03BC00F0A8FAF6
:10019000224B19680868B0E8F00F80F30988BFF3B4
:1001A0006F8F4FF0000080F311884EF00D0E7047F6
:1001B0000000000006480068006880F3088862B606
:1001C00061B6BFF34F8FBFF36F8F00DF00BF00BF7B
:1001D00008ED00E0EFF30980BFF36F8F0F4B1A6853
:1001E00020E9F00F106008B54FF0500080F311883F
:1001F000BFF34F8FBFF36F8F02F0B0FE4FF00000E0
:1002000080F31188BDE8084019680868B0E8F00F6D
:1002100080F30988BFF36F8F704700BF280000206C
:10022000EFF3058070470000094880470948004700
:10023000FEE7FEE7FEE7FEE7FEE7FEE7FEE7FEE796
:10024000FEE7FEE704480549054A064B70470000F3
:100250004F170008ED000008081F002008250020A7
:1002600008210020082100200FB41CB5074B06AA66
:100270007B4469460090059800F093F90020694698
:1002800000F0A2F91CBC5DF814FB0000550300004F
:100290002DE9F0410E460446002020622046E16828
:1002A000884730B3252805D0D4E901219047206A3A
:1002B000401CF2E7E168204600278847050018D077
:1002C000A5F14100192802D820354FF400673246C5
:1002D000294620462760FFF743FF40B1012804D09C
:1002E000F61D26F007060836D8E7361DD6E728465D
:1002F000DAE7206ABDE8F0812DE9F04106460024E6
:1003000010687529314616A510D0AFF3008000287B
:1003100002DA404213A507E031688A0701D512A529
:1003200002E0490704D511A5012401E0AFF30080E4
:1003300000210A2206F1240709E0B0FBF2FCB0FB21
:10034000F2F302FB1C00303078541846491C002898
:10035000F3D123462A463046BDE8F04100F0C2B84A
:10036000000000002D0000002B0000002000000015
:1003700040EA0103024630B59B0710D14FF001342B
:1003800000E008C208C91D1B9D4315EAC41FF8D030
:1003900013F0FF0102F8011B0DD01B0AF8E711F85A
:1003A000013B002B02F8013B05D011F8013B002B6B
:1003B00002F8013BF3D130BD10B5431C02E010F848
:1003C000011B71B18107FAD14FF0013202C88C1ABA
:1003D0008C4314EAC211F9D0C01A0A0603D0C01E19
:1003E00010BDC01A10BD0A0401D0801E10BD090244
:1003F000FCD0401E10BD032A40F2308010F0030CE8
:1004000000F0158011F8013BBCF1020F624498BF67
:1004100011F801CB00F8013B38BF11F8013BA2F104
:10042000040298BF00F801CB38BF00F8013B11F07F
:10043000030300F0CE80083AC0F0088051F8043B76
:10044000083A51F804CBA0E80810F5E7121D5CBF8C
:1004500051F8043B40F8043BAFF30080D20724BFBF
:1004600011F8013B11F801CB48BF11F8012B24BF53
:1004700000F8013B00F801CB48BF00F8012B7047A2
:1004800002F0FF0343EA032242EA024200F0D5B839
:100490004FF0000200B5134694469646203922BF1D
:1004A000A0E80C50A0E80C50B1F12001BFF4F7AF68
:1004B000090728BFA0E80C5048BF0CC05DF804EB4A
:1004C000890028BF40F8042B08BF704748BF20F8B8
:1004D000022B11F0804F18BF00F8012B70477047B6
:1004E000704770472DE9F0470D46994692460446FD
:1004F00000F124080168880604D5E06921F01001A4
:10050000216000E00120A84201DD471B00E0002738
:10051000A1697A1902EB0900081AA0612078C006C7
:1005200002D42046AFF30080002608E0D4E9012180
:100530001AF806009047206A401C761C20624E453F
:10054000F4DB2078C0060AD52046AFF3008006E031
:10055000D4E9012130209047206A401C2062381ED7
:10056000A7F10107F4DC07E0D4E9012118F8050040
:100570009047206A401C2062281EA5F10105F3DC8B
:100580002046AFF300802078000602D50220BDE8A7
:10059000F0870120FBE7000001694A1C026108782E
:1005A000704700B58FB0CDE90131002105910549B3
:1005B0007944CDE9031011466846FFF769FE0FB094
:1005C00000BD0000E5FFFFFF0A6802F8010B0A60AA
:1005D000704710B5203AC0F00B80B1E81850203AAF
:1005E000A0E81850B1E81850A0E81850BFF4F5AFD3
:1005F0005FEA027C24BFB1E81850A0E8185044BF5D
:1006000018C918C0BDE810405FEA827C24BF51F8C9
:10061000043B40F8043B08BF7047D20728BF31F8BD
:10062000023B48BF11F8012B28BF20F8023B48BF0E
:1006300000F8012B70474FF000020429C0F012802F
:1006400010F0030C3FF426AFCCF1040CBCF1020F08
:1006500018BF00F8012BA8BF20F8022BA1EB0C015A
:10066000FFF718BF5FEAC17C24BF00F8012B00F838
:10067000012B48BF00F8012B7047754600F02CF89D
:10068000AE4605006946534620F00700854618B07F
:1006900020B5FFF7D7FDBDE820404FF000064FF032
:1006A00000074FF000084FF0000B21F00701AC46A7
:1006B000ACE8C009ACE8C009ACE8C009ACE8C009C6
:1006C0008D46704710B50446AFF300802046BDE864
:1006D0001040FFF757BD000000487047A81E0020DB
:1006E00001491820ABBEFEE7260002007047FEE776
:1006F000704700002DE9F84FDFF8B8910024A9F108
:10070000040B23460F2709F1040AABF1040EC9E0DC
:100710000125A5402A40AA427DD1674ED1F804C0E8
:10072000ACEB0608B44532D014DCBCF1030F3AD070
:1007300009DCBCF1000F2AD0BCF1010F1CD0BCF1C8
:10074000020F31D11DE0BCF1110F17D0BCF1120F17
:100750002AD119E0B8F5881F19D006DCB8F5803F1A
:1007600015D0B8F5801F1FD111E0B8F5001F0ED0CD
:10077000B8F5041F18D10AE0CB6815E0CB681B1D43
:1007800012E0CB6808330FE0CB680C330CE08B68C9
:100790002BB1012B4FF0080303D0456104E0042383
:1007A00002E0056100E00023FF2A01D8064601E0CF
:1007B00000F104064FEA840501D9A5F12005D6F819
:1007C000008007FA05FC28EA0C0803FA05F548EA58
:1007D0000508C6F800804D68ED0062D5374DAE695A
:1007E00046F00106AE61AD6924F0030605F001058F
:1007F0000095334D06EB050CDCF80850A607360FC4
:1008000007FA06F825EA0805DFF8B880404503D165
:100810004FF0000817E044E0DFF8AC80404502D11B
:100820004FF001080FE0DFF8A480404502D14FF0FF
:10083000020808E0DFF89880404502D14FF0030835
:1008400001E04FF0040808FA06F848EA0508CCF879
:1008500008804D68D9F80060ED024D4601D5164379
:1008600000E096432E604D68DAF80060AD02554610
:1008700001D5164300E096432E604D68DBF800601A
:10088000AD035D4601D5164300E096432E604D68EA
:10089000DEF80060ED03754601D5164300E096438F
:1008A0002E60641C0D682A46E5407FF431AFBDE838
:1008B000F88F0000080401400000111000100240F1
:1008C0000000014000080140000C01400010014000
:1008D000001401400AB1016170470904FBE7000000
:1008E00001488068704700001800002002488168B5
:1008F000027811448160704718000020074810B545
:10090000016841F010010160032000F07BF80F2026
:1009100000F006F800F024F8002010BD002002408E
:1009200070B50D4D04464FF47A712878B1FBF0F0A4
:100930000A490968B1FBF0F000F0E2FA48B9102C5E
:1009400007D200222146501E00F03CF800206C60C7
:1009500070BD012070BD00001800002024000020A0
:100960000F4808B5816941F001018161816901F099
:1009700001010091C16941F08051C161C06900224B
:1009800000F0805000900F21901E00F01BF80548E9
:10099000416821F0E06141F00071416008BD000054
:1009A0000010024000000140002809DB00F01F0297
:1009B000012191404009800000F1E020C0F80011C1
:1009C00070470000F0B40E4B1B680C46C3F30223C3
:1009D000C3F10705042D00D90425191D072901D2EB
:1009E000002300E0DB1E012606FA05F1491E214026
:1009F00099409E40761E16403143F0BC01F0FBB892
:100A00000CED00E0064900F0070208684FF6FF030E
:100A1000184040EA0220034A104308607047000073
:100A20000CED00E00000FA052DE9F0470F46050047
:100A300061D0434E306800F00700B84209D23068F8
:100A400020F0070038433060306800F00700B842FB
:100A500051D128683B4C810712D5400703D5606807
:100A600040F4E06060602878000703D5606840F4D7
:100A7000605060606068A96820F0F0000843606022
:100A80002878C00728D06868012810D0216802287B
:100A900010D0890700292EDA616821F00301014393
:100AA0006160FFF71DFF804641F288390DE0216843
:100AB0008903EFE78901EDE7FFF712FFA0EB0801DB
:100AC000494502D90320BDE8F0876068696800F0F5
:100AD0000C00B0EB810FEFD1306800F00700B84296
:100AE0000BD9306820F0070038433060306800F0E0
:100AF0000700B84201D00120E5E72878400705D576
:100B00006068E96820F4E0600843606028780007C6
:100B100006D56068296920F4605040EAC100606031
:100B200000F038F86168084AC1F30311515CC8400D
:100B30000649086006480068FFF7F2FE0020C2E799
:100B400000200240001002409A3A000824000020D1
:100B50001C0000200448054900684968044AC1F3A4
:100B60000221515CC8407047240000200010024060
:100B7000AA3A00080448054900684968044AC1F3D4
:100B8000C221515CC8407047240000200010024080
:100B9000AA3A00080E4A51680E4801F00C03042BD3
:100BA00011D0082B0FD10C48C1F38343C903C05C9B
:100BB0000AD55168084AC1F34041921E515C054A6A
:100BC0005043B0FBF1F070470449484370470000C0
:100BD0000010024000127A008A3A000800093D0025
:100BE0002DE9F84F040070D02078C04DC00749D0DF
:100BF0006868C0F38100012807D06868C0F38100ED
:100C0000022809D16868C00306D52868800339D551
:100C100060680028E7D035E06068B0F5803F0BD011
:100C200010B1B0F5A02F11D0286820F480302860D2
:100C3000286820F4802002E0286840F48030286092
:100C4000606890B1FFF74CFE06460AE0286840F461
:100C500080202860F0E700BFFFF742FE801B642879
:100C600073D828688003F7D50CE0FFF739FE0646F5
:100C700005E000BFFFF734FE801B6428F0D8286829
:100C80008003F7D420789A4E80074FF001094FF087
:100C9000000839D5686810F00C0F07D06868C0F3F9
:100CA0008100022809D16868C00306D4286880073B
:100CB00014D52069012808D110E02069B0B1C6F828
:100CC0000090FFF70DFE074605E00AE1FFF708FE7A
:100CD000C01B0228C4D828688007F7D52868616936
:100CE00020F0F80040EAC10028600DE0C6F800805E
:100CF000FFF7F6FD074604E0FFF7F2FDC01B0228F0
:100D000023D828688007F7D4207800072CD57948A5
:100D1000A169D9B1C0F80090FFF7E2FD074604E0F1
:100D2000FFF7DEFDC01B02280FD8686A8007F7D5E1
:100D300071484FF4FA510068B0FBF1F0009000BF29
:100D40000098411E0091FAD20EE080E0C0F80080C9
:100D5000FFF7C6FD074604E0FFF7C2FDC01B0228EF
:100D600075D8686A8007F7D42078400760D5E869AD
:100D70000027C00008D4E86940F08050E861E869C5
:100D8000012700F0805000905C480168C90513D429
:100D90000168834641F480710160FFF7A1FD82463E
:100DA00006E000BFFFF79CFDA0EB0A0064284ED8C8
:100DB000DBF80000C005F5D5E06801280AD008B1CD
:100DC000052813D0286A20F001002862286A20F044
:100DD000040002E0286A40F001002862E06841F265
:100DE000883B98B1FFF77CFD82460BE0286A40F013
:100DF00004002862EEE700BFFFF772FDA0EB0A01D6
:100E000059455AD8286A8007F6D50CE0FFF768FDE7
:100E1000824605E0FFF764FDA0EB0A0159454CD876
:100E2000286A8007F6D41FB1E86920F08050E86195
:100E3000E06988B36968C1F38101022944D00228BE
:100E4000C6F8608004D0FFF74BFD044638E034E07C
:100E5000FFF746FD074604E0FFF742FDC01B0228EE
:100E60002BD828688001F7D4206AB0F5803F05D1DF
:100E70006868A16820F4003008436860D4E908017C
:100E80000843696821F4741108436860C6F86090EB
:100E9000FFF726FD044606E025E000BFFFF720FD32
:100EA000001B022809D828688001F7D51BE000BF85
:100EB000FFF716FD001B022802D90320BDE8F88FBA
:100EC00028688001F4D40EE00128F7D06868226A0F
:100ED00000F48031914204D1616A00F470108842BC
:100EE00001D00120EAE70020E8E7000000100240FE
:100EF0000000424280044242240000200070004072
:100F000010B5401EB0F1807F01D3012010BD4FF01D
:100F1000E02460610F21601700F06DFE0020A061E9
:100F200007202061002010BD7047704770B590F811
:100F30003C20012A26D0012480F83C40022280F87F
:100F40003D2003685A689D6822F070060A683243A3
:100F50005A600D4B02689A4208D0B2F1804F05D01A
:100F60000A4B9A4202D00A4B9A4204D1496825F0B2
:100F700080031943916080F83D40002180F83C10C7
:100F8000084670BD022070BD002C014000040040E6
:100F90000008004010B5040003D094F83D0010B1E3
:100FA00007E0012010BD002084F83C00204600F03E
:100FB0001FF8022084F83D00211D206800F0D4FBBA
:100FC000012084F8460084F83E0084F83F0084F84D
:100FD000400084F8410084F8420084F8430084F81B
:100FE000440084F8450084F83D00002010BD000056
:100FF00008B51A4A01681A48914208D1816941F43A
:1010000000618161806900F40060009008BDB1F169
:10101000804F14D0134A9142F8D1C16941F00201C6
:10102000C161C069002200F00200009005211D206E
:10103000FFF7C8FC1D20BDE80840FFF7B5BCC1693B
:1010400041F00101C161C069002200F0010000907F
:1010500005211C20FFF7B6FC1C20ECE7002C01400A
:10106000001002400004004090F83D10012901D01A
:1010700001207047022180F83D100168CA6842F0E3
:101080000102CA6000680B49884208D0B0F1804F65
:1010900005D00949884202D00849884204D18168B4
:1010A00001F00701062903D0016841F00101016048
:1010B00000207047002C0140000400400008004060
:1010C00070B5044690F83C000025012817D0012691
:1010D00084F83C60022084F83D002068826822F099
:1010E000770222F47F4282600868502838D00DDCF5
:1010F00020284FD005DC90B3102811D14AE00220FF
:1011000070BD302846D040280AD13BE060282FD05F
:1011100070280DD0B0F5805F03D0B0F5005F12D01D
:10112000012584F83D60002084F83C00284670BD0D
:10113000CB68D1E90121206800F04CFB2068816870
:1011400041F0770109E0CB68D1E90121206800F086
:1011500041FB2068816841F480418160E1E719E04A
:10116000CA684968206800F08DFB5021206806E0BD
:10117000CA684968206800F096FB6021206800F08A
:1011800033FBCEE7CA684968206800F07BFB40214A
:101190002068F4E7226801461046F0E7704770B512
:1011A0000446006801694FF00005C943890715D45A
:1011B000C168C943890711D4E91E01610120207764
:1011C000206880698007204602D0FFF7E7FF04E02F
:1011D00000F098F8204600F096F82577206801691D
:1011E000C943490717D4C168C943490713D46FF0ED
:1011F00004010161022020772068806910F4407F9B
:10120000204602D0FFF7CAFF04E000F07BF820463A
:1012100000F079F8257720680169C943090716D4D9
:10122000C168C943090712D46FF0080101610420A5
:1012300020772068C0698007204602D0FFF7AEFF04
:1012400004E000F05FF8204600F05DF825772068A4
:101250000169C943C90617D4C168C943C90613D473
:101260006FF010010161082020772068C06910F438
:10127000407F204602D0FFF791FF04E000F042F8E3
:10128000204600F040F8257720680169C943C90766
:1012900008D1C168C943C90704D1891E016120462C
:1012A00000F032F820680169C943090609D4C16811
:1012B000C943090605D46FF0800101612046FFF79C
:1012C00033FE20680169C943490609D4C168C9438E
:1012D000490605D46FF040010161204600F059F83D
:1012E00020680169C94389060BD4C168C9438906CE
:1012F00007D46FF0200101612046BDE87040FFF780
:1013000014BE70BD7047704701680948814206D01D
:10131000084A0948914203D10168491C016070479D
:10132000B1F1804FFBD14168491C4160704700001A
:10133000002C0140000400400400002070B5044669
:1013400090F83C00012812D0012584F83C5002207E
:1013500084F83D00204600F04FFA01004FF00000F5
:1013600007D084F83D5084F83C00012070BD022075
:1013700070BD2168CA6822F04002CA602168CA684C
:1013800022F48042CA6084F83D5084F83C0000207A
:1013900070BD704770B5040004D094F8410000257A
:1013A00010B106E0012070BD84F84050204600F0E6
:1013B00023F8242084F841002068C16821F40051FA
:1013C000C160204600F082FA2068016921F4904152
:1013D00001612068416921F02A0141612068C168EA
:1013E00041F40051C1606564202084F8410084F814
:1013F00042006563002070BD30B585B000240094C4
:1014000001940294039400681449884224D114483A
:10141000816941F480418161816901F480410491D5
:10142000816941F00401816180690E4D00F0040082
:1014300004904FF40070009002200190032003906C
:1014400069462846FFF756F92815CDE90004694694
:1014500028460294FFF74EF905B030BD0038014030
:1014600000100240000801402DE9F843044690F8BE
:1014700041001F4616460D46202802D00220BDE836
:10148000F8837DB176B100206064212084F84100AA
:10149000FFF726FAA6848046E684A068B0F5805F50
:1014A00002D003E00120EAE7206910B12E460025B2
:1014B0000EE000260CE08021204600F063FAA0B97F
:1014C000AEB116F8010B21684860E08C401EE08444
:1014D000E08C43464FF0000200970028EBD14FF01C
:1014E0004001204600F04EFA30B10320C7E735F83E
:1014F000020BC0F30800E6E7202084F8410000203A
:10150000BDE7FEE770B586B000241848009401944A
:1015100002940394816941F010018161816901F0B5
:1015200010010491816941F020018161816901F01C
:1015300020010491816941F00401816180690C4EB0
:1015400000F004004FF40055049000222946304674
:10155000FFF7C0F901200095CDE9010402200390B6
:1015600069463046FFF7C6F806B070BD001002406D
:101570000010014010B588B014216846FEF788FFBE
:1015800000241548059413490694C0E900144FF649
:10159000FF71C0E90241046144618461FFF7FAFC14
:1015A00008B172B6FEE70620CDE9000469460A4894
:1015B000FFF7C4FE08B172B6FEE7059405A9064818
:1015C0000694FFF7B3FC002801D072B6FEE708B01E
:1015D00010BD0000002C0140AC04002010B586B006
:1015E00000241648009401940294039404944FF04C
:1015F0008041059401604721C0E901143121C0E90F
:10160000031480218161FFF7C5FC08B172B6FEE7C3
:101610004FF48050009069460848FFF751FD08B12B
:1016200072B6FEE7049404A904480594FFF77EFC13
:10163000002801D072B6FEE706B010BDF404002009
:1016400010B586B0002417480094019402940394C6
:1016500004941349059401604721C0E9011440F244
:10166000E731C0E9031480218161FFF793FC08B1E1
:1016700072B6FEE74FF48050009069460948FFF7C4
:101680001FFD08B172B6FEE7049404A9054805944D
:10169000FFF74CFC002801D072B6FEE706B010BD83
:1016A000000400403C050020FEE7FEE740F6FF7422
:1016B00000200021491CFF29FCD3401CA042F8D384
:1016C000642000F0B5FBF3E74FF4FA7400F038FB48
:1016D000204600F0ADFBF9E710B5FFF707F901F080
:1016E000D1FF012803D0BDE8104001F0D5BC10BDEA
:1016F00030B58FB028216846FEF7CAFE14210AA82B
:10170000FEF7C6FE01210804CDE900100024029472
:1017100002250491CDE907504FF4E0100990684686
:10172000FFF75EFA08B172B6FEE70F20CDE90A05B1
:101730004FF48060CDE90C4002210AA80E94FFF717
:1017400073F9002801D072B6FEE70FB030BD7047C4
:101750000148FFF724BD0000F40400200148FFF712
:101760001EBD00003C050020F0B50268164B174C6A
:10177000174D4FF08047984205D0B84203D0A042A1
:1017800001D0A84203D122F070064A683243984241
:1017900005D0B84203D0A04201D0A84203D122F420
:1017A0004074CA6822434C6922F0800222430260DE
:1017B0008A68C2620A688262984201D1096901633B
:1017C00001214161F0BD0000002C014000040040F7
:1017D0000008004010B5846842EA032224F47F44E4
:1017E0000A432243826010BD826822F070020A43DD
:1017F00042F007018160704770B5036800249A6861
:1018000022F070054A682A4322F007050A682A4335
:101810009A604A6812F00F0F31D11211082A2ED2A5
:10182000DFE802F02E2E2E2E0B2127040B69D1E9C2
:1018300002210068FFF7CEFF22E00A68052A10D0D7
:101840000268136A156A25F0010515620268956938
:10185000096925F0F00545EA01119161006803620C
:101860000EE0012070BD0A698968006800F00AF87E
:1018700006E00A698968006800F015F800E00124B4
:10188000204670BD10B5036A046A24F001040462A6
:10189000846924F0F00444EA021423F00A020A43A3
:1018A0008461026210BD10B5036A046A24F010045A
:1018B0000462846923F0A00324F4704444EA0232F1
:1018C00043EA01118261016210BD000070B5044657
:1018D00000680169E26821F4405111430161216906
:1018E000A0680843616908432168CA6841F20C6333
:1018F0009A430243CA6020684169A26921F4407199
:10190000114341611E492068884202D1FFF732F934
:1019100001E0FFF71FF900EBC00101EB0012606866
:1019200064218000B2FBF0F3B3FBF1F36FF0180613
:101930007343B2FBF0F5B2FBF0F605EB83053223FF
:1019400003EB0515B5FBF1F5B6FBF1F605F0F00577
:1019500005EB0615B2FBF0F6B2FBF0F0B0FBF1F0D0
:101960006FF01802504306EB800003EB0010B0FB51
:10197000F1F0216800F00F002844886070BD00007D
:10198000003801402DE9F041984617460E460446BE
:10199000069D27E0681C25D02DB1FEF7A1FFA0EB26
:1019A0000800A8421ED920680C3050E8001F21F41E
:1019B000D07140E80012002AF5D12068143050E8B8
:1019C000001F21F0010140E80012002AF5D120207B
:1019D00084F8410084F84200002084F8400003208D
:1019E000BDE8F0812068006836EA000004D00020DD
:1019F000B842CFD00020F3E70120F9E7F0B5064662
:101A0000DDE906700125059C01E06546641E05FBC5
:101A100002FCB44503D8BCFBF2FEAE45F5D04FF056
:101A20002D0C4BB14FFA87FE641EBEF1300F03D16F
:101A300000F801C00023491CA4F1020EBEF10E0FF4
:101A400004D2641E02D04754491CFAE713B100F8CF
:101A500001C0491C094B1B685DB1B6FBF5F4B4FB32
:101A6000F2F702FB1744B5FBF2F51C5D4454491C28
:101A7000F2E700F005F80020F0BD0000183A000879
:101A800030B50D460446002309E0E05C0A2802D187
:101A90000D2000F09BF8E05C00F098F85B1CAB4276
:101AA000F3D3184630BD00000FB42DE9F04188B0E3
:101AB0000FAD0DF110080E9C79E0002600E0761CB9
:101AC000A05D252801D00028F9D131462046FFF736
:101AD000D7FF34442078252869D1002620200AE049
:101AE00014F8011C302901D106B9302006EB86011B
:101AF00049003039561814F8012FA2F13001092994
:101B0000EED9D1B2702943D008DC25294AD0582912
:101B10003ED063290BD0642906D10DE073291ED075
:101B2000752931D0782933D0052125A03CE001CD9D
:101B30000390012103A837E004CD00210392002A7D
:101B400003DA52420123039200E00023CDE9006052
:101B50000A22CDF808800398FFF750FF26E001CD58
:101B6000002700E07F1CC15D0029FBD13946FFF74B
:101B700087FFBE421AD9F61B03E0012112A0FFF72E
:101B80007FFF761EF9D211E080CD00210A2202E00B
:101B900080CD00211022CDE90060CDE9028700232D
:101BA0003846D9E70121601EFFF76AFF641C2078E0
:101BB000002882D108B0BDE8F0015DF814FB0000F8
:101BC0004552524F52000000200000000849B1F871
:101BD00000248854B1F80004401C80B2A1F800042D
:101BE000B0F5806F02D30020A1F800047047000018
:101BF000A8000020FEE70907090E002804DB00F119
:101C0000E02080F80014704700F00F0000F1E020A1
:101C100080F8141D7047704700260124184DDFF826
:101C20006490C0B04FF4005827024FF47A7A16A09F
:101C30006968FFF739FF2868811B16A0FFF734FF9A
:101C40002246414648462E68FEF744FEB4B10024C1
:101C500039466846FEF71CFC13A0FFF725FF3946FE
:101C60006846FEF715FC684601F078F8694615A04D
:101C7000FFF71AFF504600F0DBF8D8E70124E7E74A
:101C8000040000200010014074696D657232202547
:101C9000640D0A0068656C6C6F20776F726C64204D
:101CA00025640D0A0000000023232323232323633C
:101CB00070756C6F616423232323232323230D0A70
:101CC000000000002573000070B50546002D05D00A
:101CD000154E3068854209D1002070BD502080F338
:101CE0001188BFF34F8FBFF36F8FFEE700F0F8FE50
:101CF0006C6900F015FF7068844202D0B0688442BD
:101D000001D1022070BD0948844205D1A86A08B1FA
:101D1000022070BD032070BD0548844202D00CB182
:101D2000012070BD042070BD28000020BC0A0020E6
:101D3000A80A002001484068704700000400002005
:101D4000F8B500258DF800500E4C0F4E4FF480670B
:101D500011E0215C8DF80010401CA4F80204FF2360
:101D6000012269463068FFF77FFBB4F80204B842ED
:101D700001D3A4F80254B4F80204B4F80014884261
:101D8000E7D1F8BDA800002000000020FEF7B6FD56
:101D9000FFF7AEFCFFF7B6FBFFF7ECFB1E481D4953
:101DA0000C2201604FF4E131416000218160C1608B
:101DB000C0E904128161C161FFF7ECFA08B172B6A3
:101DC000FEE7FFF73DFCFFF709FC00F04DF8134A72
:101DD0000021134800F084F8124C104A0021A06042
:101DE0002432114800F07CF80C4AE06048320021AF
:101DF0000E4800F075F8206107484838FFF734F9BD
:101E000005489038FFF730F9034800F0A9FD00F0CD
:101E100047F8FEE700380140840500201C3A00081E
:101E2000AD16000804000020C9160008191C00089F
:101E300010B50146EFF3058048B9EFF3108030B9D3
:101E400008480068022805D1EFF3118010B16FF047
:101E5000050404E0002411B1084600F01BFF2046F1
:101E600010BD000080000020EFF30580002809D19C
:101E7000EFF3108030B9094A1068022805D1EFF35A
:101E8000118111B16FF00500704710B14FF0FF30B4
:101E90007047012010600020704700008000002083
:101EA00010B5EFF30580002809D1EFF3108030B9A9
:101EB0000A4A1068022805D1EFF3118111B16FF0C1
:101EC000050010BD012802D04FF0FF3010BD0220E8
:101ED000106000F0F1FF002010BD00008000002025
:101EE0002DE9F04385B00B464FF000070397EFF361
:101EF000058100295DD1EFF31081002959D12F49C7
:101F00000968022903D1EFF31181002951D100287A
:101F10004FD080244FF0180C04970DF110094FF0AA
:101F2000FF3152B3166806B1B146956905B1AC46AA
:101F3000ACF10105382D03D2157915F0010F03D04E
:101F400005B00020BDE8F083556905B1AC08D2F8B2
:101F50000880B8F1000F07D0D668602E04D3166948
:101F600016B10DB1012109E0B8F1000F06D1D56815
:101F700025B9156915B9002100E00021012901D01A
:101F800061B116E09168126901920291CDF800C02A
:101F90002246494601F046FB03900AE003A901915D
:101FA000A2B2CDF800C0494601F006FB012800D0DE
:101FB0000397039805B0BDE8F0830000800000207F
:101FC0002DE9F04104460F46134E75693068001D37
:101FD00000F0CEFCB4F1FF3F07D137B13068BDE867
:101FE000F041011D0D4800F06FBD2C443068446085
:101FF000AC4206D23068011DB068BDE8F04100F087
:1020000048BD3068011D706800F043FD306B8442AC
:1020100000D23463BDE8F08128000020BC0A002013
:1020200070B5044600F05CFD1C4D2869401C286119
:10203000286810B1E86938B10CE02C6028690128E3
:1020400008D100F093F905E02868E16AC06A884287
:1020500000D82C60E86A401CE8626064E06AA96904
:10206000884200D9A8610E4900EB800001EB800096
:10207000211D00F029FD00F053FDE86900280CD077
:102080002868E16AC06A884207D206494FF080504A
:102090000860BFF34F8FBFF36F8F70BD2800002023
:1020A0000C06002004ED00E038B500F019FD0F4CDF
:1020B000A068B8B90E4800F0DEFC0E4800F0DBFC6A
:1020C0000B4820601430606000200B4B009003F13F
:1020D000500210210A2000F0F5FFA06010B107A106
:1020E00000F09EFDBDE8384000F01ABD6C000020F5
:1020F000D00A0020E40A0020F80A0020546D725132
:102100000000000070B50D4CE068002815D00C4EA2
:1021100000F0E6FCF068C568281D00F029FC206985
:10212000401E2061E068401EE06000F0F9FC284697
:1021300000F051F8E0680028EAD170BD28000020C6
:10214000A80A00200B46026C002A0CD0C16811447A
:10215000C160D0F804C0614501D30168C160C168A5
:102160001846FEF748B970472DE9F0410446164677
:102170000027A56B226C002A10D0C6B1E068FEF7DC
:102180003AF9E168206C091AE1602268914202D2B2
:102190006168081AE060022E16D017E02068A8B91E
:1021A000606801F0E9FA0746002060600EE0A06870
:1021B000FEF721F9216CA0680844A060616888429C
:1021C00004D32068A06001E005B16D1E681CA06307
:1021D0003846BDE8F08110B5044694F85D1000293A
:1021E0000BD0012911D0022914D0502080F311887E
:1021F000BFF34F8FBFF36F8FFEE7206B00F0A6FC9D
:102200002046BDE8104000F0A1BC2046BDE81040CB
:1022100000F09CBC10BD000007490A681168002945
:1022200004D00021016019B1002070470121F9E7B5
:10223000D0680068704700006C0000204FF44061D7
:10224000104810F0070F06D0C01D20F007000D4900
:10225000411AC1F540610C4A1060002353600144EB
:10226000083921F00701103A11604B600B600B1A1E
:10227000436001604068906050604FF00040D06063
:1022800070470000A812002094000020084E4FF074
:102290008054084DFFF736FF3068012804D92C60C0
:1022A000BFF34F8FBFF36F8F00F0E4FBF2E7000046
:1022B0000C06002004ED00E070B51D46049C0029CA
:1022C00009D02260E06321640121204600F032FF42
:1022D00084F84C5070BD2460F4E72DE9F05F82462D
:1022E0000B9F0A9D0C9C0E4690469B464FEA880128
:1022F000A522206BFEF7C4F8206BA8F1010100EBCA
:10230000810020F007094FF0000800202218315CFE
:1023100082F83410315C11B1401C1028F6D384F8D7
:102320004380382D00D33725E562E564C4F850803A
:10233000201D00F0ABFB04F1180000F0A7FB2461A6
:10234000C5F13800A0616462C4F85480C4F85880B4
:1023500084F85C805A465146484600F0EFFA206007
:10236000002F00D03C60BDE8F09F000070B5002455
:102370000F4D04EB840005EB800000F07CFB641C37
:10238000382CF6D30B4800F076FB0B4800F073FBBB
:102390000A4800F070FB0A4800F06DFB094800F0A5
:1023A0006AFB0948034941601431816070BD000037
:1023B0000C0600206C0A0020800A0020940A0020ED
:1023C000A80A0020BC0A00202800002010B41449EC
:1023D00000E011460A688242FBD34B6803EB010C14
:1023E000844503D140681844486008460C68D0F81A
:1023F00004C00CEB0003A3420CD10A4B1B689A42A9
:1024000006D05268624442600A681268026002E0C4
:10241000036000E00260814200D0086010BC704799
:10242000940000208400002010B500244160006169
:10243000DFF838C091420BD8D11A8269914201D39A
:10244000012410E0011DDCF8040000F022FB0AE08A
:102450009A4203D2994201D3012404E0011DDCF821
:10246000000000F016FB204610BD00006C000020AC
:1024700010B5044600F034FBA06B20B1002400F03E
:102480004FFB204610BD0124F9E710B5044600F0CB
:1024900027FBA06BE16B884201D1012400E00024FE
:1024A00000F03EFB204610BD2DE9F04780460C466B
:1024B000914600252068002823D06068406860604D
:1024C00004F10806B04201D1416861606068C768E4
:1024D0006068D0F804C0C4F804C0B44502D1DCF888
:1024E000041061606068D0F80CA005EBC50008EB33
:1024F00080014B460122504600F0F4FB6D1CBA45AA
:10250000E6D12846BDE8F087F8B505460E461448E2
:102510000068C068C468201D00F02AFAE06901283C
:1025200010D1A0692B46411932462046FFF77CFFA7
:1025300040B100200346014600902A46204601F0A3
:1025400031FA28B1616A01B02046BDE8F040084781
:10255000502080F31188BFF34F8FBFF36F8FFEE7DA
:102560006C00002030B587B0334D002202A9A86866
:1025700000F03EFF00285CD00298002803DA039A9E
:10258000059904989047029800284BDB049C6069E9
:1025900010B1201D00F0ECF901A800F097F80246F8
:1025A00002980A283ED2DFE800F00505053D2637EF
:1025B00005053D260398A169034601442046FFF71F
:1025C00033FF00B3616A20468847E069012829D1BA
:1025D000002000900398A169002342181946204664
:1025E00001F0E0F978B9502080F31188BFF34F8FE4
:1025F000BFF36F8FFEE70398A06128B181181346DF
:102600002046FFF711FF0DE0502080F31188BFF343
:102610004F8FBFF36F8FFEE794F82C0010B9204660
:1026200000F094FA002202A9A86800F0E1FE002858
:10263000A2D107B030BD00006C000020F8B50546FF
:102640000C4600F083FC684600F040F8064600980F
:1026500010B101F00DF9F8BD44B9B54206D801F04A
:1026600007F931462846FFF74FFFF8BD0C481CB16B
:102670004168096891B10024A91B2246806800F0D6
:10268000E3FA01F0F5F80028EFD106494FF0805049
:102690000860BFF34F8FBFF36F8FF8BD0124EBE7E6
:1026A0006C00002004ED00E007494868006800283D
:1026B00005D04868C068C0684068086370474FF03C
:1026C000FF300863704700002800002070B5044602
:1026D00000F0E6FF0546074E3069854204D200F05F
:1026E0000BF80120206001E00020206035612846C1
:1026F00070BD00006C000020F8B51B4E306800680B
:10270000002824D000273068C0680568C468201DF0
:1027100000F02EF9616A20468847E069012812D14D
:10272000A0692844A84206D960602461211D306850
:1027300000F0AFF907E000232A461946204600972B
:1027400001F030F940B1306800680028DBD1306812
:10275000716831607060F8BD502080F31188BFF35C
:102760004F8FBFF36F8FFEE76C00002000210278CF
:10277000A52A04D1401C491C0278A52AFAD0880851
:1027800080B270470A484068B0F1FF3F07D0502040
:1027900080F31188BFF34F8FBFF36F8FFEE7502098
:1027A00080F31188BFF34F8FBFF36F8FFEE70000F8
:1027B0009C00002082B001A8FFF72EFD0199FFF7D1
:1027C0003DFFFFF7CFFEF6E770B5044600F088F94D
:1027D00094F94550002D0CDD606A50B104F12400DD
:1027E00001F00AF808B100F029FB681E45B2002D7F
:1027F000F2DC4FF0FF3684F8456000F091F900F00C
:102800006FF994F94450002D0CDD206950B104F1AA
:10281000100000F0F1FF08B100F010FB681E45B297
:10282000002DF2DC84F84460BDE8704000F078B917
:1028300010B504462046FDF79BFD2046FDF7BCFD84
:102840000F2804D220212154401C0F28FBD3002143
:102850002154204410BD00002DE9F041054600261A
:1028600000F074FB334F386808B9FFF7E7FCF868ED
:1028700005424ED19DB1083515F0070F0FD005F078
:102880000700C0F10800054415F0070F07D05020DD
:1028900080F31188BFF34F8FBFF36F8FFEE7002DDA
:1028A00037D07868854234D823490846046801E067
:1028B000214604466068A84202D220680028F7D169
:1028C0003868844225D0086800F10806206808604E
:1028D0006068411B10290FD9601910F0070F07D04D
:1028E000502080F31188BFF34F8FBFF36F8FFEE747
:1028F00041606560FFF76AFD61687868401A78603A
:10290000BA68904200D2B860F8680843606000205E
:10291000206000F0ADFF16F0070F07D0502080F3C5
:102920001188BFF34F8FBFF36F8FFEE73046BDE8CE
:10293000F08100008400002094000020001F4FF070
:1029400080730360001F21F001010160001F034933
:1029500001601438026020387047000085270008A5
:10296000002801D0014908607047000000000020E5
:102970000169436882689A60836842685A604A685D
:10298000824201D182684A60002202610868401ECA
:1029900008600868704700002DE9F04706460B46BE
:1029A00017460024382500F0D1FADFF88C80D8F8DB
:1029B000100083423AD3DFF884906D1E05EB85004A
:1029C00009EB800104EBC40006EB80000122FFF755
:1029D0006BFD0444002DF0D104EBC40006EB800035
:1029E0000222D8F80410FFF75FFD044404EBC40092
:1029F00006EB80000222D8F80810FFF755FD0444CA
:102A000004EBC40006EB800004220D49FFF74CFDE7
:102A1000044404EBC40006EB800003220949FFF7DD
:102A200043FD044417B1FFF785F9386000F020FF3B
:102A30002046BDE8F0870000280000200C0600209A
:102A4000A80A0020BC0A0020034B036003F16000C9
:102A50000860802010607047E80B0020044B036082
:102A600003F1600008604FF4807010607047000050
:102A7000480E0020704700F1080141604FF0FF321E
:102A80008260C16001610021016070470021016125
:102A9000704710B4D1F800C0BCF1FF3F02D000F184
:102AA000080202E0026904E01A4653681C686445A3
:102AB000FAD953684B6099608A6051600861016877
:102AC000491C016010BC704742684A6093688B6083
:102AD00093685960916008610168491C0160704702
:102AE000502080F31188BFF34F8FBFF36F8F0A49D7
:102AF0004868401C486001280CD10848006810F064
:102B0000FF0F07D0502080F31188BFF34F8FBFF322
:102B10006F8FFEE7704700009C00002004ED00E08E
:102B200009494868002806D0401E4860002801D1A5
:102B300080F311887047502080F31188BFF34F8FC6
:102B4000BFF36F8FFEE700009C00002070B50028E7
:102B500027D0A0F10804134D6068E968084207D146
:102B6000502080F31188BFF34F8FBFF36F8FFEE7C4
:102B700022683AB1502080F31188BFF34F8FBFF322
:102B80006F8FFEE78843606000F0E0F96068696875
:102B9000084468602046FFF719FCBDE8704000F06B
:102BA00067BE70BD840000204FF0E020002101616D
:102BB000816105494FF47A720968B1FBF2F1491E4F
:102BC00041610721016170472400002010B5FDF725
:102BD00027FB114910280ED300F1E02090F8F003F4
:102BE0000A78904207D2502080F31188BFF34F8FAC
:102BF000BFF36F8FFEE709480068896800F4E06062
:102C0000884207D9502080F31188BFF34F8FBFF35C
:102C10006F8FFEE710BD00009C0000200CED00E06F
:102C20000022084B53F832C0BCF1000F03D0521CF5
:102C3000082AF7D3704743F8321003EBC20148600B
:102C400070470000CC05002070B504460D461646BE
:102C5000FFF746FF94F94400B0F1FF3F4FF000004A
:102C600001D184F8440094F94510B1F1FF3F01D13E
:102C700084F84500FFF754FFA06B28B93246294677
:102C800004F1240000F0FAF82046BDE87040FFF798
:102C90009BBD000010B502460020002A12D00F484C
:102CA000806B38B1502080F31188BFF34F8FBFF392
:102CB0006F8FFEE700F04AF900211046FFF780F918
:102CC00000F0D6FD002807D105494FF0805008607C
:102CD000BFF34F8FBFF36F8F10BD0000280000209F
:102CE00004ED00E02DE9F0410C4616461A49002893
:102CF00016D00546256005F134006060E86A206161
:102D0000286BE061686CA060E86C6061686DA06130
:102D10000027052B12D00868854203D1277311E0E4
:102D20000D68E7E72373032B0CD100F00FF9A86AB5
:102D300008B10220207300F09BFD03E02846FEF757
:102D4000C3FF20732EB1286BFFF710FD2084BDE870
:102D5000F0812784BDE8F0812800002070B584B0A0
:102D6000064600253570294801690391006900EB8A
:102D7000C0008000FFF770FD0446200043D001AA88
:102D80000399FFF709FE039021490198A1FB001068
:102D900040090190002833D00295039800282FD9CC
:102DA0000298019A00EBC00004EB80008169B1FB3E
:102DB000F2F541683046FFF73BFD06465DB10298EB
:102DC0002B4600EBC00004EB800012A18269304664
:102DD000FDF74AFA09E0029811A100EBC00004EBEC
:102DE000800082693046FDF73FFA3046FDF7E4FA8D
:102DF00006440298401C0290039902988842CFD35F
:102E00002046FFF7A3FE04B070BD0000280000209C
:102E10001F85EB510925750909257525250D0A0022
:102E200009257509093C3125250D0A0002498A6AE0
:102E30000260496941607047280000200149012073
:102E4000486270472800002010B50C4600280BD0BF
:102E5000094A126802F11801FFF71BFE2046BDE87F
:102E600010400121FFF7ACB8502080F31188BFF368
:102E70004F8FBFF36F8FFEE72800002070B50D461F
:102E8000144600280DD00B4909681831FFF71CFEC5
:102E90000CB14FF0FF3521462846BDE87040FFF7E2
:102EA0008FB8502080F31188BFF34F8FBFF36F8F1F
:102EB000FEE700002800002030B587B00025069509
:102EC000059504AA05A906A8FFF7BEFD0698059971
:102ED000019102900023009518A11A48049A00F06D
:102EE000A1FB194C606308B1012000E0002001281B
:102EF00001D100F023FD01280AD0B0F1FF3F1BD122
:102F0000502080F31188BFF34F8FBFF36F8FFEE720
:102F1000502080F31188BFF34F8FBFF36F8F4FF0B6
:102F2000FF3020630120E0616561FEF774FE07B0A9
:102F3000BDE8304000F056B807B030BD49444C45BC
:102F4000000000008D220008280000200248816B4C
:102F5000491C8163704700002800002010B51F4CF9
:102F6000A06B002802D00120606210BD00206062CA
:102F7000FEF7E0FE2064E26B904204D92168821AD9
:102F80004B6D1A444A65E063A069154900EB800265
:102F900051F822203AB9C0B1401E00EB800251F82E
:102FA0002220002AF7D000EB800201EB82014A6860
:102FB00052684A6001F108039A4201D152684A609E
:102FC0004968C9682160A06110BD502080F3118854
:102FD000BFF34F8FBFF36F8FFEE700002800002084
:102FE0000C06002000B583B0284908780290FF2025
:102FF0000870087801909DF804009DF8042000F006
:10300000F000904207D0502080F31188BFF34F8F1B
:10301000BFF36F8FFEE79DF804001D4B00F05000DA
:103020001870072098609DF8040010F0800F0BD0F6
:103030009868401E98609DF80400400001909DF83B
:10304000040010F0800FF3D19868032807D05020B7
:1030500080F31188BFF34F8FBFF36F8FFEE74FF4FC
:1030600040709860029808700A48016841F4700145
:103070000160016841F070410160FFF795FD00209B
:103080005860FDF797F803B0002000BD00E400E0B1
:103090009C00002020ED00E010B5502080F3118846
:1030A000BFF34F8FBFF36F8F00F000FB18B10449DF
:1030B0004FF080500860002080F3118810BD0000A0
:1030C00004ED00E038B5049D002804D05BB102B1E6
:1030D00089B1C2B120E0502080F31188BFF34F8F37
:1030E000BFF36F8FFEE7502080F31188BFF34F8F3F
:1030F000BFF36F8FFEE7502080F31188BFF34F8F2F
:10310000BFF36F8FFEE739B1502080F31188BFF312
:103110004F8FBFF36F8FFEE74FF0500CCDF800C01C
:103120001C46012384F846302B460094FFF7C4F870
:10313000204638BD70B504460D46002C25D0FFF75B
:10314000CFFC226CE16B206801FB02006060002074
:10315000A0632068A060E16B226C2068491E01FB1F
:103160000200E0604FF0FF3084F8440084F845002E
:103170009DB104F11000FFF77EFC04F12400FFF77D
:103180007AFCFFF7CDFC012070BD502080F3118840
:10319000BFF34F8FBFF36F8FFEE720690028F0D099
:1031A00004F1100000F028FB0028EAD004494FF099
:1031B00080500860BFF34F8FBFF36F8FE1E70000CF
:1031C00004ED00E02DE9FF4782B004468A461F4621
:1031D0000025002C03D0BAF1000F08D011E05020D8
:1031E00080F31188BFF34F8FBFF36F8FFEE7206C22
:1031F00038B1502080F31188BFF34F8FBFF36F8F2A
:10320000FEE7022F0AD1E06B012807D0502080F39F
:103210001188BFF34F8FBFF36F8FFEE700F032FAD4
:1032200048B9049838B1502080F31188BFF34F8F0C
:10323000BFF36F8FFEE700264FF08058DFF8F09065
:10324000FFF74EFCA06BE16B884205D3022F03D041
:10325000049808B335B329E03A4651462046FEF7B4
:1032600083FF616A59B104F1240000F0C5FA68B126
:10327000C9F80080BFF34F8FBFF36F8F06E028B10E
:10328000C9F80080BFF34F8FBFF36F8FFFF748FC83
:1032900006B00120BDE8F087FFF742FC06B0002031
:1032A000BDE8F0876846FFF7C1FD0125FFF738FC50
:1032B000FFF74CFEFFF714FC94F94400B0F1FF3F18
:1032C00001D184F8446094F94500B0F1FF3F01D189
:1032D00084F84560FFF724FC04A9684600F02CF947
:1032E00040B12046FFF770FA00F0C2FA06B00020A5
:1032F000BDE8F0872046FFF7C8F890B104F1100050
:103300000499FFF7A1FD2046FFF75EFA00F0B0FA3E
:10331000002895D1C9F80080BFF34F8FBFF36F8F9E
:103320008EE72046FFF750FA00F0A2FA88E7000087
:1033300004ED00E02DE9F0470446894617461E4695
:10334000002C03D0B9F1000F08D011E0502080F319
:103350001188BFF34F8FBFF36F8FFEE7206C38B13A
:10336000502080F31188BFF34F8FBFF36F8FFEE7BC
:10337000022E0AD1E06B012807D0502080F311887B
:10338000BFF34F8FBFF36F8FFEE7FFF71FFC502097
:10339000EFF3118880F31188BFF34F8FBFF36F8F66
:1033A000A06BE16B884206D3022E04D0002088F384
:1033B0001188BDE8F08794F94550324649462046C9
:1033C000FEF7D2FEB5F1FF3F04D0681C84F845003B
:1033D0000120ECE7606A0028FAD004F1240000F034
:1033E0000BFA0028F4D0002FF2D001203860EFE76C
:1033F0002DE9F74783B004468A460025002C03D008
:10340000BAF1000F08D011E0502080F31188BFF30B
:103410004F8FBFF36F8FFEE7206C38B1502080F3E1
:103420001188BFF34F8FBFF36F8FFEE700F02AF9CB
:1034300048B9059838B1502080F31188BFF34F8FF9
:10344000BFF36F8FFEE700274FF08058DFF8E4905E
:10345000FFF746FBA66BC6B151462046FEF772FE4B
:10346000701EA063206950B104F1100000F0C4F98F
:1034700028B1C9F80080BFF34F8FBFF36F8FFFF7FC
:103480004FFB06B00120BDE8F087059808B135B1C3
:1034900009E0FFF745FB06B00020BDE8F08768466D
:1034A000FFF7C4FC0125FFF73BFBFFF74FFDFFF7DC
:1034B00017FB94F94400B0F1FF3F01D184F8447048
:1034C00094F94500B0F1FF3F01D184F84570FFF752
:1034D00027FB05A9684600F02FF868B12046FFF7E2
:1034E00073F900F0C5F92046FEF7C2FF0028AFD0FF
:1034F00006B00020BDE8F0872046FEF7B9FF90B186
:1035000004F124000599FFF79FFC2046FFF75CF9C2
:1035100000F0AEF900289BD1C9F80080BFF34F8FAF
:10352000BFF36F8F94E72046FFF74EF900F0A0F944
:103530008EE7000004ED00E070B505460C46002D56
:1035400015D0E4B1FFF7CCFADFF868C0DCF814005E
:103550006B68C11A2268B2F1FF3F18D02E68DCF800
:1035600028C0664515D0834213D801241DE05020A1
:1035700080F31188BFF34F8FBFF36F8FFEE75020AA
:1035800080F31188BFF34F8FBFF36F8FFEE70024E6
:103590000BE08A4206D9501A20602846FFF746FC05
:1035A000002402E0002020600124FFF7B9FA204641
:1035B00070BD0000280000202DE9F04F85B0814645
:1035C0000F9F0E9E8A4690469B464FEA8800FFF763
:1035D00043F9054628000AD06020FFF73DF904466C
:1035E0000CB1256304E02846FFF7B0FA00E00024A0
:1035F0009CB1002084F85D0003905B464246514632
:103600000197009602944846FEF767FE2046FEF7B3
:1036100007FD05B00120BDE8F08F05B04FF0FF3089
:10362000BDE8F08F70B586B00646DDF828C00C9C6A
:103630000B98002816D0ECB1602504952063022079
:1036400084F85D00002005AD0390CDF800C0019521
:1036500002943046FEF741FE2046FEF7E1FC059855
:1036600006B070BD502080F31188BFF34F8FBFF3B9
:103670006F8FFEE7502080F31188BFF34F8FBFF3A9
:103680006F8FFEE70548C169002903D0806B18B130
:10369000002070470120704702207047280000205A
:1036A0000148406970470000280000202DE9F041E2
:1036B00000262F4FB86B002808D0386A401C3862AB
:1036C000786A00B101263046BDE8F0817869451C72
:1036D0007D619DB97868006838B1502080F3118809
:1036E000BFF34F8FBFF36F8FFEE77868B9687960DB
:1036F000B860B86A401CB862FEF7D6FF386BDFF8D6
:10370000748085420DD37868006838B17868C068E5
:10371000C468606885420ED2386302E04FF0FF3023
:1037200038633868C06A00EB800058F82000012830
:10373000C6D90126C4E7201DFFF71AF9A06A18B1FF
:1037400004F11800FFF714F9E16AB869814200D961
:10375000B96101EB810008EB8000211DFFF7B4F98E
:10376000E06A3968C96A8842CDD30126CBE70000F8
:10377000280000200C06002070B504460021002817
:1037800033D01B4D2868844207D0502080F3118825
:10379000BFF34F8FBFF36F8FFEE7206D38B1401E30
:1037A0002065E36CE26A9A421FD040B11DE05020D0
:1037B00080F31188BFF34F8FBFF36F8FFEE7201D9B
:1037C000FFF7D6F8E06CE062C0F13800A061E06A73
:1037D000A969884200D9A861064900EB800001EB85
:1037E0008000211DFFF770F90121084670BD00001F
:1037F000280000200C06002070B5C068C468002CAA
:1038000014D004F11800FFF7B3F8164DA86BA8B157
:1038100004F118011448FFF757F9E06A2968C96AEA
:1038200088421CD901200121696270BD502080F3BB
:103830001188BFF34F8FBFF36F8FFEE7201DFFF797
:1038400097F8E06AA969884200D9A861074900EBA6
:10385000800001EB8000211DFFF736F9DDE7002035
:1038600070BD000028000020940A00200C060020F3
:103870002DE9F047002400272D4DA86B002807D024
:10388000FFF72EF9A86B401EA863A86B40B149E072
:10389000502080F31188BFF34F8FBFF36F8FFEE787
:1038A000286900283ED0234E30684FF0010800B34D
:1038B000A6F59169F068C46804F11800FFF758F89C
:1038C000201DFFF755F8E06AA969884200D9A86170
:1038D00000EB800009EB8000211DFFF7F5F8E06A9E
:1038E0002968C96A884201D3C5F824803068002855
:1038F000E0D10CB1FEF7D8FE2C6A4CB1FFF7D6FE32
:1039000008B1C5F82480641E002CF7D1002028627D
:10391000686A38B10127084938070860BFF34F8F3C
:10392000BFF36F8FFFF7FCF83846BDE8F087000063
:1039300028000020940A002004ED00E030B587B094
:103940000024FEF7B1FB134DA868B0B1002006902B
:10395000059004AA05A906A8FFF780F8059906981E
:10396000022200920191029000230BA10C48049ABC
:10397000FFF758FEE86000B1012414B107B02046FB
:1039800030BD502080F31188BFF34F8FBFF36F8F8E
:10399000FEE700006C000020546D72205376630037
:1039A000B5270008F0B585B084460A9D16461F4627
:1039B0000022BCF1000F14D0164CA06800B3009197
:1039C0000196CDF808C006291BDAFFF75BFE022836
:1039D0000FD000231A466946A068FFF7F3FB0246A2
:1039E00015E0502080F31188BFF34F8FBFF36F8F26
:1039F000FEE700232A466946A068FFF7E3FB02467C
:103A000005E000233A466946FFF794FC024605B0FC
:103A10001046F0BD6C000020B43A0008E03A0008FF
:103A20000000000000000000000000000000000096
:103A3000000200002800000000000000000000005C
:103A4000D43A000800000000000000000000000060
:103A5000000000000002000008000000000000005C
:103A600000000000C83A000800000000000000004C
:103A7000000000000000000000020000090000003B
:103A80000000000000000000010202030405060718
:103A900008090A0B0C0D0E0F1010000000000000AA
:103AA00000000102030406070809000000000102EB
:103AB000030400003031323334353637383961622F
:103AC00063646566000000006D795461736B303388
:103AD000000000006D796C6F675461736B0000002B
:103AE00064656661756C745461736B000C3B00080F
:103AF00000000020A800000028010008B43B0008D6
:103B0000A80000206024000044010008000000001C
:103B100000000000000000000000000000000000A5
:103B20000000000001000000100000000000000084
:103B30000024F4000000000000000000000000006D
:103B40000000000000000000000000000000000075
:103B50000000000000000000000000000000000065
:103B60000000000000000000000000000000000055
:103B70000000000000000000000000000000000045
:103B80000000000000000000000000000000000035
:103B90000000000000000000000000000000000025
:103BA000000000000000000000000000AAAAAAAA6D
:043BB0000000000011
:04000005080000ED02
:00000001FF
