:020000040800F2
:100000000825002029020008F11B0008D319000868
:10001000ED1B0008EF060008E522000800000000C4
:100020000000000000000000000000009101000836
:10003000F306000800000000D5010008531C00086A
:10004000430200084302000843020008430200087C
:10005000430200084302000843020008430200086C
:10006000430200084302000843020008430200085C
:10007000430200084302000843020008430200084C
:10008000430200084302000843020008430200083C
:10009000430200084302000843020008430200082C
:1000A000430200084302000843020008430200081C
:1000B000D11C0008E11C00084302000843020008AC
:1000C00043020008430200084302000843020008FC
:1000D00043020008430200084302000843020008EC
:1000E00043020008430200084302000800F002F83F
:1000F00000F03FF80AA090E8000C82448344AAF183
:100100000107DA4501D100F034F8AFF2090EBAE880
:100110000F0013F0010F18BFFB1A43F0010318473B
:10012000DC400000FC400000103A24BF78C878C1D1
:10013000FAD8520724BF30C830C144BF04680C60ED
:10014000704700000023002400250026103A28BF35
:1001500078C1FBD8520728BF30C148BF0B60704739
:10016000752900F0C980002070471FB51FBD10B56C
:1001700010BD00F082FA1146FFF7F7FF02F098F980
:1001800000F0A0FA03B4FFF7F2FF03BC00F0A8FAF6
:10019000224B19680868B0E8F00F80F30988BFF3B4
:1001A0006F8F4FF0000080F311884EF00D0E7047F6
:1001B0000000000006480068006880F3088862B606
:1001C00061B6BFF34F8FBFF36F8F00DF00BF00BF7B
:1001D00008ED00E0EFF30980BFF36F8F0F4B1A6853
:1001E00020E9F00F106008B54FF0500080F311883F
:1001F000BFF34F8FBFF36F8F03F038FA4FF000005B
:1002000080F31188BDE8084019680868B0E8F00F6D
:1002100080F30988BFF36F8F704700BF280000206C
:10022000EFF3058070470000094880470948004700
:10023000FEE7FEE7FEE7FEE7FEE7FEE7FEE7FEE796
:10024000FEE7FEE704480549054A064B70470000F3
:10025000CD1C0008ED000008081F00200825002024
:1002600008210020082100200FB41CB5074B06AA66
:100270007B4469460090059800F093F90020694698
:1002800000F0A2F91CBC5DF814FB0000550300004F
:100290002DE9F0410E460446002020622046E16828
:1002A000884730B3252805D0D4E901219047206A3A
:1002B000401CF2E7E168204600278847050018D077
:1002C000A5F14100192802D820354FF400673246C5
:1002D000294620462760FFF743FF40B1012804D09C
:1002E000F61D26F007060836D8E7361DD6E728465D
:1002F000DAE7206ABDE8F0812DE9F04106460024E6
:1003000010687529314616A510D0AFF3008000287B
:1003100002DA404213A507E031688A0701D512A529
:1003200002E0490704D511A5012401E0AFF30080E4
:1003300000210A2206F1240709E0B0FBF2FCB0FB21
:10034000F2F302FB1C00303078541846491C002898
:10035000F3D123462A463046BDE8F04100F0C2B84A
:10036000000000002D0000002B0000002000000015
:1003700040EA0103024630B59B0710D14FF001342B
:1003800000E008C208C91D1B9D4315EAC41FF8D030
:1003900013F0FF0102F8011B0DD01B0AF8E711F85A
:1003A000013B002B02F8013B05D011F8013B002B6B
:1003B00002F8013BF3D130BD10B5431C02E010F848
:1003C000011B71B18107FAD14FF0013202C88C1ABA
:1003D0008C4314EAC211F9D0C01A0A0603D0C01E19
:1003E00010BDC01A10BD0A0401D0801E10BD090244
:1003F000FCD0401E10BD032A40F2308010F0030CE8
:1004000000F0158011F8013BBCF1020F624498BF67
:1004100011F801CB00F8013B38BF11F8013BA2F104
:10042000040298BF00F801CB38BF00F8013B11F07F
:10043000030300F0CE80083AC0F0088051F8043B76
:10044000083A51F804CBA0E80810F5E7121D5CBF8C
:1004500051F8043B40F8043BAFF30080D20724BFBF
:1004600011F8013B11F801CB48BF11F8012B24BF53
:1004700000F8013B00F801CB48BF00F8012B7047A2
:1004800002F0FF0343EA032242EA024200F0D5B839
:100490004FF0000200B5134694469646203922BF1D
:1004A000A0E80C50A0E80C50B1F12001BFF4F7AF68
:1004B000090728BFA0E80C5048BF0CC05DF804EB4A
:1004C000890028BF40F8042B08BF704748BF20F8B8
:1004D000022B11F0804F18BF00F8012B70477047B6
:1004E000704770472DE9F0470D46994692460446FD
:1004F00000F124080168880604D5E06921F01001A4
:10050000216000E00120A84201DD471B00E0002738
:10051000A1697A1902EB0900081AA0612078C006C7
:1005200002D42046AFF30080002608E0D4E9012180
:100530001AF806009047206A401C761C20624E453F
:10054000F4DB2078C0060AD52046AFF3008006E031
:10055000D4E9012130209047206A401C2062381ED7
:10056000A7F10107F4DC07E0D4E9012118F8050040
:100570009047206A401C2062281EA5F10105F3DC8B
:100580002046AFF300802078000602D50220BDE8A7
:10059000F0870120FBE7000001694A1C026108782E
:1005A000704700B58FB0CDE90131002105910549B3
:1005B0007944CDE9031011466846FFF769FE0FB094
:1005C00000BD0000E5FFFFFF0A6802F8010B0A60AA
:1005D000704710B5203AC0F00B80B1E81850203AAF
:1005E000A0E81850B1E81850A0E81850BFF4F5AFD3
:1005F0005FEA027C24BFB1E81850A0E8185044BF5D
:1006000018C918C0BDE810405FEA827C24BF51F8C9
:10061000043B40F8043B08BF7047D20728BF31F8BD
:10062000023B48BF11F8012B28BF20F8023B48BF0E
:1006300000F8012B70474FF000020429C0F012802F
:1006400010F0030C3FF426AFCCF1040CBCF1020F08
:1006500018BF00F8012BA8BF20F8022BA1EB0C015A
:10066000FFF718BF5FEAC17C24BF00F8012B00F838
:10067000012B48BF00F8012B7047754600F02CF89D
:10068000AE4605006946534620F00700854618B07F
:1006900020B5FFF7D7FDBDE820404FF000064FF032
:1006A00000074FF000084FF0000B21F00701AC46A7
:1006B000ACE8C009ACE8C009ACE8C009ACE8C009C6
:1006C0008D46704710B50446AFF300802046BDE864
:1006D0001040FFF757BD000000487047A81E0020DB
:1006E00001491820ABBEFEE726000200704700BF9C
:1006F000FEE7704772B600BFFEE700002DE9F8473D
:100700000346002294466EE14FF0010808FA02F415
:10071000D1F8008008EA0400A0427DD1DFF8DCA215
:10072000D1F80480A8EB0A09D0453AD014DCB8F11E
:10073000030F50D009DCB8F1000F31D0B8F1010F30
:100740001CD0B8F1020F49D120E0B8F1110F18D038
:10075000B8F1120F42D11EE0B9F5881F25D006DC92
:10076000B9F5803F20D0B9F5801F37D11AE0B9F52F
:10077000001F18D0B9F5041F30D117E0D1F80CC014
:100780002DE0D1F80C8008F1040C28E0D1F80C80A1
:1007900008F1080C23E0D1F80C8008F10C0C1EE0E5
:1007A00000BF00BF00BF00BF00BF00BFD1F808807E
:1007B000B8F1000F02D14FF0040C0BE0D1F8088023
:1007C000B8F1010F03D14FF0080C1C6102E04FF0AB
:1007D000080C5C6103E04FF0000C00E000BF00BFBC
:1007E000FF2801D8984601E003F104084646FF2897
:1007F00002D84FEA820803E0A2F108084FEA88080D
:100800004746D6F800804FF00F0909FA07F928EAA1
:1008100009080CFA07F900E088E048EA0908C6F878
:100820000080D1F8048008F08058B8F1805F7DD155
:1008300000BFDFF8CC81D8F8188048F00108DFF855
:10084000C091C9F81880C846D8F8188008F0010887
:10085000CDF8008000BF00BF4FEAB9384FEA9209D7
:1008600058F829504FEA82784FEA18794FF00F086C
:1008700008FA09F825EA0805DFF88881434502D11E
:100880004FF0000816E0DFF88081434502D14FF0B9
:1008900001080FE0DFF87481434502D14FF00208F0
:1008A00008E0DFF86C81434502D14FF0030801E016
:1008B0004FF004084FEA82794FEA197908FA09F8EB
:1008C00048EA0505DFF84C814FEA920948F82950BB
:1008D000D1F8048008F48018B8F5801F0AD1DFF839
:1008E0003881D8F8008048EA0008DFF82C91C9F870
:1008F000008009E0DFF82081D8F8008028EA0008AD
:10090000DFF81491C9F80080D1F8048008F40018C9
:10091000B8F5001F10D1DFF8008108F10408D8F8FD
:10092000008048EA0008DFF8F09000E05AE009F1A2
:100930000409C9F800800DE0DFF8DC8008F1040844
:10094000D8F8008028EA0008DFF8CC9009F1040903
:10095000C9F80080D1F8048008F40038B8F5003FE9
:100960000ED1DFF8B480A8F10408D8F8008048EA76
:100970000008DFF8A490A9F10409C9F800800DE08F
:10098000DFF89480A8F10408D8F8008028EA00086D
:10099000DFF88490A9F10409C9F80080D1F8048037
:1009A00008F48038B8F5803F0ED1DFF86C80A8F1EC
:1009B0000808D8F8008048EA0008DFF85C90A9F140
:1009C0000809C9F800800DE0DFF84C80A8F108089C
:1009D000D8F8008028EA0008DFF83C90A9F108095F
:1009E000C9F80080521CD1F8008028FA02F8B8F14A
:1009F000000F7FF489AEBDE8F887000000001110F9
:100A00000010024000080140000C014000100140AD
:100A10000014014008000140080401400AB10161CE
:100A200001E00B0403617047014800687047000053
:100A30001800002003480068034909780844014968
:100A400008607047180000202000002010B50848FA
:100A5000006840F0100006490860032000F0AEF87E
:100A60000F2000F007F800F02BF8002010BD000068
:100A70000020024070B504460E4800784FF47A71A9
:100A8000B1FBF0F00C490968B1FBF0F5284600F025
:100A9000FFFB08B1012070BD102C07D200222146B7
:100AA000501E00F04DF80548046001E00120F2E717
:100AB0000020F0E720000020240000201C0000207F
:100AC00008B500BF1448806940F0010012498861F0
:100AD0000846806900F00100009000BF00BF00BF21
:100AE0000846C06940F08050C8610846C06900F0FF
:100AF0008050009000BF00BF00220F21901E00F028
:100B00001FF800BF0549486820F0E06040F0007021
:100B1000486000BF08BD0000001002400000014016
:100B200001460846002809DB00F01F0301229A4015
:100B300043099B0003F1E023C3F8002100BF704785
:100B40002DE9F05F80460D461646002701F0CCFBEC
:100B5000074639462A46334601F00700C0F1070A26
:100B6000BAF1040F02D94FF0040A01E0C0F1070AFC
:100B7000D14600F1040ABAF1070F02D24FF0000A81
:100B800001E0A0F1030AD4464FF0010A0AFA09FA7B
:100B9000AAF1010A0AEA020A0AFA0CFA4FF0010B5A
:100BA0000BFA0CFBABF1010B0BEA030B4AEA0B044B
:100BB0002146404601F0A0FBBDE8F09F00BF00F0D9
:100BC0000702064B19684FF6FF031940044B0B430D
:100BD00043EA0221014B196000BF70470CED00E0B1
:100BE0000000FA0570B504460D460CB9012070BD31
:100BF0005A48006800F00700A8420ED25748006823
:100C000020F007002843554908600846006800F0B6
:100C10000700A84201D00120E9E7207800F0020097
:100C200002281DD1207800F00400042805D14C488A
:100C3000406840F4E0604A494860207800F00800CD
:100C4000082805D14648406840F46050444948604F
:100C50004348406820F0F000A168084340494860DC
:100C6000207800F0010078B36068012806D13C4884
:100C7000006800F4003090B90120B8E760680228ED
:100C800006D13748006800F0007040B90120AEE797
:100C90003348006800F0020008B90120A7E7304897
:100CA000406820F00300616808432D494860FFF761
:100CB000BBFE064609E0FFF7B7FE801B41F2883114
:100CC000884202D9032092E707E02548406800F0F7
:100CD0000C006168B0EB810FEDD12048006800F096
:100CE0000700A8420ED91D48006820F007002843DD
:100CF0001A4908600846006800F00700A84201D0C1
:100D0000012074E7207800F00400042807D114487B
:100D1000406820F4E060E1680843114948602078A9
:100D200000F00800082808D10D48406820F4605001
:100D3000216940EAC1000A49486000F03FF80849CB
:100D40004968C1F30311074A515CC840064908606D
:100D500006480068FFF78EFE002048E700200240AA
:100D600000100240AA410008240000201C000020BE
:100D700001480068704700002400002000B5FFF71C
:100D8000F7FF04494968C1F30221034A515CC84096
:100D900000BD000000100240BA41000800B5FFF796
:100DA000E7FF04494968C1F3C221034A515CC840C6
:100DB00000BD000000100240BA41000870B50021DB
:100DC0000022002400230020134D696801F00C0567
:100DD000F5B1042D02D0082D19D101E00F4819E01A
:100DE0000F4DC1F38346AB5D01F4803555B10A4D1B
:100DF0006D68C5F340450B4E725D084D5D43B5FB14
:100E0000F2F402E0084D03FB05F4204602E000BFC7
:100E1000024800BF00BF70BD0010024000127A00FF
:100E200098410008A841000800093D00F8B50446B3
:100E30000CB90120F8BD207800F00100002878D01E
:100E4000F848406800F00C0004280CD0F5484068D1
:100E500000F00C00082811D1F248406800F48030FE
:100E6000B0F5803F0AD1EF48006800F40030002858
:100E70005FD0606800285CD10120DBE700BF6068BC
:100E8000B0F5803F06D1E748006840F48030E5497E
:100E9000086028E0606858B9E248006820F48030B3
:100EA000E04908600846006820F4802008601AE0E5
:100EB0006068B0F5A02F0BD1DA48006840F48020BC
:100EC000D84908600846006840F4803008600AE0AD
:100ED000D448006820F48030D24908600846006891
:100EE00020F48020086000BF606888B1FFF79CFD97
:100EF000054606E0FFF798FD401B642801D9032052
:100F000098E7C848006800F400300028F2D010E0EC
:100F1000FFF78AFD054606E0FFF786FD401B6428C3
:100F200001D9032086E7BF48006800F4003000289C
:100F3000F2D1207800F00200022857D1B948406869
:100F400000F00C0050B1B748406800F00C000828D1
:100F500018D1B448406800F4803098B9B1480068AE
:100F600000F0020020B12069012801D0012061E7D2
:100F7000AC48006820F0F800616940EAC100A94966
:100F8000086033E02069E8B10120A7490860FFF755
:100F90004BFD054606E0FFF747FD401B022801D93F
:100FA000032047E79F48006800F002000028F2D0C5
:100FB0009C48006820F0F800616940EAC100994946
:100FC000086013E0002098490860FFF72DFD0546F2
:100FD00006E0FFF729FD401B022801D9032029E77D
:100FE0009048006800F002000028F2D1207800F05C
:100FF000080008282DD1A069B8B101208B490860EC
:10100000FFF712FD054606E0FFF70EFD401B022824
:1010100001D903200EE78348406A00F0020000284F
:10102000F2D0012000F0E6FD13E000207F490860C7
:10103000FFF7FAFC054606E0FFF7F6FC401B022826
:1010400001D90320F6E67748406A00F00200002844
:10105000F2D1207800F00400042873D100277148F1
:10106000C06900F0805070B900BF6E48C06940F0A0
:1010700080506C49C8610846C06900F080500090FB
:1010800000BF00BF01276A48006800F48070B0B953
:101090006748006840F4807065490860FFF7C4FC49
:1010A000054606E0FFF7C0FC401B642801D9032079
:1010B000C0E65F48006800F480700028F2D000BFEE
:1010C000E068012806D15748006A40F00100554900
:1010D000086227E0E06858B95248006A20F0010031
:1010E000504908620846006A20F00400086219E0CE
:1010F000E06805280BD14B48006A40F004004949DC
:1011000008620846006A40F0010008620AE04548AB
:10111000006A20F00100434908620846006A20F096
:101120000400086200BFE068A0B1FFF77DFC05463F
:1011300009E0FFF779FC401B41F28831884202D96F
:10114000032077E622E03748006A00F0020000281A
:10115000EFD012E0FFF768FC054608E0FFF764FCFB
:10116000401B41F28831884201D9032062E62D48B4
:10117000006A00F002000028F0D1012F05D12948B3
:10118000C06920F080502749C86100BFE069C8B33A
:101190002448406800F00C00082860D0E06902286C
:1011A00048D1002020490866FFF73EFC054606E0CE
:1011B000FFF73AFC401B022801D903203AE6194800
:1011C000006800F000700028F2D1206AB0F5803F7E
:1011D00007D11448406820F40030A1680843114941
:1011E0004860D4E9080108430E49496821F47411A4
:1011F00008430C49486001200B490866FFF714FCBE
:10120000054607E03DE0FFF70FFC401B022801D92F
:1012100003200FE60348006800F000700028F2D0B9
:101220002FE00000001002400000424280044242D1
:1012300000700040002014490866FFF7F5FB0546E2
:1012400006E0FFF7F1FB401B022801D90320F1E57E
:101250000E48006800F000700028F2D111E0E0694B
:10126000012800D1E6E50948466806F48031206A85
:10127000814204D106F47011606A814201D00120DC
:10128000D8E50020D6E500000000424200100240F0
:1012900070B504462546681EB0F1807F01D3012059
:1012A0000FE0681E4FF0E02148610F214FF0FF3042
:1012B00001F022F800204FF0E0218861072008614A
:1012C000002070BD7047704730B502460B4600BF26
:1012D00092F83C00012801D1022030BD012082F8A3
:1012E0003C0000BF022082F83D001068446810688E
:1012F000816824F070041868044310684460104D3D
:101300001068A8420BD01068B0F1804F07D00D4D87
:101310001068A84203D00C4D1068A84205D121F0F6
:1013200080015868014310688160012082F83D0007
:1013300000BF002082F83C0000BF00BFCDE70000E6
:10134000002C0140000400400008004010B5044695
:101350000CB9012010BD94F83D0028B9002084F894
:101360003C00204600F026F8022084F83D00211DB4
:10137000206800F0BDFC012084F8460000BF84F81E
:101380003E0001213F2001554020015541200155DB
:1013900000BF00BF012084F84200432001554420D3
:1013A00001554520015500BF012084F83D00002073
:1013B000D0E7000038B504462349206888420DD1A3
:1013C00000BF2248806940F40060204988610846D7
:1013D000806900F40060009000BF34E02068B0F144
:1013E000804F16D100BF1948C06940F0010017496D
:1013F000C8610846C06900F00100009000BF00BF4E
:10140000002205211C20FFF79BFB1C20FFF788FB17
:1014100019E00F492068884215D100BF0B48C06908
:1014200040F002000949C8610846C06900F00200A6
:10143000009000BF00BF002205211D20FFF780FBA8
:101440001D20FFF76DFB38BD002C0140001002404D
:1014500000040040014691F83D00012801D0012020
:101460007047022081F83D000868C06840F0010024
:101470000B68D860124B086898420BD00868B0F12E
:10148000804F07D00F4B0868984203D00E4B086876
:1014900098420CD10868806800F00702062A0CD038
:1014A0000868006840F001000B68186005E00868F3
:1014B000006840F001000B6818600020D0E70000D1
:1014C000002C014000040040000800402DE9F041DC
:1014D00004460D46002700BF94F83C00012802D1C5
:1014E0000220BDE8F081012084F83C0000BF02200A
:1014F00084F83D002068866826F0770626F47F464B
:10150000206886602868502833D00CDC202850D012
:1015100004DC00284BD0102851D149E0302849D0B4
:1015200040284CD139E060282DD0702807D0B0F584
:10153000805F03D0B0F5005F41D10DE041E0D5E917
:1015400002136A68206800F00DFC2068866846F087
:1015500077062068866034E0D5E902136A6820685F
:1015600000F000FC2068806840F4804021688860BA
:1015700027E0EA686968206800F061FC5021206873
:1015800000F0FBFB1DE0EA686968206800F06AFC77
:101590006021206800F0F1FB13E0EA6869682068C8
:1015A00000F04DFC4021206800F0E7FB09E000BF9F
:1015B00000BF00BF2968206800F0DFFB01E00127C1
:1015C00000BF00BF012084F83D0000BF002084F868
:1015D0003C0000BF384684E7704710B504462068D9
:1015E0000069C0F34000D8B12068C068C0F3400073
:1015F000B0B16FF0020021680861012020772068F7
:10160000806900F0030018B12046FFF7E5FF05E010
:10161000204600F0ADF8204600F0ABF8002020771F
:1016200020680069C0F38000D8B12068C068C0F3AA
:101630008000B0B16FF004002168086102202077BB
:101640002068806900F4407018B12046FFF7C4FF9D
:1016500005E0204600F08CF8204600F08AF80020D3
:10166000207720680069C0F3C000D8B12068C06846
:10167000C0F3C000B0B16FF0080021680861042019
:1016800020772068C06900F0030018B12046FFF7FA
:10169000A3FF05E0204600F06BF8204600F069F853
:1016A0000020207720680069C0F30010D8B12068BE
:1016B000C068C0F30010B0B16FF01000216808617D
:1016C000082020772068C06900F4407018B12046D7
:1016D000FFF782FF05E0204600F04AF8204600F0C0
:1016E00048F8002020772068006900F0010058B118
:1016F0002068C06800F0010030B16FF0010021687F
:101700000861204600F036F820680069C0F3C01078
:1017100058B12068C068C0F3C01030B16FF08000CD
:10172000216808612046FFF7CDFD20680069C0F3FD
:10173000801058B12068C068C0F3801030B16FF0DD
:10174000400021680861204600F06AF820680069BE
:10175000C0F3401058B12068C068C0F3401030B1E9
:101760006FF02000216808612046FFF7ACFD10BD36
:10177000704770470B4A0168914212D00A4A0168CB
:10178000914205D109490968491C084A116008E0DD
:101790000168B1F1804F04D105490968491C044A28
:1017A00011607047002C0140000400401000002030
:1017B0001400002070B504460D4600BF94F83C00AC
:1017C000012801D1022070BD012084F83C0000BF37
:1017D000022084F83D002946204600F0D7FA48B19F
:1017E000012084F83D0000BF002084F83C0000BFC9
:1017F0000120E8E72068C06820F040002168C86048
:101800002068C06820F480402168C860012084F806
:101810003D0000BF002084F83C0000BF00BFD2E7BD
:10182000704710B504460CB9012010BDA06900B185
:1018300000E000BF94F8410028B9002084F840007F
:10184000204600F029F8242084F841002068C06870
:1018500020F400502168C860204600F017FB206883
:10186000006920F49040216808612068406920F0F8
:101870002A00216848612068C06840F4005021684F
:10188000C86000206064202084F8410084F8420091
:101890000020606300BFC8E710B586B00446002092
:1018A00002900390049005901A49206888422ED136
:1018B00000BF1948806940F4804017498861084694
:1018C000806900F48040019000BF00BF00BF08465F
:1018D000806940F0040088610846806900F00400D7
:1018E000019000BF00BF4815029002200390032022
:1018F000059002A90948FEF701FF4FF480600290AD
:1019000000200390049002A90448FEF7F7FE06B0F9
:1019100010BD0000003801400010024000080140E6
:101920002DE9F84F04460E46174699464FF0000A37
:1019300094F8410020284AD106B117B90120BDE82A
:10194000F88F00206064212084F84100FFF76CF8D4
:101950008246A784E784A068B0F5805F04D120693F
:1019600010B90025B04602E035464FF000081BE0F4
:101970005346002280212046CDF8009000F004FB61
:1019800008B10320DBE745B9B8F80000C0F3080050
:101990002168486008F1020803E02878216848605F
:1019A0006D1CE08C401EE084E08C0028E0D15346A2
:1019B000002240212046CDF8009000F0E5FA08B161
:1019C0000320BCE7202084F841000020B7E7022074
:1019D000B5E700BFFEE7000000B585B0002001902C
:1019E00002900390049000BF1D48806940F01000F1
:1019F0001B4988610846806900F01000009000BF14
:101A000000BF00BF0846806940F02000886108469A
:101A1000806900F02000009000BF00BF00BF0846B2
:101A2000806940F0040088610846806900F0040085
:101A3000009000BF00BF00224FF400510948FEF79C
:101A4000EDFF4FF400500190012002900020039020
:101A50000220049001A90348FEF750FE05B000BD26
:101A6000001002400010014000B587B0142102A808
:101A7000FEF70EFD00200090019015481549086002
:101A8000002048600021134881604FF6FF71C1605B
:101A90000021016141618161FFF758FC08B1FEF747
:101AA00029FE062002900020039002A90948FFF7B2
:101AB00081FE08B1FEF71EFE0020009001906946ED
:101AC0000448FFF701FC08B1FEF714FE07B000BDA3
:101AD000002C0140AC04002000B587B0002003902A
:101AE000049005900690019002904FF080401449B8
:101AF0000860472048600021114881603121C160A1
:101B00000021016180218161FFF720FC08B1FEF70F
:101B1000F1FD4FF48050039003A90948FFF7D6FC6C
:101B200008B1FEF7E7FD00200190029001A90448EA
:101B3000FFF7CAFB08B1FEF7DDFD07B000BD0000EE
:101B4000F404002000B587B00020039004900590B5
:101B5000069001900290154815490860472048609A
:101B600000211348816040F2E731C160002101612A
:101B700080218161FFF7EAFB08B1FEF7BBFD4FF45E
:101B80008050039003A90A48FFF7A0FC08B1FEF7B4
:101B9000B1FD00200190029001A90548FFF794FBD8
:101BA00008B1FEF7A7FD07B000BD0000000400402B
:101BB0003C05002010B50B480B4908604FF4E1309C
:101BC0004860002108488160C16001610C214161C9
:101BD00000218161C161FFF724FE08B1FEF78AFD93
:101BE00010BD0000003801408405002000BFFEE762
:101BF00000BFFEE708B508490968C9084FF47A72C2
:101C0000B1FBF2F14143009100BF00BF00994A1EB1
:101C100000920029F9D108BD2400002000BF002453
:101C2000002106E0002001E00444401CFF28FBD313
:101C3000491C40F6FF708142F4D3642000F082FC1E
:101C4000EDE700BF00F006FC4FF4FA7000F07AFCFC
:101C5000F8E710B5FEF7EEFE02F09CF8012801D07F
:101C600001F0A2FD10BD00B58FB0282105A8FEF738
:101C70000FFC14216846FEF70BFC012005900004C0
:101C80000690002007900120099002200C90C103CB
:101C90000D914FF4E0110E9105A8FFF7C7F808B1B8
:101CA000FEF728FD0F2000900220019000200290F6
:101CB0004FF4806003900020049002216846FEF7F4
:101CC00091FF08B1FEF716FD0FB000BD7047000090
:101CD00010B50248FFF781FC10BD0000F40400209D
:101CE00010B50248FFF779FC10BD00003C0500204C
:101CF00010B50268184B984208D0B0F1804F05D05B
:101D0000164B984202D0164B984203D122F0700233
:101D10004B681A43104B984208D0B0F1804F05D061
:101D20000E4B984202D00E4B984203D122F44072DF
:101D3000CB681A4322F080034C6943EA0402026034
:101D40008B68C3620B688362034B984201D10B69B5
:101D500003630123436110BD002C014000040040D7
:101D60000008004030B50C46816821F47F4142EA0A
:101D7000032525432943816030BD0A46816821F04F
:101D8000700142F007031943816070472DE9F04765
:101D900005460C464FF000092868866826F0700654
:101DA0006068064326F007062068064328688660B8
:101DB000606800F00F0100293BD10011082838D2DB
:101DC000DFE800F0333435360B272D04D4E9031354
:101DD000A2682868FFF7C6FF2EE02068052802D118
:101DE0000120BDE8F0872868D0F820802868006AC4
:101DF00020F00100296808622868876927F0F00749
:101E0000206947EA0017286887612868C0F82080A1
:101E100012E02269A168286800F011F80CE022693C
:101E2000A168286800F01EF806E000BF00BF00BFF0
:101E300002E04FF0010900BF00BF4846D1E730B5CE
:101E40000B461446026A056A25F0010505628169A0
:101E500021F0F00141EA041122F00A021A438161E3
:101E6000026230BD30B50B461446026A056A25F0A1
:101E700010050562816921F4704141EA043122F0C4
:101E8000A00242EA03128161026230BD70B50446CD
:101E90002168096921F44051E26811432268116107
:101EA0002269A1681143626941EA02052168C96893
:101EB00041F20C62914329432268D160216849694B
:101EC00021F44071A2691143226851612D4A2168B1
:101ED000914202D1FEF762FF01E0FEF74FFF00EBF7
:101EE000C00101EB001162689200B1FBF2F100EB5E
:101EF000C00202EB001263689B00B2FBF3F26423A2
:101F0000B2FBF3F202EBC20303EB0212A1EB82017C
:101F1000322202EB01116422B1FBF2F101F0F00177
:101F200000EBC00202EB001263689B00B2FBF3F20D
:101F30006423B2FBF3F201EB021200EBC00101EBF0
:101F4000001163689B00B1FBF3F100EBC00303EBEE
:101F500000136668B600B3FBF6F36426B3FBF6F332
:101F600003EBC30606EB0313A1EB8301322303EB60
:101F700001116423B1FBF3F101F00F011144226858
:101F8000916070BD003801402DE9F04104460D46D6
:101F900017469846069E34E0701C88B32EB1FEF7B3
:101FA00043FDA0EB0800B0422BD900BF00BF216861
:101FB0000C3151E8001F21F4D07021680C3141E848
:101FC0000002002AF3D100BF00BF00BF2168143116
:101FD00051E8001F21F001002168143141E800029E
:101FE000002AF3D100BF202084F8410084F8420089
:101FF00000BF002084F8400000BF0320BDE8F0814E
:10200000FFE7206800682840A84201D1012000E0D5
:102010000020B842C0D00020F0E700002DE9FF4FBB
:1020200081468B461546DDF83C800D9FDDF80CA0FF
:102030005C46012601E07F1E6E4306FB05F0484525
:1020400005D806FB05F0B0FBF5F0B042F3D0BAF1CD
:10205000000F00D07F1EBAF1000F09D00E9840B2D9
:10206000302805D12D2008F80400641C4FF0000A28
:10207000012F0AD9102F08D27F1E04E00E9808F80D
:102080000400641C7F1E002FF8D1BAF1000F03D0AA
:102090002D2008F80400641C0DE0B9FBF6F0B0FB3D
:1020A000F5F105FB110009490968085C08F804000E
:1020B000641CB6FBF5F6002EEFD12146404600F039
:1020C00007F8002004B0BDE8F08F000028410008A8
:1020D00070B505460E46002409E0285D0A2802D1A5
:1020E0000D2000F0E7F8285D00F0E4F8641CB4422D
:1020F000F3D3204670BD00000FB42DE9F04F8BB034
:102100004FF0000B149C15A80490C3E0002500E0DC
:102110006D1C605D252802D0605D0028F8D129463D
:102120002046FFF7D5FF2C4420782528EDD1641CEC
:1021300000264FF020080CE014F8010C302801D1E3
:1021400006B9804606EB8600460020783038064403
:10215000641C2078302802DB20783928ECDD2078D8
:10216000702874D008DC25286CD058286ED06328DD
:1021700009D0642868D111E0732831D0752849D07E
:102180007828F7D161E0049800680A900498001D4F
:10219000049001210AA8FFF79BFF79E004980068EA
:1021A0000A900498001D04904FF000090A98002836
:1021B00007DA0A98C0F1000BCDF828B00120099089
:1021C00001E0002009904FF00A0A05A8CDE9006857
:1021D000029052464946DDE90930FFF71FFF57E0FC
:1021E000049880C80490002500E06D1C785D0028EC
:1021F000FBD129463846FFF76BFFAE4209D9761B63
:1022000003E0012128A0FFF763FF301EA6F10106BD
:10221000F7D13DE0049800680A900498001D0490EE
:102220004FF000094FF00A0A0020099005A8CDE9F7
:102230000068029052464946DDE90930FFF7EEFE9C
:1022400026E004E01AE001E01DE000BF00BF0498B2
:1022500000680A900498001D04904FF000094FF0A8
:10226000100A0020099005A8CDE9006802905246A6
:102270004946DDE90930FFF7D1FE09E0601E012182
:10228000FFF726FF04E0052108A0FFF721FF00BFAC
:1022900000BF641C207800287FF438AF04900BB096
:1022A000BDE8F00F5DF814FB200000004552524FCE
:1022B000520000000A49B1F80024B1F80014491C8A
:1022C000074BA3F8001419468854B1F80014B1F56F
:1022D000806F03DB00211A46A2F80014704700004B
:1022E000A800002000BFFEE702480068C0F30220FB
:1022F000704700000CED00E010B5002804DB0A0771
:10230000130E054A135406E00A07140E034A00F0A0
:102310000F031B1FD45410BD00E400E018ED00E0D3
:1023200070470000C0B00025012400BF18480168B4
:1023300018A0FFF7E1FE1A480068411B19A0FFF73B
:10234000DBFE1748056822464FF400511A48FEF795
:1023500065FB0CB9012000E0002004464FF48071B9
:102360006846FEF795F815A0FFF7C6FE4FF480719A
:102370006846FEF78DF8684601F078F8694616A0C1
:10238000FFF7BAFE4FF47A7000F0DCF8CEE70000F9
:102390001400002074696D6572322025640D0A00F6
:1023A0001000002068656C6C6F20776F726C642081
:1023B00025640D0A000000000010014023232323A0
:1023C0002323236370756C6F6164232323232323EA
:1023D00023230D0A000000002573000070B5054698
:1023E000002D05D0154E3068854209D1002070BD02
:1023F000502080F31188BFF34F8FBFF36F8FFEE73C
:1024000000F0F6FE6C6900F013FF7068844202D0A1
:10241000B068844201D1022070BD0948844205D1D0
:10242000A86A08B1022070BD032070BD054884422F
:1024300002D00CB1012070BD042070BD2800002026
:10244000BC0A0020A80A002001480068704700006C
:102450001400002008B5002000901CE01248B0F8DD
:102460000214B0F80204401C0F4AA2F802041046FD
:10247000405C0090FF23012269460C480068FFF78A
:102480004FFA0948B0F80204B0F5806F03DB002072
:102490000549A1F802040448B0F802040249B1F861
:1024A00000148842DAD108BDA800002000000020F6
:1024B000FEF7CCFAFFF7D7FBFFF78EFAFFF7D4FA57
:1024C000FFF778FBFFF73EFBFFF706FB00F056F83F
:1024D000104A0021104800F08DF810490860104A99
:1024E0000021104800F086F80F4908600F4A0021CB
:1024F0000F4800F07FF80F4908600F48FEF7AAFF69
:102500000E48FEF7A7FF0E4800F0B4FD00F052F8A9
:1025100000BFFEE72C4100081D1C0008040000203D
:1025200050410008431C00080800002074410008C6
:10253000252300080C0000203C050020F4040020A6
:102540008405002010B50146EFF3058048B9EFF38C
:10255000108030B908480068022805D1EFF31180D7
:1025600010B16FF0050404E0002411B1084600F03A
:1025700019FF204610BD000080000020EFF3058009
:10258000002809D1EFF3108030B9094A10680228F9
:1025900005D1EFF3118111B16FF00500704710B153
:1025A0004FF0FF307047012010600020704700009E
:1025B0008000002010B5EFF30580002809D1EFF36B
:1025C000108030B90A4A1068022805D1EFF3118152
:1025D00011B16FF0050010BD012802D04FF0FF309F
:1025E00010BD0220106000F0EFFF002010BD0000C1
:1025F000800000202DE9F04385B00B464FF0000726
:102600000397EFF3058100295DD1EFF310810029D5
:1026100059D12F490968022903D1EFF3118100290B
:1026200051D100284FD080244FF0180C04970DF1A1
:1026300010094FF0FF3152B3166806B1B1469569E3
:1026400005B1AC46ACF10105382D03D2157915F072
:10265000010F03D005B00020BDE8F083556905B136
:10266000AC08D2F80880B8F1000F07D0D668602E09
:1026700004D3166916B10DB1012109E0B8F1000FBC
:1026800006D1D56825B9156915B9002100E00021EA
:10269000012901D061B116E091681269019202919D
:1026A000CDF800C02246494601F044FB03900AE001
:1026B00003A90191A2B2CDF800C0494601F004FB84
:1026C000012800D00397039805B0BDE8F08300000F
:1026D000800000202DE9F04104460F46134E756935
:1026E0003068001D00F0CCFCB4F1FF3F07D137B1DA
:1026F0003068BDE8F041011D0D4800F06DBD2C446F
:1027000030684460AC4206D23068011DB068BDE854
:10271000F04100F046BD3068011D706800F041FDD9
:10272000306B844200D23463BDE8F0812800002081
:10273000BC0A002070B5044600F05AFD1C4D286903
:10274000401C2861286810B1E86938B10CE02C60A1
:102750002869012808D100F093F905E02868E16AAA
:10276000C06A884200D82C60E86A401CE862606455
:10277000E06AA969884200D9A8610E4900EB80008F
:1027800001EB8000211D00F027FD00F051FDE869FC
:1027900000280CD02868E16AC06A884207D206493E
:1027A0004FF080500860BFF34F8FBFF36F8F70BD45
:1027B000280000200C06002004ED00E038B500F0F1
:1027C00017FD0F4CA068B8B90E4800F0DCFC0E48AD
:1027D00000F0D9FC0B4820601430606000200B4BE7
:1027E000009003F1500210210A2000F0F3FFA060D6
:1027F00010B107A100F09CFDBDE8384000F018BD05
:102800006C000020D00A0020E40A0020F80A002012
:10281000546D72510000000070B50D4CE068002846
:1028200015D00C4E00F0E4FCF068C568281D00F0DF
:1028300027FC2069401E2061E068401EE06000F037
:10284000F7FC284600F051F8E0680028EAD170BD96
:1028500028000020A80A00200B46026C002A0CD099
:10286000C1681144C160D0F804C0614501D301685A
:10287000C160C1681846FDF7BEBD70472DE9F04143
:10288000044616460027A56B226C002A10D0C6B15C
:10289000E068FDF7B0FDE168206C091AE16022688C
:1028A000914202D26168081AE060022E16D017E049
:1028B0002068A8B9606801F0E7FA07460020606068
:1028C0000EE0A068FDF797FD216CA0680844A060A9
:1028D0006168884204D32068A06001E005B16D1EE4
:1028E000681CA0633846BDE8F08110B5044694F832
:1028F0005D1000290BD0012911D0022914D05020DD
:1029000080F31188BFF34F8FBFF36F8FFEE7206B0B
:1029100000F0A4FC2046BDE8104000F09FBC20461B
:10292000BDE8104000F09ABC10BD000007490A68DD
:102930001168002904D00021016019B100207047FE
:102940000121F9E7D0680068704700006C000020A2
:102950004FF44061104810F0070F06D0C01D20F062
:1029600007000D49411AC1F540610C4A106000236F
:1029700053600144083921F00701103A11604B609F
:102980000B600B1A436001604068906050604FF02C
:102990000040D06070470000A81200209400002082
:1029A000084E4FF08054084DFFF736FF306801287D
:1029B00004D92C60BFF34F8FBFF36F8F00F0E2FBA1
:1029C000F2E700000C06002004ED00E070B51D46A3
:1029D000049C002909D02260E06321640121204683
:1029E00000F030FF84F84C5070BD2460F4E72DE90E
:1029F000F05F82460B9F0A9D0C9C0E4690469B46BC
:102A00004FEA8801A522206BFDF73AFD206BA8F163
:102A1000010100EB810020F007094FF000080020C1
:102A20002218315C82F83410315C11B1401C10283E
:102A3000F6D384F84380382D00D33725E562E5646A
:102A4000C4F85080201D00F0A9FB04F1180000F02C
:102A5000A5FB2461C5F13800A0616462C4F854800C
:102A6000C4F8588084F85C805A465146484600F0C5
:102A7000EFFA2060002F00D03C60BDE8F09F00001E
:102A800070B500240F4D04EB840005EB800000F0CE
:102A90007AFB641C382CF6D30B4800F074FB0B480F
:102AA00000F071FB0A4800F06EFB0A4800F06BFB77
:102AB000094800F068FB094803494160143181600E
:102AC00070BD00000C0600206C0A0020800A002067
:102AD000940A0020A80A0020BC0A00202800002038
:102AE00010B4144900E011460A688242FBD34B68D7
:102AF00003EB010C844503D1406818444860084644
:102B00000C68D0F804C00CEB0003A3420CD10A4BB4
:102B10001B689A4206D05268624442600A68126892
:102B2000026002E0036000E00260814200D00860C1
:102B300010BC7047940000208400002010B50024D1
:102B400041600061DFF838C091420BD8D11A826928
:102B5000914201D3012410E0011DDCF8040000F0D3
:102B600020FB0AE09A4203D2994201D3012404E0F7
:102B7000011DDCF8000000F014FB204610BD000031
:102B80006C00002010B5044600F032FBA06B20B1B1
:102B9000002400F04DFB204610BD0124F9E710B5DC
:102BA000044600F025FBA06BE16B884201D10124B3
:102BB00000E0002400F03CFB204610BD2DE9F0476A
:102BC00080460C46914600252068002823D0606886
:102BD0004068606004F10806B04201D1416861605C
:102BE0006068C7686068D0F804C0C4F804C0B44521
:102BF00002D1DCF8041061606068D0F80CA005EB2D
:102C0000C50008EB80014B460122504600F0F2FB64
:102C10006D1CBA45E6D12846BDE8F087F8B50546F3
:102C20000E4614480068C068C468201D00F028FAE9
:102C3000E069012810D1A0692B464119324620468F
:102C4000FFF77CFF40B100200346014600902A4672
:102C5000204601F02FFA28B1616A01B02046BDE894
:102C6000F0400847502080F31188BFF34F8FBFF327
:102C70006F8FFEE76C00002030B587B0334D002227
:102C800002A9A86800F03CFF00285CD00298002848
:102C900003DA039A059904989047029800284BDBC1
:102CA000049C606910B1201D00F0EAF901A800F051
:102CB00097F8024602980A283ED2DFE800F00505A0
:102CC000053D263705053D260398A16903460144C5
:102CD0002046FFF733FF00B3616A20468847E0696A
:102CE000012829D1002000900398A16900234218EF
:102CF0001946204601F0DEF978B9502080F311889A
:102D0000BFF34F8FBFF36F8FFEE70398A06128B129
:102D1000811813462046FFF711FF0DE0502080F385
:102D20001188BFF34F8FBFF36F8FFEE794F82C002D
:102D300010B9204600F092FA002202A9A86800F01B
:102D4000DFFE0028A2D107B030BD00006C000020DB
:102D5000F8B505460C4600F081FC684600F040F8E6
:102D60000646009810B101F00BF9F8BD44B9B54220
:102D700006D801F005F931462846FFF74FFFF8BDA8
:102D80000C481CB14168096891B10024A91B224676
:102D9000806800F0E1FA01F0F3F80028EFD106496D
:102DA0004FF080500860BFF34F8FBFF36F8FF8BDB7
:102DB0000124EBE76C00002004ED00E007494868BF
:102DC0000068002805D04868C068C068406808638B
:102DD00070474FF0FF300863704700002800002064
:102DE00070B5044600F0E4FF0546074E30698542A1
:102DF00004D200F00BF80120206001E000202060E8
:102E00003561284670BD00006C000020F8B51B4EEF
:102E100030680068002824D000273068C068056842
:102E2000C468201D00F02CF9616A20468847E069DB
:102E3000012812D1A0692844A84206D96060246103
:102E4000211D306800F0ADF907E000232A4619463D
:102E50002046009701F02EF940B130680068002844
:102E6000DBD13068716831607060F8BD502080F34C
:102E70001188BFF34F8FBFF36F8FFEE76C00002008
:102E800000210278A52A04D1401C491C0278A52AF9
:102E9000FAD0880880B270470A484068B0F1FF3F16
:102EA00007D0502080F31188BFF34F8FBFF36F8F8F
:102EB000FEE7502080F31188BFF34F8FBFF36F8F71
:102EC000FEE700009C00002082B001A8FFF72EFD65
:102ED0000199FFF73DFFFFF7CFFEF6E770B5044617
:102EE00000F086F994F94550002D0CDD606A50B170
:102EF00004F1240001F008F808B100F027FB681E77
:102F000045B2002DF2DC4FF0FF3684F8456000F04A
:102F10008FF900F06DF994F94450002D0CDD206913
:102F200050B104F1100000F0EFFF08B100F00EFB0B
:102F3000681E45B2002DF2DC84F84460BDE87040A4
:102F400000F076B910B504462046FDF711FA204688
:102F5000FDF732FA0F2804D220212154401C0F28FB
:102F6000FBD300212154204410BD00002DE9F04185
:102F70000546002600F072FB334F386808B9FFF7AA
:102F8000E7FCF86805424ED19DB1083515F0070FF2
:102F90000FD005F00700C0F10800054415F0070F39
:102FA00007D0502080F31188BFF34F8FBFF36F8F8E
:102FB000FEE7002D37D07868854234D8234908468B
:102FC000046801E0214604466068A84202D22068F5
:102FD0000028F7D13868844225D0086800F1080637
:102FE000206808606068411B10290FD9601910F033
:102FF000070F07D0502080F31188BFF34F8FBFF326
:103000006F8FFEE741606560FFF76AFD6168786871
:10301000401A7860BA68904200D2B860F8680843F5
:1030200060600020206000F0ABFF16F0070F07D0B3
:10303000502080F31188BFF34F8FBFF36F8FFEE7EF
:103040003046BDE8F081000084000020940000209C
:10305000001F4FF080730360001F21F00101016029
:10306000001F0349016014380260203870470000D7
:10307000992E000808B1014908607047000000203F
:103080000169436882689A60836842685A604A6846
:10309000824201D182684A60002202610868401EB3
:1030A00008600868704700002DE9F04706460B46A7
:1030B00017460024382500F0D1FADFF88C80D8F8C4
:1030C000100083423AD3DFF884906D1E05EB850033
:1030D00009EB800104EBC40006EB80000122FFF73E
:1030E0006DFD0444002DF0D104EBC40006EB80001C
:1030F0000222D8F80410FFF761FD044404EBC40079
:1031000006EB80000222D8F80810FFF757FD0444B0
:1031100004EBC40006EB800004220D49FFF74EFDCE
:10312000044404EBC40006EB800003220949FFF7C6
:1031300045FD044417B1FFF787F9386000F020FF20
:103140002046BDE8F0870000280000200C06002083
:10315000A80A0020BC0A0020034B036003F16000B2
:103160000860802010607047E80B0020044B03606B
:1031700003F1600008604FF4807010607047000039
:10318000480E0020704700F1080141604FF0FF3207
:103190008260C1600161002101607047002101610E
:1031A000704710B4D1F800C0BCF1FF3F02D000F16D
:1031B000080202E0026904E01A4653681C6864458C
:1031C000FAD953684B6099608A6051600861016860
:1031D000491C016010BC704742684A6093688B606C
:1031E00093685960916008610168491C01607047EB
:1031F000502080F31188BFF34F8FBFF36F8F0A49C0
:103200004868401C486001280CD10848006810F04C
:10321000FF0F07D0502080F31188BFF34F8FBFF30B
:103220006F8FFEE7704700009C00002004ED00E077
:1032300009494868002806D0401E4860002801D18E
:1032400080F311887047502080F31188BFF34F8FAF
:10325000BFF36F8FFEE700009C00002070B50028D0
:1032600027D0A0F10804134D6068E968084207D12F
:10327000502080F31188BFF34F8FBFF36F8FFEE7AD
:1032800022683AB1502080F31188BFF34F8FBFF30B
:103290006F8FFEE78843606000F0E0F9606869685E
:1032A000084468602046FFF71BFCBDE8704000F052
:1032B00067BE70BD840000204FF0E0200021016156
:1032C000816105494FF47A720968B1FBF2F1491E38
:1032D00041610721016170472400002010B5FCF70F
:1032E0009FFF114910280ED300F1E02090F8F00361
:1032F0000A78904207D2502080F31188BFF34F8F95
:10330000BFF36F8FFEE709480068896800F4E0604A
:10331000884207D9502080F31188BFF34F8FBFF345
:103320006F8FFEE710BD00009C0000200CED00E058
:103330000022084B53F832C0BCF1000F03D0521CDE
:10334000082AF7D3704743F8321003EBC2014860F4
:1033500070470000CC05002070B504460D461646A7
:10336000FFF746FF94F94400B0F1FF3F4FF0000033
:1033700001D184F8440094F94510B1F1FF3F01D127
:1033800084F84500FFF754FFA06B28B93246294660
:1033900004F1240000F0FAF82046BDE87040FFF781
:1033A0009DBD000010B502460020002A12D00F4833
:1033B000806B38B1502080F31188BFF34F8FBFF37B
:1033C0006F8FFEE700F04AF900211046FFF782F9FF
:1033D00000F0D6FD002807D105494FF08050086065
:1033E000BFF34F8FBFF36F8F10BD00002800002088
:1033F00004ED00E02DE9F0410C4616461A4900287C
:1034000016D00546256005F134006060E86A206149
:10341000286BE061686CA060E86C6061686DA06119
:103420000027052B12D00868854203D1277311E0CD
:103430000D68E7E72373032B0CD100F00FF9A86A9E
:1034400008B10220207300F09BFD03E02846FEF740
:10345000C5FF20732EB1286BFFF712FD2084BDE855
:10346000F0812784BDE8F0812800002070B584B089
:10347000064600253570294801690391006900EB73
:10348000C0008000FFF772FD0446200043D001AA6F
:103490000399FFF709FE039021490198A1FB001051
:1034A00040090190002833D00295039800282FD9B5
:1034B0000298019A00EBC00004EB80008169B1FB27
:1034C000F2F541683046FFF73DFD06465DB10298D2
:1034D0002B4600EBC00004EB800012A1826930464D
:1034E000FCF7C2FE09E0029811A100EBC00004EB5A
:1034F000800082693046FCF7B7FE3046FCF75CFF7F
:1035000006440298401C0290039902988842CFD347
:103510002046FFF7A3FE04B070BD00002800002085
:103520001F85EB510925750909257525250D0A000B
:1035300009257509093C3125250D0A0002498A6AC9
:10354000026049694160704728000020014901205C
:10355000486270472800002010B50C4600280BD0A8
:10356000094A126802F11801FFF71BFE2046BDE868
:1035700010400121FFF7AEB8502080F31188BFF34F
:103580004F8FBFF36F8FFEE72800002070B50D4608
:10359000144600280DD00B4909681831FFF71CFEAE
:1035A0000CB14FF0FF3521462846BDE87040FFF7CB
:1035B00091B8502080F31188BFF34F8FBFF36F8F06
:1035C000FEE700002800002030B587B000250695F2
:1035D000059504AA05A906A8FFF7BEFD069805995A
:1035E000019102900023009518A11A48049A00F056
:1035F000A1FB194C606308B1012000E00020012804
:1036000001D100F023FD01280AD0B0F1FF3F1BD10A
:10361000502080F31188BFF34F8FBFF36F8FFEE709
:10362000502080F31188BFF34F8FBFF36F8F4FF09F
:10363000FF3020630120E0616561FEF771FE07B095
:10364000BDE8304000F056B807B030BD49444C45A5
:1036500000000000A1290008280000200248816B1A
:10366000491C8163704700002800002010B51F4CE2
:10367000A06B002802D00120606210BD00206062B3
:10368000FEF7E2FE2064E26B904204D92168821AC0
:103690004B6D1A444A65E063A069154900EB80024E
:1036A00051F822203AB9C0B1401E00EB800251F817
:1036B0002220002AF7D000EB800201EB82014A6849
:1036C00052684A6001F108039A4201D152684A6087
:1036D0004968C9682160A06110BD502080F311883D
:1036E000BFF34F8FBFF36F8FFEE70000280000206D
:1036F0000C06002000B583B0284908780290FF200E
:103700000870087801909DF804009DF8042000F0EE
:10371000F000904207D0502080F31188BFF34F8F04
:10372000BFF36F8FFEE79DF804001D4B00F05000C3
:103730001870072098609DF8040010F0800F0BD0DF
:103740009868401E98609DF80400400001909DF824
:10375000040010F0800FF3D19868032807D05020A0
:1037600080F31188BFF34F8FBFF36F8FFEE74FF4E5
:1037700040709860029808700A48016841F470012E
:103780000160016841F070410160FFF795FD002084
:103790005860FCF70FFD03B0002000BD00E400E01E
:1037A0009C00002020ED00E010B5502080F311882F
:1037B000BFF34F8FBFF36F8F00F000FB18B10449C8
:1037C0004FF080500860002080F3118810BD000089
:1037D00004ED00E038B5049D002804D05BB102B1CF
:1037E00089B1C2B120E0502080F31188BFF34F8F20
:1037F000BFF36F8FFEE7502080F31188BFF34F8F28
:10380000BFF36F8FFEE7502080F31188BFF34F8F17
:10381000BFF36F8FFEE739B1502080F31188BFF3FB
:103820004F8FBFF36F8FFEE74FF0500CCDF800C005
:103830001C46012384F846302B460094FFF7C6F857
:10384000204638BD70B504460D46002C25D0FFF744
:10385000CFFC226CE16B206801FB0200606000205D
:10386000A0632068A060E16B226C2068491E01FB08
:103870000200E0604FF0FF3084F8440084F8450017
:103880009DB104F11000FFF77EFC04F12400FFF766
:103890007AFCFFF7CDFC012070BD502080F3118829
:1038A000BFF34F8FBFF36F8FFEE720690028F0D082
:1038B00004F1100000F028FB0028EAD004494FF082
:1038C00080500860BFF34F8FBFF36F8FE1E70000B8
:1038D00004ED00E02DE9FF4782B004468A461F460A
:1038E0000025002C03D0BAF1000F08D011E05020C1
:1038F00080F31188BFF34F8FBFF36F8FFEE7206C0B
:1039000038B1502080F31188BFF34F8FBFF36F8F12
:10391000FEE7022F0AD1E06B012807D0502080F388
:103920001188BFF34F8FBFF36F8FFEE700F032FABD
:1039300048B9049838B1502080F31188BFF34F8FF5
:10394000BFF36F8FFEE700264FF08058DFF8F0904E
:10395000FFF74EFCA06BE16B884205D3022F03D02A
:10396000049808B335B329E03A4651462046FEF79D
:1039700085FF616A59B104F1240000F0C5FA68B10D
:10398000C9F80080BFF34F8FBFF36F8F06E028B1F7
:10399000C9F80080BFF34F8FBFF36F8FFFF748FC6C
:1039A00006B00120BDE8F087FFF742FC06B000201A
:1039B000BDE8F0876846FFF7C1FD0125FFF738FC39
:1039C000FFF74CFEFFF714FC94F94400B0F1FF3F01
:1039D00001D184F8446094F94500B0F1FF3F01D172
:1039E00084F84560FFF724FC04A9684600F02CF930
:1039F00040B12046FFF772FA00F0C2FA06B000208C
:103A0000BDE8F0872046FFF7CAF890B104F1100036
:103A10000499FFF7A1FD2046FFF760FA00F0B0FA25
:103A2000002895D1C9F80080BFF34F8FBFF36F8F87
:103A30008EE72046FFF752FA00F0A2FA88E700006E
:103A400004ED00E02DE9F0470446894617461E467E
:103A5000002C03D0B9F1000F08D011E0502080F302
:103A60001188BFF34F8FBFF36F8FFEE7206C38B123
:103A7000502080F31188BFF34F8FBFF36F8FFEE7A5
:103A8000022E0AD1E06B012807D0502080F3118864
:103A9000BFF34F8FBFF36F8FFEE7FFF71FFC502080
:103AA000EFF3118880F31188BFF34F8FBFF36F8F4F
:103AB000A06BE16B884206D3022E04D0002088F36D
:103AC0001188BDE8F08794F94550324649462046B2
:103AD000FEF7D4FEB5F1FF3F04D0681C84F8450022
:103AE0000120ECE7606A0028FAD004F1240000F01D
:103AF0000BFA0028F4D0002FF2D001203860EFE755
:103B00002DE9F74783B004468A460025002C03D0F0
:103B1000BAF1000F08D011E0502080F31188BFF3F4
:103B20004F8FBFF36F8FFEE7206C38B1502080F3CA
:103B30001188BFF34F8FBFF36F8FFEE700F02AF9B4
:103B400048B9059838B1502080F31188BFF34F8FE2
:103B5000BFF36F8FFEE700274FF08058DFF8E49047
:103B6000FFF746FBA66BC6B151462046FEF774FE32
:103B7000701EA063206950B104F1100000F0C4F978
:103B800028B1C9F80080BFF34F8FBFF36F8FFFF7E5
:103B90004FFB06B00120BDE8F087059808B135B1AC
:103BA00009E0FFF745FB06B00020BDE8F087684656
:103BB000FFF7C4FC0125FFF73BFBFFF74FFDFFF7C5
:103BC00017FB94F94400B0F1FF3F01D184F8447031
:103BD00094F94500B0F1FF3F01D184F84570FFF73B
:103BE00027FB05A9684600F02FF868B12046FFF7CB
:103BF00075F900F0C5F92046FEF7C4FF0028AFD0E4
:103C000006B00020BDE8F0872046FEF7BBFF90B16C
:103C100004F124000599FFF79FFC2046FFF75EF9A9
:103C200000F0AEF900289BD1C9F80080BFF34F8F98
:103C3000BFF36F8F94E72046FFF750F900F0A0F92B
:103C40008EE7000004ED00E070B505460C46002D3F
:103C500015D0E4B1FFF7CCFADFF868C0DCF8140047
:103C60006B68C11A2268B2F1FF3F18D02E68DCF8E9
:103C700028C0664515D0834213D801241DE050208A
:103C800080F31188BFF34F8FBFF36F8FFEE7502093
:103C900080F31188BFF34F8FBFF36F8FFEE70024CF
:103CA0000BE08A4206D9501A20602846FFF746FCEE
:103CB000002402E0002020600124FFF7B9FA20462A
:103CC00070BD0000280000202DE9F04F85B081462E
:103CD0000F9F0E9E8A4690469B464FEA8800FFF74C
:103CE00045F9054628000AD06020FFF73FF9044651
:103CF0000CB1256304E02846FFF7B0FA00E0002489
:103D00009CB1002084F85D0003905B46424651461A
:103D10000197009602944846FEF769FE2046FEF79A
:103D200009FD05B00120BDE8F08F05B04FF0FF3070
:103D3000BDE8F08F70B586B00646DDF828C00C9C53
:103D40000B98002816D0ECB1602504952063022062
:103D500084F85D00002005AD0390CDF800C001950A
:103D600002943046FEF743FE2046FEF7E3FC05983A
:103D700006B070BD502080F31188BFF34F8FBFF3A2
:103D80006F8FFEE7502080F31188BFF34F8FBFF392
:103D90006F8FFEE70548C169002903D0806B18B119
:103DA0000020704701207047022070472800002043
:103DB0000148406970470000280000202DE9F041CB
:103DC00000262F4FB86B002808D0386A401C386294
:103DD000786A00B101263046BDE8F0817869451C5B
:103DE0007D619DB97868006838B1502080F31188F2
:103DF000BFF34F8FBFF36F8FFEE77868B9687960C4
:103E0000B860B86A401CB862FEF7D8FF386BDFF8BC
:103E1000748085420DD37868006838B17868C068CE
:103E2000C468606885420ED2386302E04FF0FF300C
:103E300038633868C06A00EB800058F82000012819
:103E4000C6D90126C4E7201DFFF71AF9A06A18B1E8
:103E500004F11800FFF714F9E16AB869814200D94A
:103E6000B96101EB810008EB8000211DFFF7B4F977
:103E7000E06A3968C96A8842CDD30126CBE70000E1
:103E8000280000200C06002070B504460021002800
:103E900033D01B4D2868844207D0502080F311880E
:103EA000BFF34F8FBFF36F8FFEE7206D38B1401E19
:103EB0002065E36CE26A9A421FD040B11DE05020B9
:103EC00080F31188BFF34F8FBFF36F8FFEE7201D84
:103ED000FFF7D6F8E06CE062C0F13800A061E06A5C
:103EE000A969884200D9A861064900EB800001EB6E
:103EF0008000211DFFF770F90121084670BD000008
:103F0000280000200C06002070B5C068C468002C92
:103F100014D004F11800FFF7B3F8164DA86BA8B140
:103F200004F118011448FFF757F9E06A2968C96AD3
:103F300088421CD901200121696270BD502080F3A4
:103F40001188BFF34F8FBFF36F8FFEE7201DFFF780
:103F500097F8E06AA969884200D9A861074900EB8F
:103F6000800001EB8000211DFFF736F9DDE700201E
:103F700070BD000028000020940A00200C060020DC
:103F80002DE9F047002400272D4DA86B002807D00D
:103F9000FFF72EF9A86B401EA863A86B40B149E05B
:103FA000502080F31188BFF34F8FBFF36F8FFEE770
:103FB000286900283ED0234E30684FF0010800B336
:103FC000A6F59169F068C46804F11800FFF758F885
:103FD000201DFFF755F8E06AA969884200D9A86159
:103FE00000EB800009EB8000211DFFF7F5F8E06A87
:103FF0002968C96A884201D3C5F82480306800283E
:10400000E0D10CB1FEF7DAFE2C6A4CB1FFF7D6FE18
:1040100008B1C5F82480641E002CF7D10020286266
:10402000686A38B10127084938070860BFF34F8F25
:10403000BFF36F8FFFF7FCF83846BDE8F08700004C
:1040400028000020940A002004ED00E030B587B07D
:104050000024FEF7B3FB134DA868B0B10020069012
:10406000059004AA05A906A8FFF780F80599069807
:10407000022200920191029000230BA10C48049AA5
:10408000FFF758FEE86000B1012414B107B02046E4
:1040900030BD502080F31188BFF34F8FBFF36F8F77
:1040A000FEE700006C000020546D72205376630020
:1040B000C92E0008F0B585B084460A9D16461F46F5
:1040C0000022BCF1000F14D0164CA06800B3009180
:1040D0000196CDF808C006291BDAFFF75BFE02281F
:1040E0000FD000231A466946A068FFF7F3FB02468B
:1040F00015E0502080F31188BFF34F8FBFF36F8F0F
:10410000FEE700232A466946A068FFF7E3FB024664
:1041100005E000233A466946FFF794FC024605B0E5
:104120001046F0BD6C000020C4410008F0410008BA
:10413000000000000000000000000000000000007F
:104140000002000028000000000000000000000045
:10415000E441000800000000000000000000000032
:104160000000000000020000080000000000000045
:1041700000000000D841000800000000000000001E
:104180000000000000000000000200000900000024
:1041900000000000000000000203040506070809F3
:1041A0000A0B0C0D0E0F10100102000000000000A1
:1041B00000000102030406070809000000000102D4
:1041C0000304000030313233343536373839616218
:1041D00063646566000000006D795461736B303371
:1041E000000000006D796C6F675461736B00000014
:1041F00064656661756C745461736B001C420008E1
:1042000000000020A800000028010008C4420008A7
:10421000A800002060240000440100080000000005
:10422000000000000000000000000000000000008E
:10423000000000000000000010000000010000006D
:104240000024F40000000000000000000000000056
:10425000000000000000000000000000000000005E
:10426000000000000000000000000000000000004E
:10427000000000000000000000000000000000003E
:10428000000000000000000000000000000000002E
:10429000000000000000000000000000000000001E
:1042A000000000000000000000000000000000000E
:1042B000000000000000000000000000AAAAAAAA56
:0442C00000000000FA
:04000005080000ED02
:00000001FF
