:020000040800F2
:10000000A8210020390200084518000879020008DC
:10001000411800082B080008051F00080000000018
:100020000000000000000000000000009101000836
:100030002F08000800000000D5010008C1180008C2
:10004000530200085302000853020008530200083C
:10005000530200085302000853020008530200082C
:10006000530200085302000853020008530200081C
:10007000530200085302000853020008530200080C
:1000800053020008530200085302000853020008FC
:1000900053020008530200085302000853020008EC
:1000A00053020008530200085302000853020008DC
:1000B00053020008530200085302000853020008CC
:1000C00053020008530200085302000853020008BC
:1000D00053020008530200085302000853020008AC
:1000E00053020008530200085302000800F002F80F
:1000F00000F03FF80AA090E8000C82448344AAF183
:100100000107DA4501D100F034F8AFF2090EBAE880
:100110000F0013F0010F18BFFB1A43F0010318473B
:10012000444C0000644C0000103A24BF78C878C1E9
:10013000FAD8520724BF30C830C144BF04680C60ED
:10014000704700000023002400250026103A28BF35
:1001500078C1FBD8520728BF30C148BF0B60704739
:10016000782900F0CB80002070471FB51FBD10B567
:1001700010BD00F020FB1146FFF7F7FF02F0AAFBCD
:1001800000F03EFB03B4FFF7F2FF03BC00F046FBB8
:10019000224B19680868B0E8F00F80F30988BFF3B4
:1001A0006F8F4FF0000080F311884EF00D0E7047F6
:1001B0000000000006480068006880F3088862B606
:1001C00061B6BFF34F8FBFF36F8F00DF00BF00BF7B
:1001D00008ED00E0EFF30980BFF36F8F0F4B1A6853
:1001E00020E9F00F106008B54FF0500080F311883F
:1001F000BFF34F8FBFF36F8F03F050FB4FF0000042
:1002000080F31188BDE8084019680868B0E8F00F6D
:1002100080F30988BFF36F8F704700BF180000207C
:10022000EFF3058070470000EFF308807047EFF3AD
:100230000980704768467047094880470948004769
:10024000FEE7FEE7FEE7FEE7FEE7FEE7FEE7FEE786
:10025000FEE7FEE704480549054A064B70470000E3
:1002600037190008ED000008A81B0020A821002075
:10027000A81D0020A81D00207046694601F002FF5D
:10028000FFF7FEFF0FB41CB5074B06AA7B44694677
:100290000090059800F055FA0020694600F064FAD5
:1002A0001CBC5DF814FB0000D904000070B50446C6
:1002B00085690068C10601D5302600E02026C00708
:1002C00007D070BDD4E9012130469047206A401C18
:1002D00020626D1EF6D570BD70B504468569007844
:1002E000C00707D170BDD4E9012120209047206AC2
:1002F000401C20626D1EF6D570BD000070B504462E
:100300000D4621461068AFF300802188090502D50B
:100310000F4A7A4402E00E4A7A440E32002104F178
:10032000240305E000F00F060009965D5E54491CA9
:100330000028F7D120780023000704D5702D02D0C3
:1003400009B1022311322046BDE8704000F09AB98D
:10035000764100002DE9F05F894604464FF0000A1F
:10036000DFF874B1FB44C0F820A02046E16888475C
:10037000002874D0252806D0D4E901219047206AAE
:10038000401C2062F1E700265F462046E16888476E
:100390002028054607DB312D05D2781910F8200CEE
:1003A00008B10643F1E7B00701D526F00406C4F80A
:1003B0001CA00027C4F818A02A2D09D0284601F057
:1003C000BFFD38B304EB8708303DC8F8185019E07A
:1003D00059F8041B204604EB87029161E1688847C5
:1003E000012F054618D1E069002820DA26F0200602
:1003F0001DE0D8F8180000EB800005EB4000303815
:10040000C8F818002046E1688847054601F098FDC5
:100410000028EED1012F0AD02E2D08D12046E16808
:1004200088477F1C0546022F46F02006C4DBA069E2
:10043000002803DA404246F00106A061F00701D02F
:1004400026F010066C2D0BD0682D09D04C2D39D01C
:100450006A2D35D0742D35D07A2D33D016E038E0A2
:10046000E1682F4620468847B842054609D16C2FDF
:1004700026D04FF48060E168064320468847054651
:1004800004E06C2F1AD04FF4807006430DB3A5F131
:100490004100192802D8203546F400664A4629460C
:1004A000204626604E46FFF75BFE80B101280BD048
:1004B000F61D26F0070000F1080956E74020E4E7A2
:1004C0008020D8E70020D6E706F104094DE728464A
:1004D00052E7206ABDE8F09F4C410000032A40F239
:1004E000308010F0030C00F0158011F8013BBCF1D6
:1004F000020F624498BF11F801CB00F8013B38BFEE
:1005000011F8013BA2F1040298BF00F801CB38BFFB
:1005100000F8013B11F0030300F02580083AC0F019
:10052000088051F8043B083A51F804CBA0E80810C1
:10053000F5E7121D5CBF51F8043B40F8043BAFF3F4
:100540000080D20724BF11F8013B11F801CB48BF4E
:1005500011F8012B24BF00F8013B00F801CB48BF84
:1005600000F8012B704710B5203AC0F00B80B1E8BD
:100570001850203AA0E81850B1E81850A0E81850D8
:10058000BFF4F5AF5FEA027C24BFB1E81850A0E8E1
:10059000185044BF18C918C0BDE810405FEA827CFB
:1005A00024BF51F8043B40F8043B08BF7047D20712
:1005B00028BF31F8023B48BF11F8012B28BF20F8B3
:1005C000023B48BF00F8012B704702F0FF0343EAEB
:1005D000032242EA024200F0CEB84FF0000200B51A
:1005E000134694469646203922BFA0E80C50A0E856
:1005F0000C50B1F12001BFF4F7AF090728BFA0E804
:100600000C5048BF0CC05DF804EB890028BF40F8CF
:10061000042B08BF704748BF20F8022B11F0804F11
:1006200018BF00F8012B704710B5044610F0030FF7
:1006300008BF11F0030F40F015804FF0013E121F6C
:10064000C0F20E8051F8043BA3EB0E0C2CEA030C15
:100650001CEACE1C08BF40F8043BF0D0A1F1040115
:1006600002F10402521E08DB11F8013B002B00F8D6
:10067000013BF7D1114600F07CF8204610BD7047D1
:10068000704770472DE9F0470D469946924604465B
:1006900000F124080168880604D5E06921F0100102
:1006A000216000E00120A84201DD471B00E0002797
:1006B000A1697A1902EB0900081AA0612078C00626
:1006C00002D42046FFF7F2FD002608E0D4E901211C
:1006D0001AF806009047206A401C761C20624E459E
:1006E000F4DB2078C0060AD52046FFF7DFFD06E0E0
:1006F000D4E9012130209047206A401C2062381E36
:10070000A7F10107F4DC07E0D4E9012118F805009E
:100710009047206A401C2062281EA5F10105F3DCE9
:100720002046FFF7D9FD2078000602D50220BDE85B
:10073000F0870120FBE7000001694A1C026108788C
:10074000704700B58FB0CDE9013100210591054911
:100750007944CDE9031011466846FFF7FBFD0FB061
:1007600000BD0000E5FFFFFF0A6802F8010B0A6008
:1007700070474FF000020429C0F0128010F0030C03
:100780003FF42DAFCCF1040CBCF1020F18BF00F800
:10079000012BA8BF20F8022BA1EB0C01FFF71FBF14
:1007A0005FEAC17C24BF00F8012B00F8012B48BF91
:1007B00000F8012B7047754600F02CF8AE46050096
:1007C0006946534620F00700854618B020B5FFF76C
:1007D00041FDBDE820404FF000064FF000074FF00C
:1007E00000084FF0000B21F00701AC46ACE8C0094F
:1007F000ACE8C009ACE8C009ACE8C0098D46704758
:1008000010B50446AFF300802046BDE81040FFF766
:10081000B9BC000000487047441B00200149182063
:10082000ABBEFEE726000200704700BFFEE7704740
:1008300072B600BFFEE700002DE9F847034600222C
:1008400094466EE14FF0010808FA02F4D1F80080F6
:1008500008EA0400A0427DD1DFF8DCA2D1F80480D0
:10086000A8EB0A09D0453AD014DCB8F1030F50D0F8
:1008700009DCB8F1000F31D0B8F1010F1CD0B8F18C
:10088000020F49D120E0B8F1110F18D0B8F1120FC2
:1008900042D11EE0B9F5881F25D006DCB9F5803FAE
:1008A00020D0B9F5801F37D11AE0B9F5001F18D054
:1008B000B9F5041F30D117E0D1F80CC02DE0D1F804
:1008C0000C8008F1040C28E0D1F80C8008F1080C29
:1008D00023E0D1F80C8008F10C0C1EE000BF00BF33
:1008E00000BF00BF00BF00BFD1F80880B8F1000F03
:1008F00002D14FF0040C0BE0D1F80880B8F1010FE1
:1009000003D14FF0080C1C6102E04FF0080C5C6151
:1009100003E04FF0000C00E000BF00BFFF2801D84B
:10092000984601E003F104084646FF2802D84FEA42
:10093000820803E0A2F108084FEA88084746D6F883
:1009400000804FF00F0909FA07F928EA09080CFAA4
:1009500007F900E088E048EA0908C6F80080D1F805
:10096000048008F08058B8F1805F7DD100BFDFF8C7
:10097000CC81D8F8188048F00108DFF8C091C9F898
:100980001880C846D8F8188008F00108CDF8008013
:1009900000BF00BF4FEAB9384FEA920958F8295012
:1009A0004FEA82784FEA18794FF00F0808FA09F8F1
:1009B00025EA0805DFF88881434502D14FF0000899
:1009C00016E0DFF88081434502D14FF001080FE0C7
:1009D000DFF87481434502D14FF0020808E0DFF8E8
:1009E0006C81434502D14FF0030801E04FF0040849
:1009F0004FEA82794FEA197908FA09F848EA0505B9
:100A0000DFF84C814FEA920948F82950D1F8048068
:100A100008F48018B8F5801F0AD1DFF83881D8F8BB
:100A2000008048EA0008DFF82C91C9F8008009E04E
:100A3000DFF82081D8F8008028EA0008DFF8149158
:100A4000C9F80080D1F8048008F40018B8F5001F38
:100A500010D1DFF8008108F10408D8F8008048EAD6
:100A60000008DFF8F09000E05AE009F10409C9F845
:100A700000800DE0DFF8DC8008F10408D8F8008081
:100A800028EA0008DFF8CC9009F10409C9F80080D1
:100A9000D1F8048008F40038B8F5003F0ED1DFF833
:100AA000B480A8F10408D8F8008048EA0008DFF80C
:100AB000A490A9F10409C9F800800DE0DFF8948042
:100AC000A8F10408D8F8008028EA0008DFF884902C
:100AD000A9F10409C9F80080D1F8048008F480382D
:100AE000B8F5803F0ED1DFF86C80A8F10808D8F87F
:100AF000008048EA0008DFF85C90A9F10809C9F80D
:100B000000800DE0DFF84C80A8F10808D8F80080DC
:100B100028EA0008DFF83C90A9F10809C9F800802C
:100B2000521CD1F8008028FA02F8B8F1000F7FF4C7
:100B300089AEBDE8F88700000000111000100240E7
:100B400000080140000C0140001001400014014069
:100B500008000140080401400AB1016101E00B04F2
:100B600003617047014800687047000008000020DA
:100B70000348006803490978084401490860704740
:100B8000080000201000002010B50848006840F060
:100B9000100006490860032000F09EF80F2000F0C6
:100BA00007F800F02BF8002010BD000000200240E4
:100BB00070B504460E4800784FF47A71B1FBF0F03E
:100BC0000C490968B1FBF0F5284600F0EFFB08B1CD
:100BD000012070BD102C07D200222146501E00F0CB
:100BE0003DF80548046001E00120F2E70020F0E74D
:100BF00010000020140000200C00002008B500BFE9
:100C00001448806940F001001249886108468069F3
:100C100000F00100009000BF00BF00BF0846C0699F
:100C200040F08050C8610846C06900F080500090D4
:100C300000BF00BF00220F21901E00F00FF800BF80
:100C40000549486820F0E06040F00070486000BF4F
:100C500008BD000000100240000001402DE9F05FD7
:100C600080460D461646002701F04EF907463946E4
:100C70002A46334601F00700C0F1070ABAF1040F13
:100C800002D94FF0040A01E0C0F1070AD14600F191
:100C9000040ABAF1070F02D24FF0000A01E0A0F1F6
:100CA000030AD4464FF0010A0AFA09FAAAF1010A26
:100CB0000AEA020A0AFA0CFA4FF0010B0BFA0CFBD3
:100CC000ABF1010B0BEA030B4AEA0B042146404649
:100CD00001F022F9BDE8F09F00BF00F00702064BCB
:100CE00019684FF6FF031940044B0B4343EA0221F6
:100CF000014B196000BF70470CED00E00000FA05E1
:100D000070B504460D460CB9012070BD5A48006804
:100D100000F00700A8420ED25748006820F00700F4
:100D20002843554908600846006800F00700A842BB
:100D300001D00120E9E7207800F0020002281DD14F
:100D4000207800F00400042805D14C48406840F4A5
:100D5000E0604A494860207800F00800082805D182
:100D60004648406840F46050444948604348406801
:100D700020F0F000A168084340494860207800F066
:100D8000010078B36068012806D13C48006800F48F
:100D9000003090B90120B8E76068022806D13748D2
:100DA000006800F0007040B90120AEE733480068E9
:100DB00000F0020008B90120A7E73048406820F0A1
:100DC0000300616808432D494860FFF7CBFE0646E3
:100DD00009E0FFF7C7FE801B41F28831884202D943
:100DE000032092E707E02548406800F00C006168A6
:100DF000B0EB810FEDD12048006800F00700A84259
:100E00000ED91D48006820F0070028431A490860E1
:100E10000846006800F00700A84201D0012074E7EE
:100E2000207800F00400042807D11448406820F41A
:100E3000E060E168084311494860207800F008004C
:100E4000082808D10D48406820F46050216940EA24
:100E5000C1000A49486000F03FF808494968C1F3F9
:100E60000311074A515CC8400649086006480068FB
:100E7000FFF79EFE002048E70020024000100240DD
:100E800076430008140000200C0000200148006890
:100E9000704700001400002000B5FFF7F7FF044979
:100EA0004968C1F30221034A515CC84000BD0000FB
:100EB000001002408643000800B5FFF7E7FF044931
:100EC0004968C1F3C221034A515CC84000BD00001B
:100ED000001002408643000870B500210022002463
:100EE00000230020134D696801F00C05F5B1042DB5
:100EF00002D0082D19D101E00F4819E00F4DC1F3C0
:100F00008346AB5D01F4803555B10A4D6D68C5F37C
:100F100040450B4E725D084D5D43B5FBF2F402E0B7
:100F2000084D03FB05F4204602E000BF024800BF65
:100F300000BF70BD0010024000127A006443000838
:100F40007443000800093D00F8B504460CB90120BF
:100F5000F8BD207800F00100002878D0F8484068FB
:100F600000F00C0004280CD0F548406800F00C009C
:100F7000082811D1F248406800F48030B0F5803F75
:100F80000AD1EF48006800F4003000285FD06068A4
:100F900000285CD10120DBE700BF6068B0F5803F2E
:100FA00006D1E748006840F48030E549086028E051
:100FB000606858B9E248006820F48030E049086071
:100FC0000846006820F4802008601AE06068B0F5E8
:100FD000A02F0BD1DA48006840F48020D84908607F
:100FE0000846006840F4803008600AE0D448006891
:100FF00020F48030D24908600846006820F4802040
:10100000086000BF606888B1FFF7ACFD054606E0E8
:10101000FFF7A8FD401B642801D9032098E7C848C2
:10102000006800F400300028F2D010E0FFF79AFDCD
:10103000054606E0FFF796FD401B642801D9032012
:1010400086E7BF48006800F400300028F2D120781D
:1010500000F00200022857D1B948406800F00C00A7
:1010600050B1B748406800F00C00082818D1B448C7
:10107000406800F4803098B9B148006800F0020080
:1010800020B12069012801D0012061E7AC48006847
:1010900020F0F800616940EAC100A949086033E026
:1010A0002069E8B10120A7490860FFF75BFD05460C
:1010B00006E0FFF757FD401B022801D9032047E750
:1010C0009F48006800F002000028F2D09C480068A9
:1010D00020F0F800616940EAC1009949086013E016
:1010E000002098490860FFF73DFD054606E0FFF740
:1010F00039FD401B022801D9032029E790480068E8
:1011000000F002000028F2D1207800F00800082842
:101110002DD1A069B8B101208B490860FFF722FDED
:10112000054606E0FFF71EFD401B022801D90320FB
:101130000EE78348406A00F002000028F2D0012048
:1011400000F082FB13E000207F490860FFF70AFDF2
:10115000054606E0FFF706FD401B022801D90320E3
:10116000F6E67748406A00F002000028F2D12078C5
:1011700000F00400042873D100277148C06900F012
:10118000805070B900BF6E48C06940F080506C4913
:10119000C8610846C06900F08050009000BF00BFE1
:1011A00001276A48006800F48070B0B96748006899
:1011B00040F4807065490860FFF7D4FC054606E0FE
:1011C000FFF7D0FC401B642801D90320C0E65F482C
:1011D000006800F480700028F2D000BFE0680128A9
:1011E00006D15748006A40F001005549086227E0DF
:1011F000E06858B95248006A20F00100504908627E
:101200000846006A20F00400086219E0E06805283A
:101210000BD14B48006A40F0040049490862084677
:10122000006A40F0010008620AE04548006A20F0C8
:101230000100434908620846006A20F00400086281
:1012400000BFE068A0B1FFF78DFC054609E0FFF79D
:1012500089FC401B41F28831884202D9032077E69D
:1012600022E03748006A00F002000028EFD012E0C8
:10127000FFF778FC054608E0FFF774FC401B41F2DD
:101280008831884201D9032062E62D48006A00F0C7
:1012900002000028F0D1012F05D12948C06920F0B3
:1012A00080502749C86100BFE069C8B3244840683E
:1012B00000F00C00082860D0E069022848D1002026
:1012C00020490866FFF74EFC054606E0FFF74AFC9A
:1012D000401B022801D903203AE61948006800F0B3
:1012E00000700028F2D1206AB0F5803F07D1144881
:1012F000406820F40030A168084311494860D4E9EF
:10130000080108430E49496821F4741108430C4947
:10131000486001200B490866FFF724FC054607E0FA
:101320003DE0FFF71FFC401B022801D903200FE618
:101330000348006800F000700028F2D02FE00000A1
:10134000001002400000424280044242007000400F
:10135000002014490866FFF705FC054606E0FFF784
:1013600001FC401B022801D90320F1E50E4800686A
:1013700000F000700028F2D111E0E069012800D1EE
:10138000E6E50948466806F48031206A814204D1C6
:1013900006F47011606A814201D00120D8E5002076
:1013A000D6E50000000042420010024070B504463D
:1013B0002546681EB0F1807F01D301200FE0681E32
:1013C0004FF0E02148610F214FF0FF3000F0A4FD05
:1013D00000204FF0E021886107200861002070BDE7
:1013E00030B502460B4600BF92F83C00012801D1FF
:1013F000022030BD012082F83C0000BF022082F8AC
:101400003D00106844681068816824F07004186812
:10141000044310684460104D1068A8420BD0106857
:10142000B0F1804F07D00D4D1068A84203D00C4D8D
:101430001068A84205D121F0800158680143106866
:101440008160012082F83D0000BF002082F83C004E
:1014500000BF00BFCDE70000002C014000040040A9
:101460000008004010B504460CB9012010BD94F8E6
:101470003D0028B9002084F83C00204600F026F802
:10148000022084F83D00211D206800F055FA01205B
:1014900084F8460000BF84F83E0001213F2001553A
:1014A000402001554120015500BF00BF012084F8B4
:1014B000420043200155442001554520015500BFFD
:1014C000012084F83D000020D0E7000008B5094A5B
:1014D000016891420DD100BF0749896941F400615B
:1014E000054A91611146896901F40061009100BFCC
:1014F00000BF08BD002C01400010024070B504463A
:101500000D4600BF94F83C00012801D1022070BDB7
:10151000012084F83C0000BF022084F83D002946E9
:10152000204600F04EFA48B1012084F83D0000BF8B
:10153000002084F83C0000BF0120E8E72068C06874
:1015400020F040002168C8602068C06820F4804016
:101550002168C860012084F83D0000BF002084F8A5
:101560003C0000BF00BFD2E710B504460CB9012013
:1015700010BDA06900B100E000BF94F8410028B997
:10158000002084F84000204600F02AF8242084F847
:1015900041002068C06820F400502168C8602046DF
:1015A00000F090FA2068006920F4904021680861FA
:1015B0002068406920F02A00216848612068C068DE
:1015C00040F400502168C86000206064202084F846
:1015D000410084F842000020606300BFC8E70000BB
:1015E00010B586B004460020029003900490059048
:1015F0001A49206888422ED100BF1948806940F4FA
:101600008040174988610846806900F48040019055
:1016100000BF00BF00BF0846806940F00400886139
:101620000846806900F00400019000BF00BF481523
:101630000290022003900320059002A90948FFF7B9
:10164000FBF84FF48060029000200390049002A900
:101650000448FFF7F1F806B010BD00000038014063
:1016600000100240000801402DE9F84F04460E46E4
:10167000174699464FF0000A94F8410020284AD1B5
:1016800006B117B90120BDE8F88F00206064212061
:1016900084F84100FFF766FA8246A784E784A068D1
:1016A000B0F5805F04D1206910B90025B04602E092
:1016B00035464FF000081BE05346002280212046AB
:1016C000CDF8009000F07CFA08B10320DBE745B9C3
:1016D000B8F80000C0F308002168486008F102086B
:1016E00003E02878216848606D1CE08C401EE0848F
:1016F000E08C0028E0D15346002240212046CDF85E
:10170000009000F05DFA08B10320BCE7202084F8C7
:1017100041000020B7E70220B5E7000000B585B022
:101720000020019002900390049000BF1748806948
:1017300040F01000154988610846806900F01000EB
:10174000009000BF00BF00BF0846806940F0040061
:1017500088610846806900F00400009000BF00BF67
:1017600000224FF400510A48FFF7F6F94FF40050F9
:10177000019001200290002003900220049001A912
:101780000348FFF759F805B000BD00000010024003
:101790000010014000B587B0142102A8FEF71DFF1C
:1017A000002000900190164816490860002048600B
:1017B0000021144881604FF6FF71C1604FF48071C1
:1017C0000161002141618161FFF74CFE08B1FFF723
:1017D0002FF8062002900020039002A90948FFF785
:1017E0008DFE08B1FFF724F80020009001906946B3
:1017F0000448FFF7F5FD08B1FFF71AF807B000BD80
:10180000002C0140A400002010B50B480B490860D3
:101810004FF4E1304860002108488160C1600161F7
:101820000C21416100218161C161FFF79DFE08B17A
:10183000FEF7FEFF10BD000000380140EC00002064
:1018400000BFFEE700BFFEE708B508490968C90800
:101850004FF47A72B1FBF2F14143009100BF00BF37
:1018600000994A1E00920029F9D108BD14000020F9
:1018700000BFFF210CA000F05BFA012251030F48CA
:10188000FFF76AF94FF47A7001F05AF800224FF42A
:1018900000510A48FFF760F94FF47A7001F050F8F0
:1018A00001F0E8FDE5E7000068656C6C6F20776F7C
:1018B000726C642025640D0A0000000000100140D5
:1018C00010B5FFF755F902F06FFB012801D002F0C7
:1018D00075F810BD00B58FB0282105A8FEF77DFE74
:1018E00014216846FEF779FE022005900120099038
:1018F00010200A9002200C9000210D914FF46011ED
:101900000E9105A8FFF720FB08B1FEF791FF0F200D
:10191000009002200190002002904FF4806003901C
:101920000020049002216846FFF7EAF908B1FEF7AB
:101930007FFF0FB000BD704710B50268184B98428A
:1019400008D0B0F1804F05D0164B984202D0164B0C
:10195000984203D122F070024B681A43104B984210
:1019600008D0B0F1804F05D00E4B984202D00E4BFC
:10197000984203D122F44072CB681A4322F08003CC
:101980004C6943EA040202608B68C3620B6883629D
:10199000034B984201D10B6903630123436110BDDE
:1019A000002C0140000400400008004030B50C4607
:1019B000816821F47F4142EA032525432943816060
:1019C00030BD2DE9F04705460C464FF00009286868
:1019D000866826F070066068064326F007062068D1
:1019E000064328688660606800F00F0100293BD13B
:1019F0000011082838D2DFE800F0333435360B27E1
:101A00002D04D4E90313A2682868FFF7CFFF2EE066
:101A10002068052802D10120BDE8F0872868D0F8A9
:101A200020802868006A20F0010029680862286880
:101A3000876927F0F007206947EA0017286887615F
:101A40002868C0F8208012E02269A168286800F0A8
:101A500011F80CE02269A168286800F01EF806E081
:101A600000BF00BF00BF02E04FF0010900BF00BF90
:101A70004846D1E730B50B461446026A056A25F0A0
:101A800001050562816921F0F00141EA041122F0AB
:101A90000A021A438161026230BD30B50B4614461A
:101AA000026A056A25F010050562816921F470411A
:101AB00041EA043122F0A00242EA0312816102628B
:101AC00030BD000070B504462168096921F4405119
:101AD000E2681143226811612269A16811436269B9
:101AE00041EA02052168C96841F20C629143294329
:101AF0002268D1602168496921F44071A2691143CB
:101B0000226851612D4A2168914202D1FFF7D4F930
:101B100001E0FFF7C1F900EBC00101EB00116268C1
:101B20009200B1FBF2F100EBC00202EB001263681D
:101B30009B00B2FBF3F26423B2FBF3F202EBC203AD
:101B400003EB0212A1EB8201322202EB01116422AB
:101B5000B1FBF2F101F0F00100EBC00202EB001268
:101B600063689B00B2FBF3F26423B2FBF3F201EB78
:101B7000021200EBC00101EB001163689B00B1FB96
:101B8000F3F100EBC00303EB00136668B600B3FB90
:101B9000F6F36426B3FBF6F303EBC30606EB03137D
:101BA000A1EB8301322303EB01116423B1FBF3F1B9
:101BB00001F00F0111442268916070BD00380140AE
:101BC0002DE9F04104460D4617469846069E34E03E
:101BD000701C88B32EB1FEF7C5FFA0EB0800B04221
:101BE0002BD900BF00BF21680C3151E8001F21F440
:101BF000D07021680C3141E80002002AF3D100BF07
:101C000000BF00BF2168143151E8001F21F001001E
:101C10002168143141E80002002AF3D100BF2020DE
:101C200084F8410084F8420000BF002084F840009E
:101C300000BF0320BDE8F081FFE72068006828406E
:101C4000A84201D1012000E00020B842C0D000200D
:101C5000F0E700002DE9FF5F81468B461546DDF871
:101C600040800E9FDDF80CA05C46012601E07F1E3F
:101C70006E4306FB05F0484505D806FB05F0B0FBB2
:101C8000F5F0B042F3D0BAF1000F00D07F1EBAF1E8
:101C9000000F09D00F9840B2302805D12D2008F848
:101CA0000400641C4FF0000A012F0AD9102F08D23B
:101CB0007F1E04E00F9808F80400641C7F1E002FAC
:101CC000F8D1BAF1000F03D02D2008F80400641CED
:101CD0000DE0B9FBF6F0B0FBF5F105FB1100094989
:101CE0000968085C08F80400641CB6FBF5F6002ED1
:101CF000EFD12146404600F007F8002004B0BDE8CF
:101D0000F09F00006043000870B505460E460024B1
:101D100009E0285D0A2802D10D2000F0E7F8285DCF
:101D200000F0E4F8641CB442F3D3204670BD000018
:101D30000FB42DE9F04F8BB04FF0000B149C15A899
:101D40000490C3E0002500E06D1C605D252802D0F2
:101D5000605D0028F8D129462046FFF7D5FF2C44C6
:101D600020782528EDD1641C00264FF020080CE0D7
:101D700014F8010C302801D106B9804606EB860024
:101D80004600207830380644641C2078302802DB76
:101D900020783928ECDD2078702874D008DC2528DC
:101DA0006CD058286ED0632809D0642868D111E01F
:101DB000732831D0752849D07828F7D161E004988C
:101DC00000680A900498001D049001210AA8FFF7FA
:101DD0009BFF79E0049800680A900498001D049025
:101DE0004FF000090A98002807DA0A98C0F1000BA2
:101DF000CDF828B00120099001E0002009904FF0B3
:101E00000A0A05A8CDE90068029052464946DDE974
:101E10000930FFF71FFF57E0049880C804900025A1
:101E200000E06D1C785D0028FBD129463846FFF79D
:101E30006BFFAE4209D9761B03E0012128A0FFF712
:101E400063FF301EA6F10106F7D13DE0049800685B
:101E50000A900498001D04904FF000094FF00A0A00
:101E60000020099005A8CDE9006802905246494635
:101E7000DDE90930FFF7EEFE26E004E01AE001E0BC
:101E80001DE000BF00BF049800680A900498001D80
:101E900004904FF000094FF0100A0020099005A8A7
:101EA000CDE90068029052464946DDE90930FFF766
:101EB000D1FE09E0601E0121FFF726FF04E00521A5
:101EC00008A0FFF721FF00BF00BF641C2078002896
:101ED0007FF438AF04900BB0BDE8F00F5DF814FB51
:101EE000200000004552524F5200000001B5FF2370
:101EF0000122694602480068FFF7B6FB08BD0000F2
:101F00000400002000BFFEE702480068C0F3022082
:101F1000704700000CED00E010B5002804DB0A0754
:101F2000130E054A135406E00A07140E034A00F084
:101F30000F031B1FD45410BD00E400E018ED00E0B7
:101F400030380A2801D20120704700207047000075
:101F50002DE9FC470746884616464248006801902E
:101F60000025414800680090A9464048007848B3E1
:101F70003F480078E8B93F48826928466D1C47F819
:101F800020203C484069441E3B480068844210D3EE
:101F900039480068394909680844A04209D3102D1E
:101FA00007D2454505D228466D1C47F820404FF022
:101FB00001093348007888B16A4601A9304600F02B
:101FC00049FC0BE0FEF736F98246FEF730F9824510
:101FD00004D16A4601A9304600F03CFC2448007850
:101FE00060B10198864201D2019E07E0DDE9001050
:101FF0000844B04202D2DDE9001046182AE03068F9
:10200000041F04F0010000B923E03068441E1A48A0
:102010000068001D84421BD31748006817490968EF
:102020000844A04214D3102D12D2201F00F00CFA45
:1020300070B145450CD2022D06D1B9F1000F03D085
:102040007868A04200D104E028466D1C47F8204083
:1020500000BF361DDDE900100844B042CFD8284645
:10206000BDE8FC879000002094000020A100002023
:10207000A2000020001B0020980000209C000020EF
:10208000A30000202DE9F04190B007460E463546EA
:102090002C4620227D4908A8FEF765FA7C48006896
:1020A00007907C48006806907B48007848B97B4AD6
:1020B0007BA17DA0FFF73CFE83A0FFF739FE00BFA8
:1020C000FEE78248007848B1744A81A176A0FFF704
:1020D0002FFE7DA0FFF72CFE00BFFEE701207B490D
:1020E00008707EA0FFF724FE77A0FFF721FE00F026
:1020F00045F9C7F380007A4908700846007800B3B4
:1021000000F0A4FB10B100F0A1FB00E075A0804638
:102110007649886A4146FFF70BFE6BA0FFF708FE81
:10212000294673A0FFF704FE67A0FFF701FEFEF744
:102130007EF80546044606AA07A9284600F08AFB51
:1021400006E06A49C86AFFF7F3FD5FA0FFF7F0FDFC
:10215000294667A0FFF7ECFD5BA0FFF7E9FD2035FE
:10216000294663A0FFF7E4FD57A0FFF7E1FD0798BC
:10217000854204D3DDE906100844A84202D20120BA
:10218000604908702A46DDE9061000F075F95D48DF
:10219000007800284BD15549086BFFF7C9FD4AA0CC
:1021A000FFF7C6FD58492068086060684860A0686D
:1021B0008860E068C8602069086160694861A0695A
:1021C0008861E069C8610846C0684F4A0B99926807
:1021D0000A9BCDE90132CDE903104B4840680090DD
:1021E0004948099B026849A00899FFF7A1FD36A05C
:1021F000FFF79EFD4448C069434A0F9992690E9BC0
:10220000CDE90132CDE903103F48406900903E48D6
:102210000D9B02693DA00C99FFF78AFD2AA0FFF7EC
:1022200087FD45A0FFF784FD27A0FFF781FD5248F9
:102230000068354908625048001D007881F8240084
:102240004D481030006888624B48401D007881F886
:102250002C0049481430006808634748801D0088F6
:102260008886454808300068886343480C300088F9
:10227000C863414818300088086400F065F92846B2
:1022800000F026FC10B0BDE8F08100006C440008AE
:102290009000002094000020A00000205644000878
:1022A000696E69745F6F6B002825732920686173FC
:1022B00020617373657274206661696C6564206166
:1022C000742025732E0000000D0A0000A1000020DC
:1022D000216F6E5F6661756C740000000000000085
:1022E000A30000204E4F5F4E414D45009043000833
:1022F000737461636B5F706F696E746572202530F3
:1023000038780000A2000020001B00202020257348
:102310003A2025303878202025733A202530387827
:10232000202025733A2025303878202025733A2044
:1023300025303878000000003D3D3D3D3D3D3D3DB0
:102340003D3D3D3D3D3D3D3D3D3D3D3D3D3D3D3DBD
:102350003D3D3D3D3D3D3D3D3D3D3D3D3D3D3D3DAD
:102360003D3D3D3D3D3D3D3D3D3D3D3D3D3D3D3D9D
:102370003D3D3D3D3D3D000024ED00E010B50549EB
:10238000054B064A48680649FFF7D2FC05A0FFF74F
:10239000CFFC10BD90430008501A0020301A0020D6
:1023A000101A00200D0A000070B504460E461546AE
:1023B000202221461648FEF737F9202231461548DB
:1023C000FEF732F9202229461348FEF72DF913486B
:1023D0001349086013480968401A134908601348F4
:1023E0001349086013480968401A134908600E48E9
:1023F000006838B911490868FFF79AFC10A0FFF788
:1024000097FC70BD01200F49087000BFF9E700007C
:10241000101A0020301A0020501A0020A81D002099
:1024200090000020A8210020940000200000000857
:1024300098000020844D00089C0000209043000874
:102440000D0A0000A000002001460B884A8802F413
:102450007840B0F5784F06D103F47840B0F5704F6E
:1024600001D10120704702F47F40B0F58E4F01D1B9
:102470000120F7E70020F5E770B505460E46144643
:102480001C480078D8B11C48007840B11B498869C5
:102490002146FFF74DFC1AA0FFF74AFC07E0174959
:1024A000C8692146FFF744FC15A0FFF741FCAC4288
:1024B00001D22C4603E0A819A04200D2AC190F4962
:1024C0000869FFF735FC0EA0FFF732FC08E0214653
:1024D0000CA02268FFF72CFC09A0FFF729FC241DA3
:1024E000A819A042F3D80EA0FFF722FC04A0FFF722
:1024F0001FFC70BDA2000020A30000209043000834
:102500000D0A00002020616464723A20253038787A
:1025100020202020646174613A2025303878000042
:102520003D3D3D3D3D3D3D3D3D3D3D3D3D3D3D3DDB
:102530003D3D3D3D3D3D3D3D3D3D3D3D3D3D3D3DCB
:102540003D3D3D3D0000000010B5B14890F8380019
:10255000C0F3400030B1AF49486BFFF7E9FBAEA0D4
:10256000FFF7E6FBAA48806BC0F3807000287DD09F
:10257000A74890F8240000284ED0A54890F82400E1
:1025800000F0010030B1A349886BFFF7D1FBA2A096
:10259000FFF7CEFB9E4890F82400C0F3400030B116
:1025A0009C49C86BFFF7C4FB9BA0FFF7C1FB984891
:1025B00090F82400C0F3C00030B19649086CFFF7D2
:1025C000B7FB95A0FFF7B4FB914890F82400C0F347
:1025D000001030B18F49486CFFF7AAFB8EA0FFF7BF
:1025E000A7FB8B4890F82400C009A8B1884890F850
:1025F000240000F0010028B9854890F82400C0F3B9
:10260000400048B1824A916A824AD2F89000FFF7AE
:102610008FFB81A0FFF78CFB7D4890F82C000028F1
:1026200057D07B4890F82C0000F0010030B1794978
:10263000C86CFFF77DFB78A0FFF77AFB744890F831
:102640002C00C0F3400030B17249086DFFF770FBF9
:1026500071A0FFF76DFB6E4890F82C00C0F380006E
:1026600040B16C49486DFFF763FB00E081E06AA070
:10267000FFF75EFB664890F82C00C0F3C00030B155
:102680006449886DFFF754FB63A0FFF751FB604876
:1026900090F82C00C0F3001030B15E49C86DFFF710
:1026A00047FB5DA0FFF744FB594890F82C00C00998
:1026B00078B1574890F82C00C0F3400048B1544A14
:1026C000116B544AD2F89400FFF732FB52A0FFF787
:1026D0002FFB4F48808E00284BD04D4890F8340097
:1026E00000F0010030B14B49486EFFF721FB4AA0D2
:1026F000FFF71EFB464890F83400C0F3400030B1AD
:102700004449886EFFF714FB43A0FFF711FB4048D4
:1027100090F83400C0F3800030B13E49C86EFFF736
:1027200007FB3DA0FFF704FB394890F83400C0F3E5
:10273000C00030B13749086FFFF7FAFA36A0FFF74B
:10274000F7FA3348808EC0F3002030B13149486F2A
:10275000FFF7EEFA30A0FFF7EBFA2D48808EC0F3BA
:10276000402030B12B49886FFFF7E2FA2AA0FFF72B
:10277000DFFA2748806BC00F002848D02448C06B80
:10278000002844D0224890F83C0000F0010030B10D
:102790002049C86FFFF7CCFA1FA0FFF7C9FA1C4801
:1027A00090F83C00C0F3400038B11A49D1F88000DD
:1027B000FFF7BEFA18A0FFF7BBFA154890F83C00E7
:1027C000C0F3800038B11349D1F88400FFF7B0FAA4
:1027D00011A0FFF7ADFA0E4890F83C00C0F3C0001E
:1027E00038B10C49D1F88800FFF7A2FA0AA0FFF728
:1027F0009FFA074890F83C00C0F3001038B1054933
:10280000D1F88C00FFF794FA03A0FFF791FA10BDFE
:10281000001B0020904300080D0A00002DE9F04144
:10282000074C206840F0100020600A27002597FB25
:10283000F5F6314603A0FFF77BFABDE8F081000012
:1028400014ED00E07A3A25640A00000010B500F0AB
:102850008BFF10BD70B506460C4615464CB90E4AA6
:102860000EA111A0FFF764FA17A0FFF761FA00BFED
:10287000FEE74DB9084A15A10BA0FFF759FA12A0BF
:10288000FFF756FA00BFFEE700F0ACFF206000F053
:10289000AFFF8000286070BD284400087374617227
:1028A000745F616464720000282573292068617375
:1028B00020617373657274206661696C6564206160
:1028C000742025732E0000000D0A000073697A65DC
:1028D00000000000FEF758F9FEF7FCFFFEF71EFFB0
:1028E000FEF758FFFEF790FF0A4800F0C7FD0AA266
:1028F0000BA10DA0FFF758FD00F03EF80D4A002196
:102900000D4800F075F80D49086000F051F800BF5F
:10291000FEE70000EC00002056302E312E30000083
:1029200056312E302E300000436D4261636B74725D
:10293000616365003C430008711800080000002036
:1029400010B50146EFF3058048B9EFF3108030B9B8
:1029500008480068022805D1EFF3118010B16FF02C
:10296000050404E0002411B1084600F0C7FE20462B
:1029700010BD000068000020EFF30580002809D199
:10298000EFF3108030B9094A1068022805D1EFF33F
:10299000118111B16FF00500704710B14FF0FF3099
:1029A0007047012010600020704700006800002080
:1029B00010B5EFF30580002809D1EFF3108030B98E
:1029C0000A4A1068022805D1EFF3118111B16FF0A6
:1029D000050010BD012802D04FF0FF3010BD0220CD
:1029E000106000F00BFF002010BD00006800002008
:1029F0002DE9F04385B00B464FF000070397EFF346
:102A0000058100295DD1EFF31081002959D12F49AB
:102A10000968022903D1EFF31181002951D100285F
:102A20004FD080244FF0180C04970DF110094FF08F
:102A3000FF3152B3166806B1B146956905B1AC468F
:102A4000ACF10105382D03D2157915F0010F03D033
:102A500005B00020BDE8F083556905B1AC08D2F897
:102A60000880B8F1000F07D0D668602E04D316692D
:102A700016B10DB1012109E0B8F1000F06D1D568FA
:102A800025B9156915B9002100E00021012901D0FF
:102A900061B116E09168126901920291CDF800C00F
:102AA0002246494601F050FA03900AE003A9019139
:102AB000A2B2CDF800C0494601F010FA012800D0BA
:102AC0000397039805B0BDE8F0830000680000207C
:102AD00070B590B00546002640216846FDF77DFDA3
:102AE0002A4610216846FFF733FA064600240FE015
:102AF0005DF8242004EBC401144BC81814A1FDF7A1
:102B0000C1FB202104EBC4000830104A1154641C9E
:102B1000B442EDD38EB10D490FA0FFF709F912A011
:102B2000FFF706F91149094B11A2086A1249FFF78C
:102B3000FFF80DA0FFF7FCF806E00C49486AFFF724
:102B4000F7F809A0FFF7F4F810B070BD701A002074
:102B50002530386C78000000737461636B696E66B1
:102B60006F202573200D0A000D0A00009043000815
:102B70002E61786600000000101A00202DE9F04157
:102B800004460F46134E75693068001D00F07CFC4A
:102B9000B4F1FF3F07D137B13068BDE8F041011D06
:102BA0000D4800F0C4BC2C4430684460AC4206D2EE
:102BB0003068011DB068BDE8F04100F09DBC306890
:102BC000011D706800F098FC306B844200D23463C1
:102BD000BDE8F081180000202406002070B50446EE
:102BE00000F0B2FC1C4D2869401C2861286810B117
:102BF000E86938B10CE02C602869012808D100F0A0
:102C00008FF905E02868E16AC06A884200D82C6024
:102C1000E86A401CE862A064E06AA969884200D9B9
:102C2000A8610E4900EB800001EB8000211D00F03F
:102C30007EFC00F0A9FCE86900280CD02868E16A55
:102C4000C06A884207D206494FF080500860BFF33F
:102C50004F8FBFF36F8F70BD1800002074010020EC
:102C600004ED00E038B500F06FFC0F4CA068B8B977
:102C70000E4800F033FC0E4800F030FC0B4820609A
:102C80001430606000200B4B009003F150021021C3
:102C90000A2000F0A9FEA06010B107A100F0F4FC2A
:102CA000BDE8384000F070BC540000203806002019
:102CB0004C06002060060020546D72510000000098
:102CC00070B50D4CE068002815D00C4E00F03CFCAF
:102CD000F068C568281D00F0D7FB2069401E206100
:102CE000E068401EE06000F04FFC284600F051F81C
:102CF000E0680028EAD170BD18000020100600200E
:102D00000B46026C002A0CD0C1681144C160D0F897
:102D100004C0614501D30168C160C1681846FDF770
:102D2000DDBB70472DE9F041044616460027A56B30
:102D3000226C002A10D0C6B1E068FDF7CFFBE16835
:102D4000206C091AE1602268914202D26168081A77
:102D5000E060022E16D017E02068A8B9606801F084
:102D60009DF90746002060600EE0A068FDF7B6FB05
:102D7000216CA0680844A0606168884204D3206880
:102D8000A06001E005B16D1E681CA0633846BDE877
:102D9000F08110B5044694F85D1000290BD001298C
:102DA00011D0022914D0502080F31188BFF34F8F27
:102DB000BFF36F8FFEE7206B00F0FCFB2046BDE801
:102DC000104000F0F7BB2046BDE8104000F0F2BB19
:102DD00010BD000007490A681168002904D00021CD
:102DE000016019B1002070470121F9E7D06800683F
:102DF00070470000540000204FF44061104810F06C
:102E0000070F06D0C01D20F007000D49411AC1F57B
:102E100040610C4A1060002353600144083921F0DE
:102E20000701103A11604B600B600B1A43600160A0
:102E30004068906050604FF00040D06070470000E4
:102E4000100E00207C000020074E4FF08054074DEC
:102E5000FFF736FF30680128FAD92C60BFF34F8F97
:102E6000BFF36F8FF4E700007401002004ED00E071
:102E700070B51D46049C002909D02260E0632164DE
:102E80000121204600F0E8FD84F84C5070BD24601C
:102E9000F4E72DE9F05F8246DDF82C800A9D0C9C5A
:102EA0000E4617469B46B900A522206BFDF78DFB09
:102EB000206B791E00EB810020F007090020676479
:102EC00000216318725C83F83420725C12B1491CD3
:102ED0001029F6D3064684F84300382D00D3372551
:102EE000E56225656665201D00F003FB04F118000E
:102EF00000F0FFFA2461C5F13800A0616462A665A4
:102F000084F85C605A465146484600F0A1FA2060B9
:102F1000B8F1000F01D0C8F80040BDE8F09F0000F4
:102F200070B500240F4D04EB840005EB800000F029
:102F3000D5FA641C382CF6D30B4800F0CFFA0B48B6
:102F400000F0CCFA0A4800F0C9FA0A4800F0C6FAC4
:102F5000094800F0C3FA094803494160143181600F
:102F600070BD000074010020D4050020E805002099
:102F7000FC05002010060020240600201800002078
:102F800010B4144900E011460A688242FBD34B6832
:102F900003EB010C844503D140681844486008469F
:102FA0000C68D0F804C00CEB0003A3420CD10A4B10
:102FB0001B689A4206D05268624442600A681268EE
:102FC000026002E0036000E00260814200D008601D
:102FD00010BC70477C0000206C00002010B500245D
:102FE00041600061DFF838C091420BD8D11A826984
:102FF000914201D3012410E0011DDCF8040000F02F
:103000007BFA0AE09A4203D2994201D3012404E0F8
:10301000011DDCF8000000F06FFA204610BD000032
:103020005400002010B5044600F08EFAA06B20B1C9
:10303000002400F0A9FA204610BD0124F9E710B5DC
:10304000044600F081FAA06BE16B884201D10124B3
:1030500000E0002400F098FA204610BDF8B50546BF
:103060000E4614480068C068C468201D00F00CFAC1
:10307000E069012810D1A0692B464119324620464B
:10308000FFF7ACFF40B100200346014600902A46FE
:10309000204601F019F928B1616A01B02046BDE867
:1030A000F0400847502080F31188BFF34F8FBFF3E3
:1030B0006F8FFEE75400002030B587B0334D0022FB
:1030C00002A9A86800F026FE00285CD0029800281B
:1030D00003DA039A059904989047029800284BDB7D
:1030E000049C606910B1201D00F0CEF901A800F029
:1030F00097F8024602980A283ED2DFE800F005055C
:10310000053D263705053D260398A1690346014480
:103110002046FFF763FF00B3616A20468847E069F5
:10312000012829D1002000900398A16900234218AA
:103130001946204601F0C8F878B9502080F311886C
:10314000BFF34F8FBFF36F8FFEE70398A06128B1E5
:10315000811813462046FFF741FF0DE0502080F311
:103160001188BFF34F8FBFF36F8FFEE794F82C00E9
:1031700010B9204600F01EFA002202A9A86800F04B
:10318000C9FD0028A2D107B030BD000054000020C6
:10319000F8B505460C4600F079FB684600F040F8AB
:1031A0000646009810B100F0F5FFF8BD44B9B542ED
:1031B00006D800F0EFFF31462846FFF74FFFF8BD75
:1031C0000C481CB14168096891B10024A91B224632
:1031D000806800F06DFA00F0DDFF0028EFD10649AD
:1031E0004FF080500860BFF34F8FBFF36F8FF8BD73
:1031F0000124EBE75400002004ED00E00749486893
:103200000068002805D04868C068C0684068086346
:1032100070474FF0FF30086370470000180000202F
:1032200070B5044600F0CEFE0546074E3069854273
:1032300004D200F00BF80120206001E000202060A3
:103240003561284670BD000054000020F8B51B4EC3
:1032500030680068002824D000273068C0680568FE
:10326000C468201D00F010F9616A20468847E069B3
:10327000012812D1A0692844A84206D960602461BF
:10328000211D306800F038F907E000232A4619466E
:103290002046009701F018F840B130680068002817
:1032A000DBD13068716831607060F8BD502080F308
:1032B0001188BFF34F8FBFF36F8FFEE754000020DC
:1032C0000A484068B0F1FF3F07D0502080F31188D2
:1032D000BFF34F8FBFF36F8FFEE7502080F311884D
:1032E000BFF34F8FBFF36F8FFEE700008400002015
:1032F00082B001A8FFF76EFD0199FFF749FFFFF7C4
:10330000DBFEF6E770B5044600F01EF994F945506F
:10331000002D0CDD606A50B104F1240000F0FEFEC7
:1033200008B100F01BFA681E45B2002DF2DC4FF028
:10333000FF3684F8456000F027F900F005F994F9AC
:103340004450002D0CDD206950B104F1100000F054
:10335000E5FE08B100F002FA681E45B2002DF2DC6D
:1033600084F84460BDE8704000F00EB92DE9F041EA
:103370000546002600F08AFA334F386808B9FFF78F
:103380003BFDF86805424ED19DB1083515F0070F99
:103390000FD005F00700C0F10800054415F0070F35
:1033A00007D0502080F31188BFF34F8FBFF36F8F8A
:1033B000FEE7002D37D07868854234D82349084687
:1033C000046801E0214604466068A84202D22068F1
:1033D0000028F7D13868844225D0086800F1080633
:1033E000206808606068411B10290FD9601910F02F
:1033F000070F07D0502080F31188BFF34F8FBFF322
:103400006F8FFEE741606560FFF7BAFD616878681D
:10341000401A7860BA68904200D2B860F8680843F1
:1034200060600020206000F0B5FE16F0070F07D0A6
:10343000502080F31188BFF34F8FBFF36F8FFEE7EB
:103440003046BDE8F08100006C0000207C000020C8
:10345000001F4FF080730360001F21F00101016025
:10346000001F0349016014380260203870470000D3
:10347000C132000810B5FFF7D1F910BD08B10149FC
:1034800008607047040000200169436882689A6000
:10349000836842685A604A68824201D182684A6001
:1034A000002202610868401E08600868704700003A
:1034B000034B036003F160000860802010607047D8
:1034C00050070020044B036003F1600008604FF4D4
:1034D0008070106070470000B009002000F1080102
:1034E00041604FF0FF328260C160016100210160E4
:1034F000704700210161704710B4D1F800C0BCF1E1
:10350000FF3F02D000F1080202E0026904E01A461F
:1035100053681C686445FAD953684B6099608A60A7
:10352000516008610168491C016010BC7047426825
:103530004A6093688B609368596091600861016884
:10354000491C016070470000502080F31188BFF3D0
:103550004F8FBFF36F8F0A494868401C48600128AD
:103560000CD10848006810F0FF0F07D0502080F3FE
:103570001188BFF34F8FBFF36F8FFEE770470000D6
:103580008400002004ED00E009494868002806D0C6
:10359000401E4860002801D180F3118870475020F8
:1035A00080F31188BFF34F8FBFF36F8FFEE70000EA
:1035B0008400002070B5002827D0A0F10804134D26
:1035C0006068E968084207D1502080F31188BFF392
:1035D0004F8FBFF36F8FFEE722683AB1502080F320
:1035E0001188BFF34F8FBFF36F8FFEE78843606092
:1035F00000F04CF960686968084468602046FFF78D
:10360000BFFCBDE8704000F0C5BD70BD6C0000207F
:103610004FF0E02000210161816105494FF47A7289
:103620000968B1FBF2F1491E416107210161704750
:103630001400002010B5FCF7F3FD114910280ED33B
:1036400000F1E02090F8F0030A78904207D2502071
:1036500080F31188BFF34F8FBFF36F8FFEE70948E8
:103660000068896800F4E060884207D9502080F340
:103670001188BFF34F8FBFF36F8FFEE710BD0000BF
:10368000840000200CED00E00022084B53F832C00B
:10369000BCF1000F03D0521C082AF7D3704743F83F
:1036A000321003EBC2014860704700003401002073
:1036B00070B504460D461646FFF746FF94F94400E0
:1036C000B0F1FF3F4FF0000001D184F8440094F9BD
:1036D0004510B1F1FF3F01D184F84500FFF754FFD9
:1036E000A06B28B93246294604F1240000F05CF8AA
:1036F0002046BDE87040FFF705BE000010B5024649
:103700000020002A12D00F48806B38B1502080F37F
:103710001188BFF34F8FBFF36F8FFEE700F0B6F84D
:1037200000211046FFF72AFA00F034FD002807D1E7
:1037300005494FF080500860BFF34F8FBFF36F8F84
:1037400010BD00001800002004ED00E002498A6A64
:10375000026049694160704718000020014901205A
:1037600048627047180000200148006834307047F4
:103770001800002010B50C4600280BD0094A12682A
:1037800002F11801FFF7B8FE2046BDE81040012104
:10379000FFF7F4B9502080F31188BFF34F8FBFF3C8
:1037A0006F8FFEE71800002070B50D461446002804
:1037B0000DD00B4909681831FFF7B9FE0CB14FF075
:1037C000FF3521462846BDE87040FFF7D7B95020A5
:1037D00080F31188BFF34F8FBFF36F8FFEE70000B8
:1037E0001800002001480068006B70471800002096
:1037F00001480068406C70471800002030B587B061
:1038000000250695059504AA05A906A8FFF750FE10
:1038100006980599019102900023009517A1194877
:10382000049A00F091FB184C606308B1012000E09D
:103830000020012801D100F013FD01280AD0B0F1C9
:10384000FF3F19D1502080F31188BFF34F8FBFF392
:103850006F8FFEE7502080F31188BFF34F8FBFF3C7
:103860006F8F4FF0FF3020630120E061656107B08A
:10387000BDE8304000F048B807B030BD49444C4581
:1038800000000000492E0008180000200248816B4B
:10389000491C81637047000018000020184B986B8A
:1038A000002802D0012058627047002058629869B1
:1038B000144900EB800251F822203AB9C0B1401EF1
:1038C00000EB800251F82220002AF7D000EB8002A2
:1038D00001EB82014A6852684A6001F1080C6245B6
:1038E00001D152684A604968C96819609861704797
:1038F000502080F31188BFF34F8FBFF36F8FFEE727
:10390000180000207401002000B583B02849087811
:103910000290FF200870087801909DF804009DF83F
:10392000042000F0F000904207D0502080F311886E
:10393000BFF34F8FBFF36F8FFEE79DF804001D4B61
:1039400000F050001870072098609DF8040010F0F7
:10395000800F0BD09868401E98609DF804004000CE
:1039600001909DF8040010F0800FF3D198680328AF
:1039700007D0502080F31188BFF34F8FBFF36F8FB4
:10398000FEE74FF440709860029808700A4801689A
:1039900041F470010160016841F070410160FFF77E
:1039A00037FE00205860FCF705FC03B0002000BD86
:1039B00000E400E08400002020ED00E010B550207D
:1039C00080F31188BFF34F8FBFF36F8F00F000FBC0
:1039D00018B104494FF080500860002080F311882E
:1039E00010BD000004ED00E038B5049D002804D0AF
:1039F0005BB102B189B1C2B120E0502080F31188DF
:103A0000BFF34F8FBFF36F8FFEE7502080F3118815
:103A1000BFF34F8FBFF36F8FFEE7502080F3118805
:103A2000BFF34F8FBFF36F8FFEE739B1502080F3A4
:103A30001188BFF34F8FBFF36F8FFEE74FF0500C2D
:103A4000CDF800C01C46012384F846302B46009474
:103A5000FFF70EFA204638BD70B504460D46002C1F
:103A600025D0FFF771FD226CE16B206801FB02009D
:103A700060600020A0632068A060E16B226C206879
:103A8000491E01FB0200E0604FF0FF3084F8440063
:103A900084F845009DB104F11000FFF71FFD04F10B
:103AA0002400FFF71BFDFFF76FFD012070BD5020C4
:103AB00080F31188BFF34F8FBFF36F8FFEE720694C
:103AC0000028F0D004F1100000F028FB0028EAD014
:103AD00004494FF080500860BFF34F8FBFF36F8FE2
:103AE000E1E7000004ED00E02DE9FF4782B0044665
:103AF0008A461F460025002C03D0BAF1000F08D0DB
:103B000011E0502080F31188BFF34F8FBFF36F8F08
:103B1000FEE7206C38B1502080F31188BFF34F8F3F
:103B2000BFF36F8FFEE7022F0AD1E06B012807D0A9
:103B3000502080F31188BFF34F8FBFF36F8FFEE7E4
:103B400000F032FA48B9049838B1502080F3118857
:103B5000BFF34F8FBFF36F8FFEE700264FF0805803
:103B6000DFF8F090FFF7F0FCA06BE16B884205D323
:103B7000022F03D0049808B335B329E03A465146E2
:103B80002046FFF7CFF8616A59B104F1240000F034
:103B9000C5FA68B1C9F80080BFF34F8FBFF36F8FCC
:103BA00006E028B1C9F80080BFF34F8FBFF36F8FD5
:103BB000FFF7EAFC06B00120BDE8F087FFF7E4FC60
:103BC00006B00020BDE8F0876846FFF7BFFD01257D
:103BD000FFF7DAFCFFF75AFEFFF7B6FC94F9440052
:103BE000B0F1FF3F01D184F8446094F94500B0F191
:103BF000FF3F01D184F84560FFF7C6FC04A9684681
:103C000000F02CF940B12046FFF77CFB00F0C2FA2F
:103C100006B00020BDE8F0872046FFF710FA90B10B
:103C200004F110000499FFF7A5FD2046FFF76AFB99
:103C300000F0B0FA002895D1C9F80080BFF34F8F8B
:103C4000BFF36F8F8EE72046FFF75CFB00F0A2FA10
:103C500088E7000004ED00E02DE9F04704468946BE
:103C600017461E46002C03D0B9F1000F08D011E012
:103C7000502080F31188BFF34F8FBFF36F8FFEE7A3
:103C8000206C38B1502080F31188BFF34F8FBFF301
:103C90006F8FFEE7022E0AD1E06B012807D050207B
:103CA00080F31188BFF34F8FBFF36F8FFEE7FFF7ED
:103CB000C1FC5020EFF3118880F31188BFF34F8FC0
:103CC000BFF36F8FA06BE16B884206D3022E04D046
:103CD000002088F31188BDE8F08794F945503246FA
:103CE00049462046FFF71EF8B5F1FF3F04D0681C97
:103CF00084F845000120ECE7606A0028FAD004F15E
:103D0000240000F00BFA0028F4D0002FF2D001209C
:103D10003860EFE72DE9F74783B004468A4600256F
:103D2000002C03D0BAF1000F08D011E0502080F32E
:103D30001188BFF34F8FBFF36F8FFEE7206C38B150
:103D4000502080F31188BFF34F8FBFF36F8FFEE7D2
:103D500000F02AF948B9059838B1502080F311884D
:103D6000BFF34F8FBFF36F8FFEE700274FF08058F0
:103D7000DFF8E490FFF7E8FBA66BC6B1514620469A
:103D8000FEF7BEFF701EA063206950B104F1100061
:103D900000F0C4F928B1C9F80080BFF34F8FBFF31A
:103DA0006F8FFFF7F1FB06B00120BDE8F0870598A3
:103DB00008B135B109E0FFF7E7FB06B00020BDE828
:103DC000F0876846FFF7C2FC0125FFF7DDFBFFF730
:103DD0005DFDFFF7B9FB94F94400B0F1FF3F01D15D
:103DE00084F8447094F94500B0F1FF3F01D184F8A4
:103DF0004570FFF7C9FB05A9684600F02FF868B1C8
:103E00002046FFF77FFA00F0C5F92046FFF70AF9D0
:103E10000028AFD006B00020BDE8F0872046FFF7AD
:103E200001F990B104F124000599FFF7A3FC2046A5
:103E3000FFF768FA00F0AEF900289BD1C9F80080BE
:103E4000BFF34F8FBFF36F8F94E72046FFF75AFA07
:103E500000F0A0F98EE7000004ED00E070B5054623
:103E60000C46002D15D0E4B1FFF76EFBDFF868C0FB
:103E7000DCF814006B68C11A2268B2F1FF3F18D059
:103E80002E68DCF828C0664515D0834213D801247B
:103E90001DE0502080F31188BFF34F8FBFF36F8F69
:103EA000FEE7502080F31188BFF34F8FBFF36F8F71
:103EB000FEE700240BE08A4206D9501A206028460B
:103EC000FFF744FC002402E0002020600124FFF7FB
:103ED0005BFB204670BD0000180000202DE9F04F6C
:103EE00085B081460F9F0E9E8A4690469B464FEABC
:103EF0008800FFF73BFA054628000AD06020FFF74C
:103F000035FA04460CB1256304E02846FFF752FB5E
:103F100000E000249CB1002084F85D0003905B4623
:103F2000424651460197009602944846FEF7B1FF7B
:103F30002046FEF753FE05B00120BDE8F08F05B026
:103F40004FF0FF30BDE8F08F70B586B00646DDF863
:103F500028C00C9C0B98002816D0ECB16025049565
:103F60002063022084F85D00002005AD0390CDF8A9
:103F700000C0019502943046FEF78BFF2046FEF705
:103F80002DFE059806B070BD502080F31188BFF358
:103F90004F8FBFF36F8FFEE7502080F31188BFF380
:103FA0004F8FBFF36F8FFEE70548C169002903D02B
:103FB000806B18B1002070470120704702207047C5
:103FC00018000020014840697047000018000020D8
:103FD0002DE9F04100262F4FB86B002808D0386A31
:103FE000401C3862786A00B101263046BDE8F08195
:103FF0007869451C7D619DB97868006838B15020AA
:1040000080F31188BFF34F8FBFF36F8FFEE778689F
:10401000B9687960B860B86A401CB862FFF7EEF81A
:10402000386BDFF8748085420DD37868006838B14A
:104030007868C068C468606885420ED2386302E060
:104040004FF0FF3038633868C06A00EB800058F8E2
:1040500020000128C6D90126C4E7201DFFF714FA65
:10406000A06A18B104F11800FFF70EFAE16AB86906
:10407000814200D9B96101EB810008EB8000211D6C
:10408000FFF755FAE06A3968C96A8842CDD301263C
:10409000CBE70000180000207401002070B5044632
:1040A0000021002833D01B4D2868844207D05020BF
:1040B00080F31188BFF34F8FBFF36F8FFEE7606D02
:1040C00038B1401E6065236DE26A9A421FD040B14C
:1040D0001DE0502080F31188BFF34F8FBFF36F8F27
:1040E000FEE7201DFFF7D0F9206DE062C0F1380037
:1040F000A061E06AA969884200D9A861064900EB7D
:10410000800001EB8000211DFFF711FA0121084614
:1041100070BD0000180000207401002070B5C06858
:10412000C468002C14D004F11800FFF7ADF9164D47
:10413000A86BA8B104F118011448FFF7F8F9E06A78
:104140002968C96A88421CD901200121696270BDB1
:10415000502080F31188BFF34F8FBFF36F8FFEE7BE
:10416000201DFFF791F9E06AA969884200D9A8618A
:10417000074900EB800001EB8000211DFFF7D7F914
:10418000DDE7002070BD000018000020FC050020C5
:10419000740100202DE9F047002400272D4DA86B65
:1041A000002807D0FFF7D0F9A86B401EA863A86BC2
:1041B00040B149E0502080F31188BFF34F8FBFF327
:1041C0006F8FFEE7286900283ED0234E30684FF0FD
:1041D000010800B3A6F59169F068C46804F11800FD
:1041E000FFF752F9201DFFF74FF9E06AA9698842ED
:1041F00000D9A86100EB800009EB8000211DFFF7CA
:1042000096F9E06A2968C96A884201D3C5F8248012
:1042100030680028E0D10CB1FEF7F0FF2C6A4CB1F9
:10422000FFF7D6FE08B1C5F82480641E002CF7D134
:1042300000202862686A38B10127084938070860F9
:10424000BFF34F8FBFF36F8FFFF79EF93846BDE87E
:10425000F087000018000020FC05002004ED00E0BD
:1042600030B587B00024FEF7FDFC134DA868B0B14F
:1042700000200690059004AA05A906A8FFF722F9D8
:1042800005990698022200920191029000230BA149
:104290000C48049AFFF758FEE86000B1012414B1FD
:1042A00007B0204630BD502080F31188BFF34F8FF8
:1042B000BFF36F8FFEE7000054000020546D7220A2
:1042C00053766300F1320008F0B585B084460A9D4C
:1042D00016461F460022BCF1000F14D0164CA068F1
:1042E00000B300910196CDF808C006291BDAFFF74C
:1042F0005BFE02280FD000231A466946A068FFF72C
:10430000F3FB024615E0502080F31188BFF34F8F76
:10431000BFF36F8FFEE700232A466946A068FFF7C8
:10432000E3FB024605E000233A466946FFF794FCAA
:10433000024605B01046F0BD54000020C8440008F5
:10434000000000000000000000000000000000006D
:104350000002000018000000000000000000000043
:10436000D444000802030405060708090A0B0C0DD3
:104370000E0F1010010200000000000000000102FA
:1043800003040607080900000000010203040000FE
:10439000C0470008A04B0008F44B00087C4C000804
:1043A000BC450008E4450008B44C0008DC4C00089B
:1043B000084C0008804B0008E04B0008484C0008FF
:1043C0000C46000894470008044900089448000877
:1043D000484B0008EC4A000888490008D04800080B
:1043E000244800085C480008204B0008C44A000824
:1043F00048490008D449000800450008644A0008FC
:104400001C4A0008404700084C4500084C4600087C
:104410000C47000880460008AC460008DC4600084F
:104420002C4D0008044D00086765745F6375725F6A
:104430007468726561645F737461636B5F696E66F3
:104440006F00636D5F6261636B74726163655F616E
:10445000737365727400636D5F6261636B74726124
:1044600063655F6661756C7400000000E8440008D5
:10447000EC440008F0440008F4440008B845000883
:10448000FC440008F84400087C4600083031323310
:104490003435363738394142434445464030580078
:1044A00030313233343536373839616263646566AA
:1044B0004030780004000008000000000000000206
:1044C000000100001000000064656661756C7454A2
:1044D00061736B00303132333435363738396162CD
:1044E00063646566000000005230200052312000F5
:1044F0005232200052332000504320004C52200002
:104500005573616765206661756C742069732063FB
:10451000617573656420627920617474656D70746F
:104520007320746F2073776974636820746F2061DF
:104530006E20696E76616C696420737461746520A5
:1045400028652E672E2C2041524D29005573616736
:1045500065206661756C742069732063617573658D
:104560006420627920496E646963617465732061B7
:1045700020646976696465206279207A65726F20AB
:104580006861732074616B656E20706C6163652077
:104590002863616E20626520736574206F6E6C798C
:1045A000206966204449565F305F54525020697339
:1045B0002073657429000000523132003D3D3D3DBD
:1045C0003D2054687265616420737461636B206977
:1045D0006E666F726D6174696F6E203D3D3D3D3D4D
:1045E000000000003D3D3D3D3D3D204D61696E2098
:1045F000737461636B20696E666F726D6174696F4D
:104600006E203D3D3D3D3D3D000000003D3D3D3DBA
:104610003D3D3D3D3D3D3D3D3D3D3D3D3D3D3D20E7
:1046200052656769737465727320696E666F726D27
:104630006174696F6E203D3D3D3D3D3D3D3D3D3DDD
:104640003D3D3D3D3D3D3D3D3D3D00004465627588
:1046500067206661756C742069732063617573658A
:10466000642062792068616C74207265717565736D
:1046700074656420696E204E5649430050535200C1
:104680004465627567206661756C74206973206388
:10469000617573656420627920445754206D61749C
:1046A0006368206F63637572726564004465627548
:1046B00067206661756C742069732063617573652A
:1046C0006420627920566563746F72206665746336
:1046D00068206F636375727265640000446562757B
:1046E00067206661756C74206973206361757365FA
:1046F0006420627920454442475251207369676EB5
:10470000616C2061737365727465640044656275E1
:1047100067206661756C74206973206361757365C9
:104720006420627920424B505420696E7374727514
:104730006374696F6E2065786563757465640000E5
:104740005573616765206661756C742069732063B9
:10475000617573656420627920696E646963617450
:104760006573207468617420616E20756E616C6978
:10477000676E656420616363657373206661756C41
:1047800074206861732074616B656E20706C616366
:104790006500000048617264206661756C74206970
:1047A0007320636175736564206279206661696C4A
:1047B000656420766563746F722066657463680053
:1047C0004552524F523A20556E61626C6520746FAB
:1047D0002067657420746865206D61696E2073744C
:1047E00061636B20696E666F726D6174696F6E2CA8
:1047F00020706C6561736520636865636B20746805
:104800006520636F6E66696775726174696F6E208B
:104810006F6620746865206D61696E2073746163D2
:104820006B000000427573206661756C74206973BB
:1048300020636175736564206279207072656369B5
:1048400073652064617461206163636573732076AE
:10485000696F6C6174696F6E0000000042757320AF
:104860006661756C7420697320636175736564207B
:10487000627920696D707265636973652064617423
:1048800061206163636573732076696F6C6174691D
:104890006F6E00004D656D6F7279206D616E61679E
:1048A000656D656E74206661756C74206973206334
:1048B000617573656420627920646174612061634D
:1048C000636573732076696F6C6174696F6E000045
:1048D000427573206661756C74206973206361751D
:1048E00073656420627920696E737472756374698C
:1048F0006F6E206163636573732076696F6C61749A
:10490000696F6E004D656D6F7279206D616E6167C4
:10491000656D656E74206661756C742069732063C3
:10492000617573656420627920696E737472756352
:1049300074696F6E206163636573732076696F6C51
:104940006174696F6E000000427573206661756C5A
:1049500074206973206361757365642062792066D1
:104960006C6F6174696E672D706F696E74206C6115
:104970007A792073746174652070726573657276DC
:104980006174696F6E0000004D656D6F7279206D06
:10499000616E6167656D656E74206661756C74200B
:1049A00069732063617573656420627920666C6F3A
:1049B0006174696E672D706F696E74206C617A79AD
:1049C00020737461746520707265736572766174AA
:1049D000696F6E005573616765206661756C742040
:1049E00069732063617573656420627920617474F2
:1049F000656D70747320746F206578656375746578
:104A000020616E20756E646566696E656420696EEE
:104A1000737472756374696F6E000000557361671B
:104A200065206661756C74206973206361757365B8
:104A30006420627920617474656D70747320746F82
:104A40002065786563757465206120636F70726F8F
:104A5000636573736F7220696E73747275637469C2
:104A60006F6E00005573616765206661756C742018
:104A70006973206361757365642062792061747461
:104A8000656D70747320746F20646F20616E206593
:104A90007863657074696F6E20776974682061202F
:104AA0006261642076616C756520696E207468654A
:104AB000204558435F52455455524E206E756D62E5
:104AC00065720000427573206661756C74206973AD
:104AD0002063617573656420627920737461636B10
:104AE000696E67206572726F720000004D656D6FB0
:104AF0007279206D616E6167656D656E74206661A7
:104B0000756C7420697320636175736564206279C4
:104B100020737461636B696E67206572726F7200D7
:104B2000427573206661756C7420697320636175CA
:104B300073656420627920756E737461636B696E4E
:104B400067206572726F72004D656D6F7279206DAE
:104B5000616E6167656D656E74206661756C742049
:104B600069732063617573656420627920756E7363
:104B70007461636B696E67206572726F720000000A
:104B800044756D702063616C6C20737461636B207D
:104B900068617320616E206572726F7200000000A0
:104BA0004669726D77617265206E616D653A202588
:104BB000732C206861726477617265207665727308
:104BC000696F6E3A2025732C20736F66747761725B
:104BD000652076657273696F6E3A20257300000058
:104BE0004661756C74206F6E207468726561642014
:104BF00025730000417373657274206F6E207468B2
:104C0000726561642025730053686F77206D6F7241
:104C1000652063616C6C20737461636B20696E66E0
:104C20006F2062792072756E3A2061646472326C12
:104C3000696E65202D652025732573202D61202D3B
:104C400066202573000000004661756C74206F6E4D
:104C500020696E74657272757074206F7220626163
:104C60007265206D6574616C286E6F204F5329202A
:104C7000656E7669726F6E6D656E740041737365F3
:104C80007274206F6E20696E746572727570742014
:104C90006F722062617265206D6574616C286E6F41
:104CA000204F532920656E7669726F6E6D656E7444
:104CB000000000004572726F723A2054687265619C
:104CC0006420737461636B282530387829207761FC
:104CD00073206F766572666C6F7700004572726F35
:104CE000723A204D61696E20737461636B282530C0
:104CF00038782920776173206F766572666C6F77DC
:104D00000000000054686520627573206661756C50
:104D100074206F6363757272656420616464726588
:104D2000737320697320253038780000546865203B
:104D30006D656D6F7279206D616E6167656D656E11
:104D400074206661756C74206F636375727265643C
:104D5000206164647265737320697320253038782C
:104D600000000000844D000800000020A4000000A6
:104D700028010008284E0008A4000020042100009B
:104D800044010008000000000000000000000000D6
:104D900010000000010000000024F40000000000EA
:104DA0000000000000000000000000000000000003
:104DB00000000000000000000000000000000000F3
:104DC00000000000000000000000000000000000E3
:104DD00000000000000000000000000000000000D3
:104DE00000000000000000000000000000000000C3
:104DF00000000000000000000000000000000000B3
:104E0000000000000000000000000000AAAAAAAAFA
:104E10000000000000000000000000000000000092
:084E200000000000000000008A
:04000005080000ED02
:00000001FF
